:020000040800F2
:10000000900D002045010008A71C000841180008B9
:10001000A51C0008B9010008292300080000000001
:10002000000000000000000000000000CB1C0008E1
:10003000FF01000800000000C91C0008CD1C0008DA
:100040005F0100085F0100085F0100085F01000810
:100050005F0100085F0100085F0100085F01000800
:100060005F0100085F0100085F0100085F010008F0
:100070005F010008BD0100085F0100085F01000882
:10008000C90100085F0100085F0100085F01000866
:100090005F0100085F0100085F0100085F010008C0
:1000A0005F0100085F0100085F0100085F010008B0
:1000B0005F010008891D0008951D00085F01000808
:1000C0005F0100085F0100085F0100085F01000890
:1000D0005F01000841220008F922000811230008EE
:1000E0005F0100085F0100085F0100085F01000870
:1000F0005F0100085F0100085F0100085F01000860
:100100005F0100085F010008A11D00085F010008F1
:100110005F0100085F0100085F0100085F0100083F
:100120005F0100085F0100085F0100085F0100082F
:10013000DFF80CD000F02EF8004800471D3500080D
:10014000900D00200648804706480047FEE7FEE77E
:10015000FEE7FEE7FEE7FEE7FEE7FEE7FEE7FEE777
:10016000411D00083101000830B50B460146002052
:100170002022012409E021FA02F59D4205D303FA69
:1001800002F5491B04FA02F52844151EA2F10102EA
:10019000F1DC30BD064C074D06E0E06840F001039D
:1001A00094E8070098471034AC42F6D3FFF7C4FF39
:1001B000A8350008C8350008FEE70000014800F037
:1001C000CFB8000034020020014800F0C9B8000098
:1001D000F001002030B590F840500124AC40C56BD0
:1001E0006C60046863604368102B036803D09960F7
:1001F0000068C26030BD9A600068C16030BD704761
:1002000001680A6822F00E020A6001680A6822F09A
:1002100001020A6090F84020C36B012101FA02F24A
:100220005A6080F82110002180F82010084670479D
:100230002DE9F05F90F821100024022903D0042159
:100240008163012485E001680A6822F00E020A60D9
:1002500001680A6822F001020A603F4E3E4FB21563
:10026000DFF8F4C0DFF8F090DFF8ECA0DFF8E8B0DA
:10027000DFF8E4E00168783F13011502ACF1640C8B
:10028000A9F15009AAF13C0AABF1280BAEF1140E0A
:100290004FF48018B14227D9B9420ED0614512D02F
:1002A00049451DD0514518D0594518D0714501D147
:1002B000424615E0294EB14201D1012210E0274EFD
:1002C0001436B14201D110220AE0244E2836B14240
:1002D00006D0224A3C32914201D11A4600E02A4619
:1002E0001E49091F0A602BE0B94213D0614517D09F
:1002F000494522D051451DD059451DD0714501D1E8
:1003000042461AE0B14202D14FF0807215E0134E1E
:10031000B14201D1012210E0104E1436B14201D198
:1003200010220AE00D4E2836B14206D00B4A3C326C
:10033000914201D11A4600E02A46074980394A60B5
:10034000012180F82110002180F82010416B01B1BB
:1003500088472046BDE8F09F800002400804024024
:100360002DE9F05FC16B0A6801680B68046C4FF0FF
:10037000040808FA04F8844D844E854FDFF814C24F
:10038000DFF81492DFF814A2DFF814B2DFF814E2F9
:1003900018EA020F65D05FEA437862D50A689206D0
:1003A00003D40A6822F004020A60DFF8F0814FF4F7
:1003B0008062016808F1140813011402414524D930
:1003C000A9420DD0B1420FD0B9421AD0614515D023
:1003D000494515D0514501D1120312E0594501D1CB
:1003E00004220EE0714501D140220AE06D4D143522
:1003F000A94206D06B4A2832914201D11A4600E048
:1004000022466749091F0A6029E0A94213D0B14278
:1004100015D0B94220D061451BD049451BD051456C
:1004200002D14FF4800217E0414502D14FF08062C3
:1004300012E0594501D104220EE0714501D140225C
:100440000AE0584D1435A94206D0564A2832914246
:1004500001D11A4600E022464B4908394A60C16A78
:1004600071E04FF0020808FA04F818EA020F70D0A1
:100470005FEA83786DD50A68920606D40A6822F08E
:100480000A020A60012180F82110DFF810814FF480
:100490000072016808F1140813011402414524D9BF
:1004A000A9420DD0B1420FD0B9421AD0614515D042
:1004B000494515D0514501D1120312E0594501D1EA
:1004C00002220EE0714501D120220AE0354D14359B
:1004D000A94206D0334A2832914201D11A4600E09F
:1004E00022462F49091F0A6029E0A94213D0B142D0
:1004F00015D0B94220D061451BD049451BD051458C
:1005000002D14FF4001217E0414502D14FF00072C2
:1005100012E0594501D102220EE0714501D120229D
:100520000AE0204D1435A94206D01E4A28329142D5
:1005300001D11A4600E02246134908394A600021D9
:1005400080F82010816A00291CD0BDE8F05F0847C0
:10055000FFE70825A540154214D01A0712D50A68EE
:1005600022F00E020A6090F84020C36B012101FACC
:1005700002F25A60816380F82110002180F8201077
:10058000016BE0E7BDE8F09F080002401C0002405C
:100590003000024044000240580002406C0002401B
:1005A000080402401C04024030B560B11C4A0368D4
:1005B0001421934209D21B4A1A44B2FBF1F189007B
:1005C000016419490AE0012030BD154A52421A441B
:1005D000B2FBF1F18900016411490839C1630221BC
:1005E00080F821101A6843F6F0718A43F0E901148B
:1005F0002143D0E902452C43214304692143446946
:1006000021438469214311431960002141628162C1
:10061000C16201634163012242770177084630BD20
:1006200008040240F8FFFDBF0000024070B5044618
:1006300090F82000002501280CD0012084F820002B
:1006400094F821600020012E06D084F820000225B5
:10065000284670BD022070BD022684F82160A06388
:100660002068066826F0010606602046FFF7B2FD06
:10067000E06A00282068016802D041F00E0106E01F
:1006800021F0040101602068016841F00A01016065
:100690002068016841F001010160D9E72DE9F84FB8
:1006A000DFF8B8A100220AF1040B144601274FF02D
:1006B0000F090BF1040E00BF0B6807FA04F52B407D
:1006C000AB4274D1DFF898C14E68A6EB0C086645C2
:1006D0002BD00DDC032E34D005DC36B3012E19D01F
:1006E000022E2FD11BE0112E16D0122E2AD119E086
:1006F000B8F5881F19D006DCB8F5803F15D0B8F5DD
:10070000801F1FD111E0B8F5001F0ED0B8F5041FEF
:1007100018D10AE0CA6815E0CA68121D12E0CA685A
:1007200008320FE0CA680C320CE08A682AB1012A4C
:100730004FF0080203D0456104E0042202E00561A5
:1007400000E00022FF2B01D8064601E000F104067C
:100750004FEA840501D9A5F12005D6F800C009FAB1
:1007600005F82CEA080C02FA05F54CEA050CC6F867
:1007700000C04D68ED006AD53A4DAE6946F00106FD
:10078000AE61AD6924F0030605F001050095364D14
:1007900006EB050CDCF80850A6074FEA167809FAB4
:1007A00008F6B543314EB04202D100261AE04EE0C1
:1007B0002F4EB04201D1012614E02E4EB04201D19D
:1007C00002260FE02C4EB04201D103260AE02B4E48
:1007D000B04201D1042605E0294EB04201D10526E0
:1007E00000E0062606FA08F62E43CCF808604D68AD
:1007F000DAF80060ED03554601D51E4300E09E4344
:100800002E604D68AD0305D5DBF800601E43CBF8C4
:10081000006004E0DBF800509D43CBF800504D68C9
:10082000DEF80060ED02754601D51E4300E09E43F0
:100830002E604D68AD0205D5084D0C352E681E435F
:100840002E6004E0054E0C3635689D433560641C0F
:10085000102CFFF431AFBDE8F88F00000004014018
:10086000000011100010024000000140000801408B
:10087000000C01400010014000140140001801402C
:10088000001C01408068084000D0012070470AB178
:10089000016170470904FBE7014880687047000068
:1008A000040000200248816802781144816070478A
:1008B00004000020074810B5016841F010010160F4
:1008C000032000F095F8002000F006F800F024F86E
:1008D000002010BD0020024070B50D4D04464FF4BD
:1008E0007A712878B1FBF0F00A490968B1FBF0F0A1
:1008F00000F025FB48B9102C07D200222146501EDB
:1009000000F056F800206C6070BD012070BD000042
:1009100004000020000000201D4808B5816941F056
:1009200001018161806900F001000090032000F066
:100930005FF8002211466FF00B0000F039F800223A
:1009400011466FF00A0000F033F8002211466FF0F4
:10095000090000F02DF800221146501F00F028F881
:1009600000221146101F00F023F800221146901EAD
:1009700000F01EF800221146501E00F019F805483C
:10098000416821F0E06141F00071416008BD000064
:10099000001002400000014000F01F0201219140C0
:1009A0004009800000F1E020C0F80011704700000D
:1009B000F0B40E4B1B680C46C3F30223C3F10705CA
:1009C000042D00D90425191D072901D2002300E0B8
:1009D000DB1E012606FA05F1491E214099409E4082
:1009E000761E16403143F0BC01F05EB90CED00E01C
:1009F000064900F0070208684FF6FF03184040EA76
:100A00000220034A10430860704700000CED00E02C
:100A10000000FA052DE9F047DFF83C8105460E4657
:100A2000D8F8000000F00700B0420CD2D8F800104F
:100A300021F007013143C8F80010D8F8000000F099
:100A40000700B04263D12878444C800705D5606820
:100A5000A96820F0F000084360602878C00745D0FE
:100A60006868012816D02168022816D08907002955
:100A70004DDA616821F0030101436160FFF70CFF6B
:100A80006968074641F2883001290FD00229814662
:100A900019D027E021688903E9E78901E7E700BF6A
:100AA000FFF7FAFEC11B494501D918E0814660688D
:100AB000C0F381000128F3D118E000BFFFF7ECFE7E
:100AC000C11B49450BD86068C0F381000228F5D1ED
:100AD0000CE000BFFFF7E0FEC11B494502D903202F
:100AE000BDE8F087606810F00C0FF3D1D8F8001063
:100AF000404601F00701B1420BD9016821F007011E
:100B000031430160006800F00700B04201D00120CD
:100B1000E6E72878400705D56068E96820F4E060DA
:100B2000084360602878000706D56068296920F4CA
:100B3000605040EAC100606000F03CF86168084A1B
:100B4000C1F30311515CC840064908600020FFF75B
:100B5000C3FE0020C4E70000002002400010024055
:100B60009035000800000020014800687047000030
:100B7000000000200448054900684968044AC1F3A0
:100B80000221515CC8407047000000200010024064
:100B9000A03500080448054900684968044AC1F3C3
:100BA000C221515CC8407047000000200010024084
:100BB000A035000812A185B00FC98DE80F0014A060
:100BC000144A006804905168134801F00C03042B88
:100BD00010D0082B0ED1C1F38343C9031DF80300C5
:100BE0000AD5516804AAC1F34041515C0A4A5043F6
:100BF000B0FBF1F005B0704708494843FAE7000040
:100C000002030405060708090A0B0C0D0E0F10104D
:100C1000010200000010024000127A0000093D00AD
:100C20002DE9F84F04460078B94DC00748D06868F0
:100C3000C0F38100012807D06868C0F38100022852
:100C400009D16868C00306D52868800338D5606874
:100C500000286FD034E06068B0F5803F0BD010B151
:100C6000B0F5A02F11D0286820F4803028602868C3
:100C700020F4802002E0286840F48030286060681A
:100C800088B1FFF709FE064609E0286840F4802095
:100C90002860F0E7FFF700FE801B642875D82868FD
:100CA0008003F7D50CE0FFF7F7FD064605E000BF2F
:100CB000FFF7F2FD801B6428F0D828688003F7D482
:100CC0002078944E80074FF001094FF000083BD583
:100CD000686810F00C0F07D06868C0F38100022824
:100CE00009D16868C00306D42868800714D5206934
:100CF00001281FD110E02069B0B1C6F80090FFF7BD
:100D0000CBFD074605E000BFFFF7C6FDC01B02286C
:100D1000C4D828688007F7D52868616920F0F800F2
:100D200040EAC10028600FE0C6F80080FFF7B4FD7C
:100D3000074606E0E9E000BFFFF7AEFDC01B022852
:100D400023D828688007F7D4207800072CD572486C
:100D5000A169D9B1C0F80090FFF79EFD074604E0F5
:100D6000FFF79AFDC01B02280FD8686A8007F7D5E5
:100D70006A484FF4FA510068B0FBF1F0009000BFF0
:100D80000098411E0091FAD20EE080E0C0F8008089
:100D9000FFF782FD074604E0FFF77EFDC01B022837
:100DA00075D8686A8007F7D42078400760D5E8696D
:100DB0000027C00008D4E86940F08050E861E86985
:100DC000012700F08050009055480168C90513D4F0
:100DD0000168834641F480710160FFF75DFD824642
:100DE00006E000BFFFF758FDA0EB0A0064284ED8CC
:100DF000DBF80000C005F5D5E06801280AD008B18D
:100E0000052813D0286A20F001002862286A20F003
:100E1000040002E0286A40F001002862E06841F224
:100E2000883B98B1FFF738FD82460BE0286A40F016
:100E300004002862EEE700BFFFF72EFDA0EB0A01D9
:100E400059455AD8286A8007F6D50CE0FFF724FDEB
:100E5000824605E0FFF720FDA0EB0A0159454CD87A
:100E6000286A8007F6D41FB1E86920F08050E86155
:100E7000E06988B36968C1F38101022945D002287D
:100E8000C6F8608004D0FFF707FD044638E034E080
:100E9000FFF702FD074604E0FFF7FEFCC01B022837
:100EA0002BD828688001F7D4206AB0F5803F05D19F
:100EB0006868A16820F4003008436860D4E908013C
:100EC0000843696821F4741108436860C6F86090AB
:100ED000FFF7E2FC044606E015E000BFFFF7DCFC8C
:100EE000001B022809D828688001F7D50BE000BF55
:100EF000FFF7D2FC001B022802D90320BDE8F88FBF
:100F000028688001F4D40020F8E70120F6E700000B
:100F100000100240000042428004424200000020D3
:100F2000007000404FF0E0210428086903D020F051
:100F300004000861704740F00400FAE7704710B5FC
:100F4000401EB0F1807F01D3012010BD4FF0E0249E
:100F500060610F21601700F0A7FE0020A06107204C
:100F60002061002010BD10B5FFF7E8FF10BD7047ED
:100F7000704730B590F83C20012A20D0012280F83B
:100F80003C20022380F83D3003685C6824F0700444
:100F90005C6003685C680D682C435C6003689C6857
:100FA00024F080049C6003689C6849680C439C6042
:100FB00080F83D20002180F83C10084630BD02201A
:100FC00030BD10B5040003D094F83D0010B107E027
:100FD000012010BD002084F83C00204600F00CF8F1
:100FE000022084F83D00211D206800F0DFFE012072
:100FF00084F83D00002010BD08B5124A016812486F
:10100000914207D1C16941F00201C161C06900F09C
:10101000020009E00D4A914208D1C16941F0040182
:10102000C161C06900F00400009008BD084A914207
:10103000FBD1C16941F00801C161C06900F008003D
:10104000F2E70000000400400010024000080040E9
:10105000000C00400168CA6842F00102CA600068E2
:10106000016841F0010101600020704770B504463D
:1010700090F83C00012817D0012584F83C5002204C
:1010800084F83D002068826822F0770222F47F42D3
:1010900082600868502837D00DDC202859D005DC44
:1010A00088B3102841D151E0022070BD302853D0C0
:1010B00040283AD13FE060282ED070280BD0B0F500
:1010C000805F03D0B0F5005F2FD110E02068816809
:1010D00021F0070115E0CB68D1E90121206800F07B
:1010E000ABFE2168886840F0770088601DE0CB681F
:1010F000D1E90121206800F09FFE2068816841F459
:101100008041816011E01EE0CA684968206800F0F3
:10111000A5FE5021206806E0CA684968206800F0F2
:10112000AEFE6021206800F091FE84F83D50002062
:1011300084F83C0070BDCA684968206800F08EFEE3
:1011400040212068EFE700212068ECE710212068AB
:10115000E9E720212068E6E730212068E3E77047CF
:1011600070B50446006801694FF00005C94389075E
:1011700015D4C168C943890711D4E91E0161012052
:101180002077206880698007204602D0FFF7E7FFBC
:1011900004E000F098F8204600F096F825772068E3
:1011A0000169C943490717D4C168C943490713D422
:1011B0006FF004010161022020772068806910F43B
:1011C000407F204602D0FFF7CAFF04E000F07BF822
:1011D000204600F079F8257720680169C94309079E
:1011E00016D4C168C943090712D46FF00801016120
:1011F000042020772068C0698007204602D0FFF7CE
:10120000AEFF04E000F05FF8204600F05DF82577BF
:1012100020680169C943C90617D4C168C943C90612
:1012200013D46FF010010161082020772068C06995
:1012300010F4407F204602D0FFF791FF04E000F059
:1012400042F8204600F040F8257720680169C9433C
:10125000C90708D1C168C943C90704D1891E016102
:10126000204600F033F820680169C943090609D413
:10127000C168C943090605D46FF0800101612046A9
:10128000FFF775FE20680169C943490609D4C168A2
:10129000C943490605D46FF040010161204600F0C2
:1012A00085F820680169C94389060BD4C168C94320
:1012B000890607D46FF0200101612046BDE8704027
:1012C000FFF756BE70BD7047704700002DE9F04132
:1012D00006462C480024B04236D12B4A2B4B4FF403
:1012E000807110884FF00008401C80B210801428D4
:1012F00001D8002205E0782802D9A2F8008003E096
:1013000001221846FFF7C3FA214F3878E0B1214D8A
:101310002888401E288020480188491E89B2018003
:101320000A2906D205210180002208211B48FFF767
:10133000AEFA2888052807D287F80080A5F8008033
:1013400001F0CCF901F0AAFD1548B04217D101F027
:10135000A5FD144D287870B91348FF210155641C70
:10136000E4B2222CFAD301F0A3F901F02DFD287884
:1013700008B101F0B3F9BDE8F04101F025BDBDE8C9
:10138000F0810000780200201000002000140140CD
:10139000170000201A00002018000020000C014057
:1013A000B80200201F00002044090020704710B53B
:1013B00004460068416994F83920C1F3C011212A1C
:1013C0000BD151B1416921F080014161206B08B11D
:1013D000FEF716FF204600F0C2FD2068416994F830
:1013E0003A20C1F38011222A0BD151B1416921F079
:1013F00040014161606B08B1FEF702FF204600F03A
:10140000A0FD002010BD704770B50268044610684A
:10141000D168536910F00F0F50D003F0010501F4AB
:10142000907635435DD0C20705D0CA0503D5E26B7F
:1014300042F00102E263420705D5DA0703D0E26B0E
:1014400042F00202E263820705D5DA0703D0E26BBD
:1014500042F00402E263020705D5DA0703D0E26B2B
:1014600042F00802E263E26B002A33D0800604D522
:10147000880602D5204600F07BFD20684069E16BBC
:10148000C0F38010090700D428B3204600F059FDAE
:101490002068416949061AD5416921F0400141613E
:1014A000606BA0B11B494163606BFEF7C1FE002871
:1014B00010D0606B416BBDE870400847830610D5C3
:1014C0008B060ED52046BDE8704000F051BD204689
:1014D000FFF799FF70BD2046FFF795FF0020E063FE
:1014E00070BD030606D50B0604D52046BDE8704046
:1014F00000F042BE4006F3D54806F1D5D16820463B
:1015000021F04001D160202184F8391000F097F9D2
:1015100070BD0000A31E000870B5040004D094F84C
:101520003900002510B106E0012070BD84F8385064
:10153000204600F023F8242084F839002068C16890
:1015400021F40051C160204600F05EFD2068016971
:1015500021F4904101612068416921F02A01416133
:101560002068C16841F40051C160E563202084F81F
:10157000390084F83A00002070BD00002DE9F047E2
:101580000546DFF830C1036800244B4802210322DE
:10159000DFF8288180274A4E86B04FF04009634526
:1015A0001ED1836943F4804383618069CDE9009152
:1015B00000F48040CDE9032069464046FFF76EF80D
:1015C000CDE90074694640460294FFF767F87068F9
:1015D00040F0E06040F00400706006B0BDE8F087C5
:1015E000DFF8E0C04FF0200A634531D1C36943F40E
:1015F0000033C361C069CDE900A100F40030D046DA
:10160000CDE90320DFF8C0A069465046FFF746F851
:10161000CDE90094694650460294FFF73FF87068A0
:1016200040F0E06040F008007060294E2748C6E9AD
:101630000004C6E902473461C6E905483046F46152
:10164000FEF7B2FF08B1B6212FE06E637562C4E702
:10165000204EB342C1D1C36943F48023C361C06942
:10166000039200F4802004903015CDE90001694612
:101670004046FFF713F8F014CDE9000469464046F0
:101680000294FFF70BF8124E104844363C38C6E976
:101690000004C6E902473461C6E9054A3046F461F0
:1016A000FEF782FF0028D0D0E1210BA000F03DFE24
:1016B000CBE700000038014000100240000C014060
:1016C0000000014000440040001401406C00024052
:1016D000F0010020004800402E2E2F5372632F751A
:1016E000736172742E630000F8B5044690F83A00F6
:1016F00020283CD1C1B3BAB394F83800012836D0C1
:10170000012084F83800A162A2850025E56322202B
:1017100084F83A00636B17489862636B1648D86286
:10172000636B16481863606B134645630846666B27
:10173000216802463046091DFEF778FF20680168DF
:101740004168009184F83850C16841F48071C160EB
:101750002068416941F0010141612068416941F01F
:10176000400141610020F8BDFFE70120FBE70220B6
:10177000F9E70000FD1E0008391F0008B31E00082D
:10178000704770472DE9F843044690F839001F462A
:1017900016460D46202850D1A5B19EB194F83800C8
:1017A00001284AD0012084F838004FF00008C4F81E
:1017B0003C80212084F83900FFF76EF8A68481462A
:1017C000E68426E00120BDE8F883E08C401EE0843A
:1017D000A0684B46B0F5805F4FF000024FF08001EB
:1017E0002046009703D000F0F8FCE8B90DE000F0C7
:1017F000F4FCC8B928882168C0F308004860206953
:1018000008B16D1C05E0AD1C03E0216815F8010B63
:101810004860E08C0028D8D14B4600224021204669
:10182000009700F0DAFC08B10320CCE7202084F810
:10183000390084F838800020C5E70220C3E77047EC
:10184000FEE70000054808B5416941F0010141612A
:10185000406900F00100009008BD00000010024047
:101860002DE9F047534886B0816941F0400181611C
:10187000816901F040010491816941F010018161A9
:10188000816901F010010491816941F004018161D5
:10189000816901F004010491816941F008018161CD
:1018A000816901F008010491816941F020018161A1
:1018B0008069414E00F020000490002245F255510D
:1018C0003046FEF7E4FF01224AF6AA213046FEF731
:1018D000DEFF3A4F002217213846FEF7D8FF0122DB
:1018E00041F6E8713846FEF7D2FFDFF8D4800022D7
:1018F00052214046FEF7CBFF01224FF4CD51404626
:10190000FEF7C5FFDFF8BC90002240F219114846EF
:10191000FEF7BDFF012241F222214846FEF7B7FF44
:10192000DFF8A4A00022B1155046FEF7B0FF012257
:101930004FF699615046FEF7AAFF4FF6FF7001255A
:10194000CDE900050224694603943046FEF7A6FE61
:1019500041F6FF70CDE90005694603943846FEF76D
:101960009DFE41F6F210CDE900056946039440461C
:10197000FEF794FE41F23B30CDE900056946039441
:101980004846FEF78BFE4FF46040CDE9000403208B
:10199000039069464846FEF781FE4FF69970CDE9FF
:1019A0000005694603945046FEF778FE06B0BDE890
:1019B000F0870000001002400018014000100140B4
:1019C00000080140000C01400014014010B5002245
:1019D00011462520FEF7ECFF2520FEF7DDFF002253
:1019E00011462620FEF7E4FF2620FEF7D5FF002251
:1019F00011462720FEF7DCFF2720FEF7CDFF00224F
:101A000011463220FEF7D4FF3220FEF7C5FF002238
:101A100011461D20FEF7CCFF1D20FEF7BDFF002262
:101A200011461E20FEF7C4FF1E20FEF7B5FF002260
:101A300011460D20FEF7BCFF0D20FEF7ADFF002282
:101A400011461020FEF7B4FFBDE810401020FEF74D
:101A5000A3BF000010B5194886B01749016040F2D5
:101A60007F210024C0E9011440F2E731C0E90314EA
:101A700080218161FFF7A5FA18B1412110A000F083
:101A800054FC4FF48050009069460C48FFF7EEFA82
:101A900018B147210AA000F048FC049404A90748A3
:101AA0000594FFF766FA002803D04E2104A000F049
:101AB0003CFC06B010BD000000040040780200208D
:101AC0002E2E2F5372632F74696D2E630000000059
:101AD00010B5194886B01749016040F27F210024F3
:101AE000C0E9011440F69F71C0E9031480218161AF
:101AF000FFF767FA18B1602110A000F016FC4FF450
:101B00008050009069460C48FFF7B0FA18B1662182
:101B10000AA000F00AFC049404A907480594FFF702
:101B200028FA002803D06D2104A000F0FEFB06B0C7
:101B300010BD000000080040B80200202E2E2F53D8
:101B400072632F74696D2E630000000010B5174892
:101B500086B015490024C0E900148460C460802167
:101B600004618161FFF72DFA18B17F2110A000F008
:101B7000DCFB4FF48050009069460C48FFF776FA82
:101B800018B185210AA000F0D0FB049404A90748ED
:101B90000594FFF7EEF9002803D08C2104A000F093
:101BA000C4FB06B010BD0000000C0040F80200208D
:101BB0002E2E2F5372632F74696D2E630000000068
:101BC0000D4810B50B4901604FF4164141600021EA
:101BD00081600C22C160C0E904128161C161FFF71C
:101BE0009BFC002805D0BDE81040472103A000F071
:101BF0009CBB10BD00380140300100202E2E2F5319
:101C000072632F75736172742E6300000D4810B5F6
:101C10000B4901604FF4E1314160002181600C22E9
:101C2000C160C0E904128161C161FFF775FC002841
:101C300005D0BDE810405A2103A000F076BB10BDCE
:101C400000440040700100202E2E2F5372632F7528
:101C5000736172742E6300000D4810B50B4901606A
:101C60004FF416514160002181600C22C160C0E92F
:101C700004128161C161FFF74FFC002805D0BDE867
:101C800010406D2103A000F050BB10BD0048004083
:101C9000B00100202E2E2F5372632F757361727462
:101CA0002E630000FEE770470907090E002806DAD8
:101CB00000F00F0000F1E02080F8141D704700F1E3
:101CC000E02080F8001470477047704710B5FEF7A9
:101CD000E9FDBDE81040FFF746B930B58FB00225E9
:101CE0000120049000951020059000244FF460100E
:101CF000CDE9084007956846FEF792FF00B1FEE780
:101D00000F20CDE90A054FF48060CDE90C40022197
:101D10000AA80E94FEF77EFE00B1FEE7FEF724FF50
:101D20004FF47A71B0FBF1F0FFF709F90420FFF7E7
:101D3000F9F800221146501EFEF73AFE0FB030BDF2
:101D40000D48016841F00101016041680B4A1140F2
:101D5000416001680A4A11400160016821F4802154
:101D60000160416821F4FE0141604FF41F01816070
:101D70000449C00308607047001002400000FFF8EB
:101D8000FFFFF6FE08ED00E00148FFF7E9B90000AB
:101D9000780200200148FFF7E3B90000B8020020F4
:101DA0000148FFF7DDB90000F8020020F0B5026835
:101DB0001C4B1D4D1D4E1E4F1E4C4FF0804C98422B
:101DC00009D0A04207D0604505D0A84203D0B04258
:101DD00001D0B84204D122F0700E4A6842EA0E02E5
:101DE000984209D0A04207D0604505D0A84203D050
:101DF000B04201D0B84203D122F44075CA682A43E8
:101E000022F080054A692A4302608A68C2620A6831
:101E10008262984201D0A04201D109690163012187
:101E20004161F0BD002C014000040040000800406A
:101E3000000C00400034014010B5846842EA0322DF
:101E400024F47F440A432243826010BD826822F05A
:101E500070020A4342F007018160704710B5036ABF
:101E6000046A24F001040462846924F0F00444EA62
:101E7000021423F00A020A438461026210BD10B505
:101E8000036A23F0100303628369046A23F4704336
:101E900043EA023224F0A00343EA011182610162A5
:101EA00010BD10B5406A0021C185C184FFF7ABFAAF
:101EB00010BD70B5446A2068406994F83910C0F3C9
:101EC000C0100025212904D118B1E584204600F076
:101ED00046F82068406994F83A10C0F3801022292F
:101EE00004D118B1E585204600F02BF8E06B40F0F6
:101EF0001000E0632046FFF786FA70BD10B501467A
:101F0000406A09680968890613D40021C1850168FF
:101F1000CA6822F48072CA6001684A6922F001022C
:101F20004A6101684A6922F040024A61202180F832
:101F30003A10FFF725FC10BD10B5406AFFF721FCF1
:101F400010BD0168CA6822F49072CA6001684A69CB
:101F500022F001024A61202180F83A10704701689E
:101F6000CA6822F0C002CA60202180F83910704788
:101F700010B590F83A10222901D0022010BD8168D6
:101F8000B1F5805F11D00169002901681FD049684F
:101F900001F07F03816A4A1C82620B70C18D491E69
:101FA0000904090CC18518D02BE00269816A002A56
:101FB0000268526805D0D2B20A80816A491C8162E7
:101FC000ECE7C2F308020A80816A891CF7E74A68D5
:101FD000816A4B1C83620A70E0E70168CA6822F0DC
:101FE0002002CA600168CA6822F48072CA6001686F
:101FF0004A6922F001024A61202180F83A10FFF775
:10200000BFFB002010BD00002DE9F0410446006830
:102010000169E26821F44051114301612169A0681E
:102020000843616908432168CA6841F20C639A4316
:102030000243CA6020684169A26921F440711143DA
:1020400041614C4920686425322688423CD1FEF724
:10205000A1FD00EBC00101EB001061688900B0FB3D
:10206000F1F7FEF797FD00EBC00101EB001061688E
:10207000B0468900B0FBF1F0B0FBF5F06FF018014D
:10208000484307EB800106EB0110B0FBF5F000F0D0
:10209000F006FEF77FFD00EBC00101EB0010616868
:1020A0008900B0FBF1F0B0FBF5F006EB0016FEF78F
:1020B00071FD00EBC00101EB001061688900B0FB0D
:1020C000F1F7FEF767FD3BE0FEF754FD00EBC001C2
:1020D00001EB001061688900B0FBF1F7FEF74AFDE3
:1020E00000EBC00101EB00106168B0468900B0FB55
:1020F000F1F0B0FBF5F06FF01801484307EB8001F9
:1021000006EB0110B0FBF5F000F0F006FEF732FD33
:1021100000EBC00101EB001061688900B0FBF1F039
:10212000B0FBF5F006EB0016FEF724FD00EBC00156
:1021300001EB001061688900B0FBF1F7FEF71AFDB2
:1021400000EBC00101EB001061688900B0FBF1F009
:10215000B0FBF5F06FF01801484307EB800108EB86
:102160000110B0FBF5F0216800F00F0030448860EA
:10217000BDE8F0810038014090F83910212901D0E4
:10218000022070478168B1F5805F016A0BD04A1C5C
:102190000262026809785160C18C491E0904090C69
:1021A000C1840ED017E009880268C1F308015160AC
:1021B00001690029016A02D0491C0162ECE7891C0F
:1021C000FBE70168CA6822F08002CA600068C16843
:1021D00041F04001C160002070472DE9F041984670
:1021E00017460E460446069D1DE0681C1BD02DB107
:1021F000FEF752FBA0EB0800A84214D92068C16882
:1022000021F4D071C1602068416921F00101416170
:10221000202084F8390084F83A00002084F838003F
:102220000320BDE8F0812068006836EA000004D091
:102230000020B842D9D00020F3E70120F9E70000E0
:102240002DE9F041264800680068C043800641D46B
:1022500024480068254CC1B2234E60885A2900D119
:1022600018B12278012A02D004E0012222703154F0
:10227000401C608080B200251D4F022802D0052836
:1022800006D027E03878884224D06580257021E088
:102290000421154801F02AF96580257031798142C1
:1022A00018D1144C5A2024212070387860702046B0
:1022B00001F01CF984F824002521204600F04EFD91
:1022C0002521204600F04AFD2521204600F046FD4C
:1022D00000F0EEF9BDE8F0410148FFF795B80000C5
:1022E000300100200438014030000020120000209E
:1022F000220000204409002010B5044800F0F6FC3C
:10230000BDE810400148FFF77FB8000070010020D1
:1023100010B5044800F0ACFCBDE810400148FFF7E0
:1023200073B80000B0010020FEE7FEE70FB4054BD4
:1023300010B503A9044A029800F018F810BC5DF823
:1023400014FB0000D13400082C00002002E008C873
:10235000121F08C1002AFAD170477047002001E01F
:1023600001C1121F002AFBD1704700002DE9FF4F69
:102370008BB088460546002606E025280BD0DDE90F
:102380000D1290476D1C761C28780028F5D10FB0EF
:102390003046BDE8F08F0024A146A2460122AE4996
:1023A00000E0044315F8013F203B02FA03F0084225
:1023B000F7D128782A2810D06FF02F022878A0F1C2
:1023C0003001092915D809EB890102EB410144F0DC
:1023D000020400EB01096D1CF0E758F8041B5FEAEA
:1023E000010903D544F40054C9F1000944F0020482
:1023F0006D1C28782E2817D115F8010F44F004041D
:102400002A280ED06FF02F022878A0F13001092978
:102410000AD80AEB8A0102EB410100EB010A6D1CAC
:10242000F2E758F804AB6D1C28786C280FD006DC56
:102430004C2817D068280DD06A2814D104E07428DD
:1024400010D07A280FD10DE044F400140AE044F4CF
:10245000801401E044F440146978814202D104F50B
:1024600080146D1C6D1C2878692865D006DC002856
:102470008DD0632827D0642806D15DE06E2808D06F
:1024800073282AD0752877D0DDE90D129047761C85
:10249000E0E0C4F30250022809D003280DD0D8F898
:1024A000001004280DD00E6008F10408D2E0D8F81E
:1024B0000010F217C1E90062F6E7D8F800100E80AC
:1024C000F2E70E70F0E718F8041B8DF800100020FA
:1024D0008DF80100EB46012003E058F804BB4FF0F3
:1024E000FF3061074FF0000701D40AE07F1C574519
:1024F0000DDA8742FADB1BF807100029F6D106E057
:102500007F1C8742FCDB1BF807100029F8D1DDE9AE
:102510000D23A9EB07008146214600F0B1F83044B5
:10252000C61904E0DDE90D121BF8010B90477F1E70
:10253000F8D22146484688E058F8040BC4F302510B
:102540004FF00A0B032900D100B2042900D140B298
:10255000002802DA40422D2102E0210505D52B2179
:102560008DF82410012104E006E0E10710D02021BD
:10257000F6E708AF089113E058F8040BC4F30251D2
:102580004FF00A0B032900D180B2042900D1C0B258
:102590000021EEE75946FDF7E7FD303107F8011D50
:1025A0000028F7D1ADEB070000F1200B600702D542
:1025B00024F4803401E04FF0010ADA4502DDAAEB91
:1025C0000B0000E00020824600EB0B01089801445C
:1025D000A9EB01000A90E00306D4DDE90D232146B2
:1025E0000A9800F04DF806444FF0000908E009A9E8
:1025F00011F80900DDE90D12904709F10109761C77
:1026000008998945F3DBE0030CD5DDE90D2321466C
:102610000A9800F035F8064404E0DDE90D12302098
:102620009047761CBAF10001AAF1010AF5DC05E039
:10263000DDE90D1217F8010B9047761CBBF1000184
:10264000ABF1010BF4DC0A982146DDE90D2300F023
:1026500005F806446D1C97E6092801002DE9F041B4
:10266000044600251E461746880404D405E0394672
:102670002020B0476D1C641EF9D52846BDE8F081C6
:102680002DE9F041044600251E469046C80301D5B9
:10269000302700E02027880404D505E0414638466D
:1026A000B0476D1C641EF9D52846BDE8F0810000D6
:1026B000EFF3108172B60A20074A00231354401C1E
:1026C000C0B21228FAD31A201354401CC0B22228D8
:1026D000FAD381F3108870474409002010B5EFF356
:1026E000108472B60220064900220A54401CC0B26F
:1026F0002228FAD300F0D2FB84F3108810BD00002A
:10270000440900201CB502208DF80000C3208DF87C
:10271000010020208DF80200E1208DF80300032045
:102720008DF804000521684600F0C6FA1CBD0000C3
:1027300005480068C16841F01001C1604FF40072A3
:1027400002490148FEF7D0BFB00100203C03002041
:102750002DE9F05FFE480026374601783246C9076A
:102760007ED000210170FB490978002978D00179D9
:10277000022975D14379F84DDFF8E0A3DFF8E09343
:1027800000F20C64C32B14D08679A02E68D1F549D1
:102790000978002964D000F2316B4FF0020C8BF8FD
:1027A00000C08BF801308BF8026003210B4646888D
:1027B00054E1ED49097811B1C27A8A4250D1EB490E
:1027C000097811B1027B8A424AD1E94A417B1278E9
:1027D000914245D090F82810032941D18046232109
:1027E000001D00F08FFE98F82710814238D11B2180
:1027F0004046421812790AB1761CB6B2491C89B219
:102800002329F6D3012E17D81B214218127902B1C1
:102810001746491C89B22329F7D300264FEA06013F
:1028200027FA01F2D20701D0761CB6B2491C89B250
:102830000829F5D3012E64D9EFF3108172B6427BDB
:102840006AB310F81F7F2A78A37897403B43A370A0
:102850004578E37895402B43E3702379857800E051
:1028600075E195402B432371C578637995402B43DF
:1028700063710579A37995402B43A3714579E37979
:1028800095402B43E3718579237A95402B4323723E
:1028900098F82600637A9040034363722AE010F8A8
:1028A0001F7F2A78A37C97403B43A3744578E37C41
:1028B00095402B43E3748578237D95402B43237506
:1028C000C578637D95402B4363750579A37D95405D
:1028D0002B43A3754579E37D95402B43E3758579BB
:1028E000237E95402B43237698F82600637E904004
:1028F0000343637681F31088FFF704FF012E5ED057
:1029000065E0EFF3108172B6427B5AB310F81F7F77
:102910002A78A37A97403B43A3724578E37A95409F
:102920002B43E3728578237B95402B432373C57833
:10293000637B95402B4363730579A37B95402B43C1
:10294000A3734579E37B95402B43E3738579237C1F
:1029500095402B43237498F82600637C90400343F2
:102960006374C7E710F81F7F2A7814F81A3F97405E
:102970003B4323704578637895402B43637085789B
:10298000A37895402B43A370C578E37895402B43FB
:10299000E3700579237995402B4323714579637959
:1029A00095402B4363718579A37995402B43A3719F
:1029B00098F82600E37990400343E3719AE7B9F869
:1029C000041041B9BAF80010A9F8041003E0BAF8ED
:1029D0000000A9F80400012189F801103C21A9F8A0
:1029E0000210BDE8F05F012208216248FDF74FBFE9
:1029F00000EB030898F804C0BCF1100F0AD00BF8E4
:102A000001C0491C89B25B1C9BB21A290AD01E293D
:102A10000FD013E098F805800BF80180491C89B2AB
:102A20009B1CF1E79BF819C0BCF1EA0F06D101220B
:102A300004E09BF81DC0BCF1E10F05D032B1012AC2
:102A400007D0022A0AD107E0022207E01E2905D199
:102A500012E01F2902D10DE020290DD09E42C7D8D7
:102A60001E2903D0002A72D01F2903D0012A6ED05C
:102A7000202901D0022A6AD09BF81D005E46032857
:102A800001D0002A63D0B07F032801D0012A5ED094
:102A9000F07F032801D0022A59D022B1012A0DD09B
:102AA000022A15D023E01C21334800F02BFD317F92
:102AB00081424CD1707E022812D018E01D212E4890
:102AC00000F020FD717F08E0B07E022820D00EE0EB
:102AD0001E21294800F016FDB17F814237D1F3E76E
:102AE000F07EB17E00EB01200004000C2FD000210D
:102AF0000820325C0AB1491C89B2401C80B21028FF
:102B0000F7D301291AD80820315C21B1CFB206E0F1
:102B1000307FF17EE6E7401C80B21028F4D300211C
:102B20004FEA010027FA00F2D20701D0491C89B20E
:102B3000401C80B20828F5D3012956D9EFF3108044
:102B400072B6A278337A297803FA01F316E08CE0A2
:102B5000380300201F000020230000202800002050
:102B6000160000201C000020200000202100002072
:102B70001D000020000C01406909002042EA030208
:102B8000A270737AE27803FA01F342EA0302E27078
:102B9000B37A227903FA01F342EA03022271F37A4B
:102BA000627903FA01F342EA03026271337BA2798C
:102BB00003FA01F342EA0302A271737BE27903FA9A
:102BC00001F342EA0302E271B37B227A03FA01F3D2
:102BD00042EA03022272F37B627A03FA01F342EAC9
:102BE0000302627280F31088F1E6EFF3108072B690
:102BF000A27A337A297803FA01F342EA0302A27235
:102C0000737AE27A03FA01F342EA0302E272B37AD8
:102C1000227B03FA01F342EA03022273F37A627B16
:102C200003FA01F342EA03026273337BA27B03FAE5
:102C300001F342EA0302A273737BE27B03FA01F31E
:102C400042EA0302E273B37B227C03FA01F342EA15
:102C500003022274F37B627C03FA01F342EA03026B
:102C6000627480F31088BFD1A9E6BDE8F09F000030
:102C700038B500680068C043C00617D40C4C206803
:102C80000168406800902046FEF791FB606B006889
:102C900040680849C0F500704880012001F8040B25
:102CA00042022046BDE83840FEF71EBD38BD000098
:102CB000B0010020380300200A4601464FF6FF739A
:102CC0000148FEF75FBD0000B00100200548006824
:102CD000C16841F01001C1604FF40072024901481F
:102CE000FEF702BD700100204005002038B50068E5
:102CF0000068C043C00617D40C4C206801684068C7
:102D000000902046FEF753FB606B0068406808495E
:102D1000C0F500704880012001F8040B42022046F3
:102D2000BDE83840FEF7E0BC38BD0000700100206F
:102D30003C0500200A4601464FF6FF730148FEF7A6
:102D400021BD00007001002003480068C16841F007
:102D50002001C16070470000300100200A46014692
:102D60004FF6FF730148FEF70DBD00003001002053
:102D70007047000070B5084D002480212846FDF7FB
:102D800081FD00B9012420212846FDF77BFD00B913
:102D9000A41C601C70BD00000008014010B5002498
:102DA00002210748FDF76EFD00B901244FF40071C0
:102DB0000448FDF767FD00B9A41C204610BD0000C3
:102DC00000180140000C014010B520210248FDF719
:102DD00059FD0249C87010BD000C01401C000020C4
:102DE00070B5002480210A48FDF74CFD00B901248C
:102DF000084D20212846FDF745FD00B9A41C0821F7
:102E00002846FDF73FFD00B9241D204670BD000097
:102E1000001401400018014070B5094D00244FF422
:102E200000512846FDF72EFD00B901244FF4006142
:102E30002846FDF727FD00B9A41C204670BD000000
:102E40000018014070B5084D00244FF40071284669
:102E5000FDF718FD00B9012480212846FDF712FD79
:102E600000B9A41C204670BD0018014010B508210F
:102E70000748FDF707FD074C00B10120A0700821AD
:102E80000548FDF7FFFC002801D10220A07010BD0D
:102E9000001001401C000020001401402DE9F05FEB
:102EA000CA48CB4ECB4D4278B714CB4CCB484FF4ED
:102EB00000684FF4806B002A4FF480717ED0FDF7DC
:102EC000E1FC18B9A07840F00100A0704FF4007147
:102ED0003046FDF7D7FC18B9A07840F00200A0708A
:102EE0004FF480713046FDF7CDFC18B9A07840F062
:102EF0000400A07080213046FDF7C4FC18B9A0780A
:102F000040F00800A07040213046FDF7BBFC18B926
:102F1000A07840F01000A0704FF400412846FDF763
:102F2000B1FC18B9A07840F02000A0704FF48041A7
:102F30002846FDF7A7FC18B9A07840F04000A07023
:102F40004FF400512846FDF79DFC18B9A07840F0D9
:102F50008000A070B94639462846FDF793FC18B9A1
:102F6000E07840F00100E070474641462846FDF712
:102F700089FC18B9E07840F00200E0704FF400716D
:102F80002846FDF77FFC18B9E07840F00400E070B7
:102F9000DFF84882BA4639464046FDF773FC18B957
:102FA000E07840F00800E0704F4649464046FDF7A3
:102FB00069FC28B9E07840F0100000E043E0E070E0
:102FC00059463046FDF75EFC18B9E07840F0200025
:102FD000E07051463046FDF755FC18B9E07840F0F6
:102FE0004000E07039463046FDF74CFC18B9E078F7
:102FF00040F08000E07001212846FDF743FC18B93D
:10300000207940F00100207159462846FDF73AFC2E
:1030100018B9207940F00200207139467048FDF758
:1030200031FC18B9207940F0040020714FF40041C0
:103030006C48FDF727FC002803D1207940F00800F8
:103040002071BDE8F09FFDF71DFC18B9A07C40F091
:103050000100A0744FF400713046FDF713FC18B95D
:10306000A07C40F00200A0744FF480713046FDF760
:1030700009FC18B9A07C40F00400A07480213046FF
:10308000FDF700FC18B9A07C40F00800A0744021B6
:103090003046FDF7F7FB18B9A07C40F01000A07493
:1030A0004FF400412846FDF7EDFB18B9A07C40F035
:1030B0002000A0744FF480412846FDF7E3FB18B9C7
:1030C000A07C40F04000A0744FF400512846FDF76A
:1030D000D9FB18B9A07C40F08000A074B9463946ED
:1030E0002846FDF7CFFB18B9E07C40F00100E07402
:1030F000474641462846FDF7C5FB18B9E07C40F03D
:103100000200E0744FF400712846FDF7BBFB18B9CC
:10311000E07C40F00400E074DFF8C080BA46394635
:103120004046FDF7AFFB18B9E07C40F00800E074C2
:103130004F4649464046FDF7A5FB18B9E07C40F0F4
:103140001000E07459463046FDF79CFB18B9E07C4E
:1031500040F02000E07451463046FDF793FB18B96B
:10316000E07C40F04000E07439463046FDF78AFBD1
:1031700018B9E07C40F08000E07401212846FDF79A
:1031800081FB18B9207D40F0010020755946284682
:10319000FDF778FB18B9207D40F002002075394614
:1031A0000F48FDF76FFB18B9207D40F00400207533
:1031B0004FF400410B48FDF765FB00287FF441AF59
:1031C000207D40F0080020753BE700001C00002037
:1031D0000010014000140140440900200008014093
:1031E000000C0140001801402DE9F041404E4FF421
:1031F0000045002229463046FDF749FB3D4F20217E
:103200003846FDF73FFB3C4C0221E0703846FDF7A5
:1032100039FB607029463046FDF734FBD0B1002001
:103220002070FFF723FEFFF7F7FD2071FFF70AFE7E
:103230006071FFF79FFDA071FFF7D2FDE071FFF70E
:10324000ADFD207240B1012808D002284AD00328E1
:103250004BD006E00120E3E7642001E04FF4FA7070
:10326000E060FFF71BFEE17824A0FFF75FF86178CC
:1032700028A0FFF75BF821782FA0FFF757F8A17877
:1032800034A0FFF753F821793BA0FFF74FF861799D
:103290003FA0FFF74BF8A17944A0FFF747F8E17989
:1032A00046A0FFF743F84BA0E168FFF73FF8514C09
:1032B00051A0A178FFF73AF8E17858A0FFF736F867
:1032C00021795FA0FFF732F8A17C66A0FFF72EF806
:1032D000E17C6DA0FFF72AF8217DBDE8F04173A0E5
:1032E000FFF724B84FF47A70BAE740F6B830B7E782
:1032F00000080140000C01401C0000200D0A666916
:10330000726520696E666F20697320253032640D06
:103310000A000000675265765253343835414761E0
:10332000746554797065466C616720697320253037
:1033300032640D0A000000006752533438354141B1
:10334000636B466C616720697320253032640D0A17
:10335000000000006752533438354353656E6447AC
:1033600061746554797065466C61672069732025C6
:103370003032640D0A0000006747726F75704E7539
:103380006D62657220697320253032640D0A000079
:10339000674D616368696E654E756D62657220691F
:1033A0007320253032640D0A000000006741646418
:1033B000722069732025640D0A00000067466C6F57
:1033C0006F724F66667365742069732025303264AE
:1033D0000D0A000067436F646553656E64696E672C
:1033E00054696D65436E7420697320253032640D15
:1033F0000A000000440900206741636B52533438CF
:10340000354341736B44617461427566665B325D3E
:1034100020697320253033640D0A00006741636B17
:1034200052533438354341736B446174614275665D
:10343000665B335D20697320253033640D0A00001C
:103440006741636B52533438354341736B44617445
:1034500061427566665B345D206973202530336494
:103460000D0A00006741636B525334383543417392
:103470006B44617461427566665B31385D206973C7
:1034800020253033640D0A006741636B5253343892
:10349000354341736B44617461427566665B3139D3
:1034A0005D20697320253033640D0A006741636B2A
:1034B00052533438354341736B44617461427566CD
:1034C000665B32305D20697320253033640D0A005D
:1034D00038B504468DF800000223012269460248EF
:1034E000FEF750F9204638BD3001002010B50346E4
:1034F0000078012203E09C5C6040521C92B28A4238
:10350000F9D310BD10B503460078012203E09C5C9E
:103510006040521C92B28A42F9D310BDFDF7CAF93D
:10352000FEF7DBFBFEF79CF9FEF78CF9FEF76EFB6E
:10353000FEF746FBFEF790FBFEF78CFAFEF7C8FAA3
:10354000FEF704FBFEF742FAFFF712FCFFF7F0F874
:10355000FFF7BCFBFFF7F8FBFFF746FE0948FDF756
:1035600079FD0948FDF776FD0025084CFFF7F0F8D6
:103570002078C007FAD025706188201DFFF7DAFB9C
:10358000F4E7000078020020B80200203C0500208B
:103590000000000000000000010203040607080903
:1035A0000000000001020304C835000800000020EC
:1035B000300000004C230008F835000830000020DF
:1035C000600D00005C23000800A24A040100000016
:1035D00010000000000000000000000000000000DB
:1035E00000000000000000000000000000000000DB
:0835F0000000000000000000D3
:0400000508000131BD
:00000001FF
