:020000040800F2
:10000000B80D0020450100083F220008651D0008CA
:100010003D2200082F0200085129000800000000BE
:100020000000000000000000000000006322000843
:100030007302000800000000612200086522000829
:100040005F0100085F0100085F0100085F01000810
:100050005F0100085F0100085F0100085F01000800
:100060005F0100085F0100085F0100085F010008F0
:100070005F010008310200085F0100085F0100080D
:100080003D0200085F0100085F0100085F010008F1
:100090005F0100085F0100085F0100085F010008C0
:1000A0005F0100085F0100085F0100085F010008B0
:1000B0005F010008212300082D2300085F010008CC
:1000C0005F0100085F0100085F0100085F01000890
:1000D0005F010008D92700082129000839290008F4
:1000E0005F0100085F0100085F0100085F01000870
:1000F0005F0100085F0100085F0100085F01000860
:100100005F0100085F010008392300085F01000853
:100110005F0100085F0100085F0100085F0100083F
:100120005F0100085F0100085F0100085F0100082F
:10013000DFF80CD000F05AF800480047793F00087B
:10014000B80D00200648804706480047FEE7FEE756
:10015000FEE7FEE7FEE7FEE7FEE7FEE7FEE7FEE777
:10016000D922000831010008202A04DB203A21FAB4
:1001700002F00021704721FA02F3D040C2F12002C0
:1001800091400843194670472DE9F05F054600206D
:1001900092469B4688460646814640241BE02846F8
:1001A000414647462246FFF7DFFF53465A46C01AEC
:1001B000914110D311461846224600F029F82D1A15
:1001C00067EB01084F4622460120002100F020F88D
:1001D00017EB00094E41201EA4F10104DFDC484664
:1001E00031462A464346BDE8F09F0000064C074DC5
:1001F00006E0E06840F0010394E8070098471034F7
:10020000AC42F6D3FFF798FF90400008B0400008DA
:10021000202A04DB203A00FA02F1002070479140C6
:10022000C2F1200320FA03F3194390407047FEE720
:10023000014800F015BA00005C020020014800F0FF
:100240000FBA00001802002030B590F84050012489
:10025000AC40C56B6C60046863604368102B036836
:1002600003D099600068C26030BD9A600068C160C8
:1002700030BD70472DE9F047DFF89C80D8F820109A
:100280004CF250390143CFB2C1F30726C1F3074501
:100290000C0E484600F00AF900283BD11F49C861FE
:1002A00000F07CFB002835D1D8F8102042F0100275
:1002B000C8F81020FF2F07D0194801883943018062
:1002C000484600F0F3F8F8B9FF2E08D01448801C17
:1002D000018831430180484600F0E8F8A0B9FF2DBD
:1002E00008D00F48001D018829430180484600F0CE
:1002F000DDF848B9FF2C07D00948801D018821434B
:100300000180484600F0D2F8D8F8102022F0100200
:10031000C8F81020BDE8F087002002403800002017
:1003200008F8FF1F2DE9F047DFF89C80D8F820106F
:100330004CF250398143CFB2C1F30726C1F30745D0
:100340000C0E484600F0B2F800283BD11F49C861A6
:1003500000F024FB002835D1D8F8102042F010021C
:10036000C8F81020FF2F07D01948018839400180B4
:10037000484600F09BF8F8B9FF2E08D01448801CBE
:10038000018831400180484600F090F8A0B9FF2D67
:1003900008D00F48001D018829400180484600F020
:1003A00085F848B9FF2C07D00948801D01882140F5
:1003B0000180484600F07AF8D8F8102022F01002A8
:1003C000C8F81020BDE8F087002002403800002067
:1003D00008F8FF1F0449A520C96901F0020102299C
:1003E00000D10020704700000020024070B5064692
:1003F0004CF25035284600F059F8002820D1114918
:10040000C861114C206940F020002061206940F053
:1004100040002061284600F049F8216921F02001C0
:10042000216100280CD1206940F0100020610748AC
:100430000680284600F03AF8216921F01001216178
:1004400070BD0000380000200020024000F8FF1FAF
:1004500014480022C168CB06134904D5CA6942F08A
:100460000202CA611022C3685B0705D5CB6943F05D
:100470000103CB6142F00402C369DB0707D0CB69FB
:1004800043F00403CB61C16921F00101C161A2F510
:100490008071013901D0C2607047C16921F001014A
:1004A000C1617047002002403800002070B5054649
:1004B00000F05CFC0646114C09E0681C07D025B131
:1004C00000F054FC801BA84201D9032070BDE068F5
:1004D000C007F2D1E068800601D52020E060E06826
:1004E000C00605D4E069C00702D1E068400703D523
:1004F000FFF7AEFF012070BD002070BD002002405C
:1005000001680A6822F00E020A6001680A6822F097
:1005100001020A6090F84020C36B012101FA02F247
:100520005A6080F82110002180F82010084670479A
:100530002DE9F05F90F821100024022903D0042156
:100540008163012485E001680A6822F00E020A60D6
:1005500001680A6822F001020A603F4E3E4FB21560
:10056000DFF8F4C0DFF8F090DFF8ECA0DFF8E8B0D7
:10057000DFF8E4E00168783F13011502ACF1640C88
:10058000A9F15009AAF13C0AABF1280BAEF1140E07
:100590004FF48018B14227D9B9420ED0614512D02C
:1005A00049451DD0514518D0594518D0714501D144
:1005B000424615E0294EB14201D1012210E0274EFA
:1005C0001436B14201D110220AE0244E2836B1423D
:1005D00006D0224A3C32914201D11A4600E02A4616
:1005E0001E49091F0A602BE0B94213D0614517D09C
:1005F000494522D051451DD059451DD0714501D1E5
:1006000042461AE0B14202D14FF0807215E0134E1B
:10061000B14201D1012210E0104E1436B14201D195
:1006200010220AE00D4E2836B14206D00B4A3C3269
:10063000914201D11A4600E02A46074980394A60B2
:10064000012180F82110002180F82010416B01B1B8
:1006500088472046BDE8F09F800002400804024021
:100660002DE9F05FC16B0A6801680B68046C4FF0FC
:10067000040808FA04F8844D844E854FDFF814C24C
:10068000DFF81492DFF814A2DFF814B2DFF814E2F6
:1006900018EA020F65D05FEA437862D50A689206CD
:1006A00003D40A6822F004020A60DFF8F0814FF4F4
:1006B0008062016808F1140813011402414524D92D
:1006C000A9420DD0B1420FD0B9421AD0614515D020
:1006D000494515D0514501D1120312E0594501D1C8
:1006E00004220EE0714501D140220AE06D4D14351F
:1006F000A94206D06B4A2832914201D11A4600E045
:1007000022466749091F0A6029E0A94213D0B14275
:1007100015D0B94220D061451BD049451BD0514569
:1007200002D14FF4800217E0414502D14FF08062C0
:1007300012E0594501D104220EE0714501D1402259
:100740000AE0584D1435A94206D0564A2832914243
:1007500001D11A4600E022464B4908394A60C16A75
:1007600071E04FF0020808FA04F818EA020F70D09E
:100770005FEA83786DD50A68920606D40A6822F08B
:100780000A020A60012180F82110DFF810814FF47D
:100790000072016808F1140813011402414524D9BC
:1007A000A9420DD0B1420FD0B9421AD0614515D03F
:1007B000494515D0514501D1120312E0594501D1E7
:1007C00002220EE0714501D120220AE0354D143598
:1007D000A94206D0334A2832914201D11A4600E09C
:1007E00022462F49091F0A6029E0A94213D0B142CD
:1007F00015D0B94220D061451BD049451BD0514589
:1008000002D14FF4001217E0414502D14FF00072BF
:1008100012E0594501D102220EE0714501D120229A
:100820000AE0204D1435A94206D01E4A28329142D2
:1008300001D11A4600E02246134908394A600021D6
:1008400080F82010816A00291CD0BDE8F05F0847BD
:10085000FFE70825A540154214D01A0712D50A68EB
:1008600022F00E020A6090F84020C36B012101FAC9
:1008700002F25A60816380F82110002180F8201074
:10088000016BE0E7BDE8F09F080002401C00024059
:100890003000024044000240580002406C00024018
:1008A000080402401C04024030B560B11C4A0368D1
:1008B0001421934209D21B4A1A44B2FBF1F1890078
:1008C000016419490AE0012030BD154A52421A4418
:1008D000B2FBF1F18900016411490839C1630221B9
:1008E00080F821101A6843F6F0718A43F0E9011488
:1008F0002143D0E902452C43214304692143446943
:1009000021438469214311431960002141628162BE
:10091000C16201634163012242770177084630BD1D
:1009200008040240F8FFFDBF0000024070B5044615
:1009300090F82000002501280CD0012084F8200028
:1009400094F821600020012E06D084F820000225B2
:10095000284670BD022070BD022684F82160A06385
:100960002068066826F0010606602046FFF76CFC4A
:10097000E06A00282068016802D041F00E0106E01C
:1009800021F0040101602068016841F00A01016062
:100990002068016841F001010160D9E770B5FFF7F7
:1009A00019FDC5B24CF250363046FFF77FFD0028E6
:1009B00018D10D49C8610D4C206940F0200020611C
:1009C000206940F0400020613046FFF76FFD21694B
:1009D00021F020012161002804D12846BDE87040A3
:1009E000FFF704BD70BD0000380000200020024069
:1009F00070B50446064D07202060286AA060FFF706
:100A0000E9FC2074E869C0F38200607470BD0000E6
:100A100000200240054A06499042C86902D1C0F34D
:100A200087207047C0F387407047000004F8FF1F1D
:100A3000002002402DE9F0472D4D04460120297E7B
:100A400001290ED00121297621784FF00007C9072E
:100A50000DD060680128A06806D0FFF70BFCE8BB4A
:100A600005E00220BDE8F087FFF75CFCF7E721789E
:100A7000890703D5207CFFF7B9FC78BB21781D4E90
:100A800049074CF2503916D594F811804846FFF7C3
:100A90000DFD78B9EF61306940F010003061164902
:100AA00048F0880008804846FFF700FD316921F0D2
:100AB0001001316190B92178090716D5D4F8148056
:100AC000247E4846FFF7F2FC40B9EF61306940F000
:100AD00010003061A8F80040484600E005E0FFF74C
:100AE000E5FC316921F0100131612F76BAE7000091
:100AF000380000200020024002F8FF1F034801696F
:100B000041F0800101610020704700000020024098
:100B10000348016921F40071016100207047000061
:100B20000020024005480169890505D40449816017
:100B30000449816000207047012070470020024076
:100B400023016745AB89EFCD064900200A691206EB
:100B500007D5054A4A60054A4A600969090600D571
:100B6000012070470020024023016745AB89EFCD8B
:100B70002DE9F84FDFF8B8A100220AF1040B144662
:100B800001274FF00F090BF1040E00BF0B6807FAA5
:100B900004F52B40AB4274D1DFF898C14E68A6EB48
:100BA0000C0866452BD00DDC032E34D005DC36B3A3
:100BB000012E19D0022E2FD11BE0112E16D0122E8D
:100BC0002AD119E0B8F5881F19D006DCB8F5803FA6
:100BD00015D0B8F5801F1FD111E0B8F5001F0ED059
:100BE000B8F5041F18D10AE0CA6815E0CA68121DDA
:100BF00012E0CA6808320FE0CA680C320CE08A685A
:100C00002AB1012A4FF0080203D0456104E0042212
:100C100002E0056100E00022FF2B01D8064601E05A
:100C200000F104064FEA840501D9A5F12005D6F8A4
:100C300000C009FA05F82CEA080C02FA05F54CEA9E
:100C4000050CC6F800C04D68ED006AD53A4DAE6996
:100C500046F00106AE61AD6924F0030605F001051A
:100C60000095364D06EB050CDCF80850A6074FEA58
:100C7000167809FA08F6B543314EB04202D1002683
:100C80001AE04EE02F4EB04201D1012614E02E4E64
:100C9000B04201D102260FE02C4EB04201D1032612
:100CA0000AE02B4EB04201D1042605E0294EB042A5
:100CB00001D1052600E0062606FA08F62E43CCF8F8
:100CC00008604D68DAF80060ED03554601D51E4313
:100CD00000E09E432E604D68AD0305D5DBF8006053
:100CE0001E43CBF8006004E0DBF800509D43CBF8D6
:100CF00000504D68DEF80060ED02754601D51E43D8
:100D000000E09E432E604D68AD0205D5084D0C35C0
:100D10002E681E432E6004E0054E0C3635689D4358
:100D20003560641C102CFFF431AFBDE8F88F000073
:100D300000040140000011100010024000000140BA
:100D400000080140000C0140001001400014014067
:100D500000180140001C01408068084000D00120BC
:100D600070470AB1016170470904FBE701488068D8
:100D70007047000004000020024881680278114496
:100D80008160704704000020074810B5016841F0F9
:100D900010010160032000F095F8002000F006F833
:100DA00000F024F8002010BD0020024070B50D4D69
:100DB00004464FF47A712878B1FBF0F00A490968CB
:100DC000B1FBF0F000F025FB48B9102C07D200224F
:100DD0002146501E00F056F800206C6070BD0120C6
:100DE00070BD000004000020000000201D4808B570
:100DF000816941F001018161806900F0010000908A
:100E0000032000F05FF8002211466FF00B0000F0A5
:100E100039F8002211466FF00A0000F033F8002282
:100E200011466FF0090000F02DF800221146501F06
:100E300000F028F800221146101F00F023F80022CD
:100E40001146901E00F01EF800221146501E00F0C0
:100E500019F80548416821F0E06141F000714160F6
:100E600008BD0000001002400000014000F01F0219
:100E7000012191404009800000F1E020C0F80011FC
:100E800070470000F0B40E4B1B680C46C3F30223FE
:100E9000C3F10705042D00D90425191D072901D226
:100EA000002300E0DB1E012606FA05F1491E214061
:100EB00099409E40761E16403143F0BC01F0C0B907
:100EC0000CED00E0064900F0070208684FF6FF034A
:100ED000184040EA0220034A1043086070470000AF
:100EE0000CED00E00000FA052DE9F047DFF83C8149
:100EF00005460E46D8F8000000F00700B0420CD2BC
:100F0000D8F8001021F007013143C8F80010D8F8D4
:100F1000000000F00700B04263D12878444C8007FD
:100F200005D56068A96820F0F00008436060287863
:100F3000C00745D06868012816D02168022816D05D
:100F4000890700294DDA616821F0030101436160DE
:100F5000FFF70CFF6968074641F2883001290FD07E
:100F60000229814619D027E021688903E9E7890130
:100F7000E7E700BFFFF7FAFEC11B494501D918E0BA
:100F800081466068C0F381000128F3D118E000BFFA
:100F9000FFF7ECFEC11B49450BD86068C0F3810028
:100FA0000228F5D10CE000BFFFF7E0FEC11B494568
:100FB00002D90320BDE8F087606810F00C0FF3D170
:100FC000D8F80010404601F00701B1420BD9016882
:100FD00021F0070131430160006800F00700B042D2
:100FE00001D00120E6E72878400705D56068E96868
:100FF00020F4E060084360602878000706D5606848
:10100000296920F4605040EAC100606000F03CF8BB
:101010006168084AC1F30311515CC8400649086081
:101020000020FFF7C3FE0020C4E7000000200240BC
:1010300000100240784000080000002001480068CD
:101040007047000000000020044805490068496816
:10105000044AC1F30221515CC840704700000020DF
:1010600000100240884000080448054900684968AB
:10107000044AC1F3C221515CC840704700000020FF
:10108000001002408840000812A185B00FC98DE809
:101090000F0014A0144A006804905168134801F02E
:1010A0000C03042B10D0082B0ED1C1F38343C903CA
:1010B0001DF803000AD5516804AAC1F34041515CF0
:1010C0000A4A5043B0FBF1F005B070470849484365
:1010D000FAE7000002030405060708090A0B0C0DD5
:1010E0000E0F1010010200000010024000127A00E2
:1010F00000093D002DE9F84F04460078B94DC007BE
:1011000048D06868C0F38100012807D06868C0F340
:101110008100022809D16868C00306D528688003C9
:1011200038D5606800286FD034E06068B0F5803F43
:101130000BD010B1B0F5A02F11D0286820F480306A
:101140002860286820F4802002E0286840F480307D
:101150002860606888B1FFF709FE064609E0286844
:1011600040F480202860F0E7FFF700FE801B642831
:1011700075D828688003F7D50CE0FFF7F7FD064621
:1011800005E000BFFFF7F2FD801B6428F0D8286857
:101190008003F7D42078944E80074FF001094FF078
:1011A00000083BD5686810F00C0F07D06868C0F3E2
:1011B0008100022809D16868C00306D42868800726
:1011C00014D5206901281FD110E02069B0B1C6F8FC
:1011D0000090FFF7CBFD074605E000BFFFF7C6FD17
:1011E000C01B0228C4D828688007F7D52868616921
:1011F00020F0F80040EAC10028600FE0C6F8008047
:10120000FFF7B4FD074606E0E9E000BFFFF7AEFDDB
:10121000C01B022823D828688007F7D4207800074D
:101220002CD57248A169D9B1C0F80090FFF79EFD96
:10123000074604E0FFF79AFDC01B02280FD8686A32
:101240008007F7D56A484FF4FA510068B0FBF1F017
:10125000009000BF0098411E0091FAD20EE080E09D
:10126000C0F80080FFF782FD074604E0FFF77EFD2F
:10127000C01B022875D8686A8007F7D42078400719
:1012800060D5E8690027C00008D4E86940F08050C4
:10129000E861E869012700F0805000905548016836
:1012A000C90513D40168834641F480710160FFF7DA
:1012B0005DFD824606E000BFFFF758FDA0EB0A0087
:1012C00064284ED8DBF80000C005F5D5E068012899
:1012D0000AD008B1052813D0286A20F0010028623E
:1012E000286A20F0040002E0286A40F00100286229
:1012F000E06841F2883B98B1FFF738FD82460BE089
:10130000286A40F004002862EEE700BFFFF72EFDD8
:10131000A0EB0A0159455AD8286A8007F6D50CE097
:10132000FFF724FD824605E0FFF720FDA0EB0A0150
:1013300059454CD8286A8007F6D41FB1E86920F0D7
:101340008050E861E06988B36968C1F381010229CE
:1013500045D00228C6F8608004D0FFF707FD044698
:1013600038E034E0FFF702FD074604E0FFF7FEFC3B
:10137000C01B02282BD828688001F7D4206AB0F55A
:10138000803F05D16868A16820F400300843686098
:10139000D4E908010843696821F4741108436860BE
:1013A000C6F86090FFF7E2FC044606E015E000BFD7
:1013B000FFF7DCFC001B022809D828688001F7D55C
:1013C0000BE000BFFFF7D2FC001B022802D903206C
:1013D000BDE8F88F28688001F4D40020F8E70120E8
:1013E000F6E7000000100240000042428004424242
:1013F00000000020007000404FF0E0210428086940
:1014000003D020F004000861704740F00400FAE7C0
:10141000704710B5401EB0F1807F01D3012010BD90
:101420004FF0E02460610F21601700F009FF0020F9
:10143000A06107202061002010BD10B5FFF7E8FF74
:1014400010BD7047704730B590F83C20012A20D07D
:10145000012280F83C20022380F83D3003685C685C
:1014600024F070045C6003685C680D682C435C6069
:1014700003689C6824F080049C6003689C68496849
:101480000C439C6080F83D20002180F83C10084609
:1014900030BD022030BD10B5040003D094F83D00EB
:1014A00010B107E0012010BD002084F83C00204668
:1014B00000F00CF8022084F83D00211D206800F0A7
:1014C00041FF012084F83D00002010BD08B5124AFC
:1014D00001681248914207D1C16941F00201C1611E
:1014E000C06900F0020009E00D4A914208D1C169CB
:1014F00041F00401C161C06900F00400009008BD22
:10150000084A9142FBD1C16941F00801C161C0693B
:1015100000F00800F2E70000000400400010024064
:1015200000080040000C00400168CA6842F0010257
:10153000CA600068016841F0010101600020704745
:1015400070B5044690F83C00012817D0012584F8B6
:101550003C50022084F83D002068826822F0770227
:1015600022F47F4282600868502837D00DDC2028A2
:1015700059D005DC88B3102841D151E0022070BD5C
:10158000302853D040283AD13FE060282ED0702830
:101590000BD0B0F5805F03D0B0F5005F2FD110E025
:1015A0002068816821F0070115E0CB68D1E90121AD
:1015B000206800F00DFF2168886840F0770088609F
:1015C0001DE0CB68D1E90121206800F001FF20680F
:1015D000816841F48041816011E01EE0CA68496879
:1015E000206800F007FF5021206806E0CA684968BB
:1015F000206800F010FF6021206800F0F3FE84F8FE
:101600003D50002084F83C0070BDCA6849682068DD
:1016100000F0F0FE40212068EFE700212068ECE7B1
:1016200010212068E9E720212068E6E730212068C2
:10163000E3E7704770B50446006801694FF00005A4
:10164000C943890715D4C168C943890711D4E91E64
:10165000016101202077206880698007204602D040
:10166000FFF7E7FF04E000F098F8204600F096F856
:10167000257720680169C943490717D4C168C94360
:10168000490713D46FF0040101610220207720681C
:10169000806910F4407F204602D0FFF7CAFF04E0C3
:1016A00000F07BF8204600F079F825772068016982
:1016B000C943090716D4C168C943090712D46FF09A
:1016C00008010161042020772068C0698007204656
:1016D00002D0FFF7AEFF04E000F05FF8204600F014
:1016E0005DF8257720680169C943C90617D4C16828
:1016F000C943C90613D46FF0100101610820207797
:101700002068C06910F4407F204602D0FFF791FFA7
:1017100004E000F042F8204600F040F82577206809
:101720000169C943C90708D1C168C943C90704D1C0
:10173000891E0161204600F033F820680169C94321
:10174000090609D4C168C943090605D46FF08001B0
:1017500001612046FFF775FE20680169C94349060B
:1017600009D4C168C943490605D46FF0400101613D
:10177000204600F0ADF820680169C94389060BD402
:10178000C168C943890607D46FF020010161204672
:10179000BDE87040FFF756BE70BD7047704700004F
:1017A0002DE9F04106463C48B0423DD13B4D3C4B13
:1017B000002468884FF48071401C80B2688014282F
:1017C00001D8002204E0782801D96C8003E00122CE
:1017D0001846FFF7C6FA2878324F68B132480188B8
:1017E000491E89B201800A2906D204802C70002289
:1017F00008213846FFF7B5FA2C490878A0B12C48E3
:101800000288521E92B20280052A0DD2294A147013
:101810000C70048028486C70002204701021384637
:10182000FFF79FFA01F0FAFA2448B04231D102F0F2
:1018300063F8234C234D207808B1287828BB224830
:1018400022490378FF20022B05D102228854521C22
:10185000D2B2222AFAD3012B05D102228854521C7B
:10186000D2B2122AFAD32BB912228854521CD2B205
:10187000222AFAD301F0C0FA01F0D4FF207820B177
:101880002878012801D101F0C9FABDE8F04101F042
:10189000C9BFBDE8F0810000A002002010000020B8
:1018A00000140140000C01401E0000202200002016
:1018B00020000020190000201B000020E002002072
:1018C0002700002018000020260000206C090020BE
:1018D000704710B504460068416994F83920C1F397
:1018E000C011212A0BD151B1416921F08001416120
:1018F000206B08B1FEF704FE204600F0FCFD2068D6
:10190000416994F83A20C1F38011222A0BD151B1D8
:10191000416921F040014161606B08B1FEF7F0FDC3
:10192000204600F0DAFD002010BD704770B5026857
:1019300004461068D168536910F00F0F50D003F0BF
:10194000010501F4907635435DD0C20705D0CA0584
:1019500003D5E26B42F00102E263420705D5DA07E4
:1019600003D0E26B42F00202E263820705D5DA0798
:1019700003D0E26B42F00402E263020705D5DA0706
:1019800003D0E26B42F00802E263E26B002A33D03C
:10199000800604D5880602D5204600F0B5FD2068F3
:1019A0004069E16BC0F38010090700D428B32046DA
:1019B00000F093FD2068416949061AD5416921F07C
:1019C00040014161606BA0B11B494163606BFEF750
:1019D000AFFD002810D0606B416BBDE87040084738
:1019E000830610D58B060ED52046BDE8704000F06A
:1019F0008BBD2046FFF799FF70BD2046FFF795FF8E
:101A00000020E06370BD030606D50B0604D5204612
:101A1000BDE8704000F07CBE4006F3D54806F1D525
:101A2000D168204621F04001D160202184F839108E
:101A300000F097F970BD00003B24000870B5040069
:101A400004D094F83900002510B106E0012070BDE3
:101A500084F83850204600F023F8242084F8390018
:101A60002068C16821F40051C160204600F098FD53
:101A70002068016921F4904101612068416921F0E9
:101A80002A0141612068C16841F40051C160E563E9
:101A9000202084F8390084F83A00002070BD00004E
:101AA0002DE9F0470546DFF830C1036800244B48B4
:101AB00002210322DFF8288180274A4E86B04FF0AA
:101AC000400963451ED1836943F480438361806983
:101AD000CDE9009100F48040CDE9032069464046FD
:101AE000FFF746F8CDE90074694640460294FFF7D7
:101AF0003FF8706840F0E06040F00400706006B0AD
:101B0000BDE8F087DFF8E0C04FF0200A634531D12F
:101B1000C36943F40033C361C069CDE900A100F497
:101B20000030D046CDE90320DFF8C0A0694650461A
:101B3000FFF71EF8CDE90094694650460294FFF77E
:101B400017F8706840F0E06040F008007060294EBF
:101B50002748C6E90004C6E902473461C6E90548DA
:101B60003046F461FEF7A0FE08B1B6212FE06E63A7
:101B70007562C4E7204EB342C1D1C36943F48023E8
:101B8000C361C069039200F4802004903015CDE950
:101B9000000169464046FEF7EBFFF014CDE9000472
:101BA000694640460294FEF7E3FF124E1048443661
:101BB0003C38C6E90004C6E902473461C6E9054A73
:101BC0003046F461FEF770FE0028D0D0E1210BA072
:101BD00000F0BFFECBE700000038014000100240DB
:101BE000000C01400000014000440040001401408E
:101BF0006C00024018020020004800402E2E2F5397
:101C000072632F75736172742E630000F8B5044619
:101C100090F83A0020283CD1C1B3BAB394F8380008
:101C2000012836D0012084F83800A162A285002561
:101C3000E563222084F83A00636B17489862636B6F
:101C40001648D862636B16481863606B1346456389
:101C50000846666B216802463046091DFEF766FE9F
:101C6000206801684168009184F83850C16841F4E7
:101C70008071C1602068416941F0010141612068C3
:101C8000416941F0400141610020F8BDFFE70120BA
:101C9000FBE70220F9E7000095240008D1240008A2
:101CA0004B240008704770472DE9F843044690F82C
:101CB00039001F4616460D46202850D1A5B19EB1C9
:101CC00094F8380001284AD0012084F838004FF0F9
:101CD0000008C4F83C80212084F83900FFF746F85A
:101CE000A6848146E68426E00120BDE8F883E08CE6
:101CF000401EE084A0684B46B0F5805F4FF00002C4
:101D00004FF080012046009703D000F032FDE8B983
:101D10000DE000F02EFDC8B928882168C0F3080046
:101D20004860206908B16D1C05E0AD1C03E0216826
:101D300015F8010B4860E08C0028D8D14B460022F2
:101D400040212046009700F014FD08B10320CCE7A5
:101D5000202084F8390084F838800020C5E702206C
:101D6000C3E77047FEE70000054808B5416941F048
:101D700001014161406900F00100009008BD0000D0
:101D8000001002402DE9F047534886B0816941F0C8
:101D900040018161816901F040010491816941F054
:101DA00010018161816901F010010491816941F0A4
:101DB00004018161816901F004010491816941F0AC
:101DC00008018161816901F008010491816941F094
:101DD000200181618069414E00F0200004900022C2
:101DE00045F255513046FEF7BCFF01224AF6AA21C2
:101DF0003046FEF7B6FF3A4F002217213846FEF76D
:101E0000B0FF012241F6E8713846FEF7AAFFDFF87D
:101E1000D480002252214046FEF7A3FF01224FF456
:101E2000CD514046FEF79DFFDFF8BC90002240F206
:101E300019114846FEF795FF012241F2222148463A
:101E4000FEF78FFFDFF8A4A00022B1155046FEF781
:101E500088FF01224FF699615046FEF782FF4FF648
:101E6000FF700125CDE90005022469460394304640
:101E7000FEF77EFE41F6FF70CDE90005694603944A
:101E80003846FEF775FE41F6F210CDE900056946C9
:101E900003944046FEF76CFE41F23B30CDE900056D
:101EA000694603944846FEF763FE4FF46040CDE96F
:101EB00000040320039069464846FEF759FE4FF69A
:101EC0009970CDE90005694603945046FEF750FE2F
:101ED00006B0BDE8F0870000001002400018014085
:101EE0000010014000080140000C014000140140B6
:101EF00010B5002211462520FEF7C4FF2520FEF76D
:101F0000B5FF002211462620FEF7BCFF2620FEF773
:101F1000ADFF002211462720FEF7B4FF2720FEF771
:101F2000A5FF002211463220FEF7ACFF3220FEF75B
:101F30009DFF002211461D20FEF7A4FF1D20FEF785
:101F400095FF002211461E20FEF79CFF1E20FEF783
:101F50008DFF002211460D20FEF794FF0D20FEF7A5
:101F600085FF002211461020FEF78CFFBDE81040CF
:101F70001020FEF77BBF00001FB500244FF69960CC
:101F8000CDE90004694614480294FEF7F1FD41F2E0
:101F90002220CDE90004694610480294FEF7E8FDCE
:101FA0004FF4CD50CDE9000469460D480294FEF788
:101FB000DFFD41F6E870CDE9000469460948029466
:101FC000FEF7D6FD4AF6AA20CDE900046946064888
:101FD0000294FEF7CDFD1FBD00140140000C01402E
:101FE00000080140001001400018014010B51948D8
:101FF00086B01749016040F27F210024C0E9011436
:1020000040F2E731C0E9031480218161FFF743FA10
:1020100018B1412110A000F09CFC4FF480500090BA
:1020200069460C48FFF78CFA18B147210AA000F066
:1020300090FC049404A907480594FFF704FA0028CB
:1020400003D04E2104A000F084FC06B010BD0000B7
:1020500000040040A00200202E2E2F5372632F7424
:10206000696D2E630000000010B5194886B017494D
:10207000016040F27F210024C0E9011440F69F7105
:10208000C0E9031480218161FFF705FA18B16021CE
:1020900010A000F05EFC4FF48050009069460C48A0
:1020A000FFF74EFA18B166210AA000F052FC049422
:1020B00004A907480594FFF7C6F9002803D06D214D
:1020C00004A000F046FC06B010BD0000000800406F
:1020D000E00200202E2E2F5372632F74696D2E6341
:1020E0000000000010B5174886B015490024C0E96B
:1020F00000148460C460802104618161FFF7CBF922
:1021000018B17F2110A000F024FC4FF48050009003
:1021100069460C48FFF714FA18B185210AA000F0AF
:1021200018FC049404A907480594FFF78CF90028CB
:1021300003D08C2104A000F00CFC06B010BD000000
:10214000000C0040200300202E2E2F5372632F74AA
:10215000696D2E63000000000D4810B50B49016049
:102160004FF416414160002181600C22C160C0E93A
:1021700004128161C161FFF761FC002805D0BDE850
:102180001040472103A000F0E4BB10BD003801401F
:10219000580100202E2E2F5372632F7573617274B5
:1021A0002E6300000D4810B50B4901604FF4E1317A
:1021B0004160002181600C22C160C0E9041281618C
:1021C000C161FFF73BFC002805D0BDE810405A2153
:1021D00003A000F0BEBB10BD0044004098010020E9
:1021E0002E2E2F5372632F75736172742E6300004D
:1021F0000D4810B50B4901604FF4165141600021A4
:1022000081600C22C160C0E904128161C161FFF7E5
:1022100015FC002805D0BDE810406D2103A000F09A
:1022200098BB10BD00480040D80100202E2E2F532F
:1022300072632F75736172742E630000FEE770473E
:102240000907090E002806DA00F00F0000F1E0206F
:1022500080F8141D704700F1E02080F800147047EA
:102260007047704710B5FEF787FDBDE81040FFF7D7
:10227000E4B830B58FB002250120049000951020FD
:10228000059000244FF46010CDE90840079568469A
:10229000FEF730FF00B1FEE70F20CDE90A054FF44D
:1022A0008060CDE90C4002210AA80E94FEF71CFEC6
:1022B00000B1FEE7FEF7C2FE4FF47A71B0FBF1F019
:1022C000FFF7A7F80420FFF797F800221146501EE9
:1022D000FEF7D8FD0FB030BD0D48016841F0010197
:1022E000016041680B4A1140416001680A4A11408F
:1022F0000160016821F480210160416821F4FE0140
:1023000041604FF41F0181600449C00308607047B9
:10231000001002400000FFF8FFFFF6FE08ED00E0AD
:102320000148FFF787B90000A00200200148FFF72D
:1023300081B90000E00200200148FFF77BB90000EE
:1023400020030020F0B502681C4B1D4D1D4E1E4F92
:102350001E4C4FF0804C984209D0A04207D06045F7
:1023600005D0A84203D0B04201D0B84204D122F037
:10237000700E4A6842EA0E02984209D0A04207D085
:10238000604505D0A84203D0B04201D0B84203D185
:1023900022F44075CA682A4322F080054A692A431C
:1023A00002608A68C2620A688262984201D0A042D2
:1023B00001D10969016301214161F0BD002C014097
:1023C0000004004000080040000C004000340140C0
:1023D00010B5846842EA032224F47F440A4322436E
:1023E000826010BD826822F070020A4342F0070149
:1023F0008160704710B5036A046A24F00104046226
:10240000846924F0F00444EA021423F00A020A4327
:102410008461026210BD10B5036A23F010030362E9
:102420008369046A23F4704343EA023224F0A00370
:1024300043EA01118261016210BD10B5406A0021BA
:10244000C185C184FFF771FA10BD70B5446A206878
:10245000406994F83910C0F3C0100025212904D137
:1024600018B1E584204600F046F82068406994F8E9
:102470003A10C0F38010222904D118B1E585204616
:1024800000F02BF8E06B40F01000E0632046FFF70F
:102490004CFA70BD10B50146406A096809688906A2
:1024A00013D40021C1850168CA6822F48072CA6011
:1024B00001684A6922F001024A6101684A6922F012
:1024C00040024A61202180F83A10FFF7EBFB10BD73
:1024D00010B5406AFFF7E7FB10BD0168CA6822F437
:1024E0009072CA6001684A6922F001024A612021A3
:1024F00080F83A1070470168CA6822F0C002CA60CA
:10250000202180F83910704710B590F83A10222930
:1025100001D0022010BD8168B1F5805F11D0016942
:10252000002901681FD0496801F07F03816A4A1CB5
:1025300082620B70C18D491E0904090CC18518D037
:102540002BE00269816A002A0268526805D0D2B283
:102550000A80816A491C8162ECE7C2F308020A80A2
:10256000816A891CF7E74A68816A4B1C83620A709A
:10257000E0E70168CA6822F02002CA600168CA6800
:1025800022F48072CA6001684A6922F001024A613D
:10259000202180F83A10FFF785FB002010BD0000D5
:1025A0002DE9F041044600680169E26821F44051D8
:1025B000114301612169A0680843616908432168EA
:1025C000CA6841F20C639A430243CA6020684169B9
:1025D000A26921F44071114341614C49206864258E
:1025E000322688423CD1FEF73FFD00EBC00101EBF3
:1025F000001061688900B0FBF1F7FEF735FD00EBD4
:10260000C00101EB00106168B0468900B0FBF1F039
:10261000B0FBF5F06FF01801484307EB800106EBC3
:102620000110B0FBF5F000F0F006FEF71DFD00EB29
:10263000C00101EB001061688900B0FBF1F0B0FB54
:10264000F5F006EB0016FEF70FFD00EBC00101EB05
:10265000001061688900B0FBF1F7FEF705FD3BE073
:10266000FEF7F2FC00EBC00101EB0010616889008D
:10267000B0FBF1F7FEF7E8FC00EBC00101EB001046
:102680006168B0468900B0FBF1F0B0FBF5F06FF087
:102690001801484307EB800106EB0110B0FBF5F091
:1026A00000F0F006FEF7D0FC00EBC00101EB0010DB
:1026B00061688900B0FBF1F0B0FBF5F006EB0016A5
:1026C000FEF7C2FC00EBC00101EB0010616889005D
:1026D000B0FBF1F7FEF7B8FC00EBC00101EB001016
:1026E00061688900B0FBF1F0B0FBF5F06FF0180104
:1026F000484307EB800108EB0110B0FBF5F02168BF
:1027000000F00F0030448860BDE8F08100380140DF
:1027100090F83910212901D0022070478168B1F565
:10272000805F016A0BD04A1C02620268097851601E
:10273000C18C491E0904090CC1840ED017E0098818
:102740000268C1F30801516001690029016A02D0E1
:10275000491C0162ECE7891CFBE70168CA6822F0AA
:102760008002CA600068C16841F04001C160002079
:1027700070472DE9F041984617460E460446069DDF
:102780001DE0681C1BD02DB1FEF7F0FAA0EB08008D
:10279000A84214D92068C16821F4D071C1602068B2
:1027A000416921F001014161202084F8390084F859
:1027B0003A00002084F838000320BDE8F08120684A
:1027C000006836EA000004D00020B842D9D00020CA
:1027D000F3E70120F9E700002DE9F04744480068DD
:1027E0000068C043800648D4424800680127C2B24E
:1027F0004148424D5A2A418800D119B10378012B32
:1028000001D003E007706A54491C418089B23C4EF4
:10281000002402292CD0804605292ED104213748D6
:1028200001F092FBA8F8024088F800402979814223
:1028300023D16878317888421FD1DFF8C880DFF86B
:10284000C89098F8000030B130480122102107707C
:102850004846FEF786FA2E4F387820B10122102123
:102860004846FEF77EFA2B482B4D017839B10CE033
:102870003178914201D044800470BDE8F087022095
:102880002C54401CC0B21228FAD3012905D11220C1
:102890002C54401CC0B22228FAD35A202870307819
:1028A000687024211C4801F04FFB85F82400252185
:1028B000194800F081FF387898F80010174D464607
:1028C000014302D02978491C29700028D5D02878E6
:1028D0000228D2D900F090FA3C702C703078002891
:1028E000CBD14846BDE8F04700221021FEF739BAA7
:1028F0005801002004380140140000205800002036
:102900002A00002019000020000C014022000020B5
:102910001A000020260000206C0900201100002071
:1029200010B5044800F010FFBDE810400148FEF764
:10293000FDBF00009801002010B5044800F0C6FE5D
:10294000BDE810400148FEF7F1BF0000D8010020AB
:10295000FEE7FEE70FB4054B10B503A9044A029841
:1029600000F018F810BC5DF814FB00002D3F0008C3
:102970003400002002E008C8121F08C1002AFAD162
:1029800070477047002001E001C1121F002AFBD1EF
:10299000704700002DE9FF4F8DB00F460546002619
:1029A00006E025280BD0DDE90F1290476D1C761C40
:1029B00028780028F5D111B03046BDE8F08F00240A
:1029C000A246A1460122EC4900E0044315F8013F6C
:1029D000203B02FA03F00842F7D128782A2810D0C9
:1029E0006FF02F022878A0F13001092914D80AEBE2
:1029F0008A0102EB410144F0020400EB010A6D1C64
:102A0000F0E701CF5FEA000A03D544F40054CAF1AD
:102A1000000A44F002046D1C28782E2817D115F8FE
:102A2000010F44F004042A280ED06FF02F022878FA
:102A3000A0F1300109290AD809EB890102EB410113
:102A400000EB01096D1CF2E757F8049B6D1C287818
:102A50006C280FD006DC4C2817D068280DD06A28C7
:102A600014D104E0742810D07A280FD10DE044F47A
:102A700000140AE044F4801401E044F4401469783E
:102A8000814202D104F580146D1C6D1C2A786E2AD7
:102A90001FD00CDC632A31D004DC002A8BD0582AEA
:102AA00011D1A3E0642A68D0692A0CD165E0732AA9
:102AB0002ED004DC6F2A73D0702A04D19BE0752AD3
:102AC0006FD0782A6ED01046DDE90F129047761C41
:102AD00050E1C4F30250022806D0032809D004288C
:102AE00001CF09D0066045E101CFF117C0E90061CF
:102AF00040E101CF06803DE106703BE117F8040B91
:102B00008DF8000000208DF80100EB46012003E065
:102B100057F804BB4FF0FF3061074FF0000102D4BB
:102B20000DE008F10101884649450FDA8045F8DBE0
:102B30001BF808100029F4D108E008F101018846CB
:102B40008142FADB1BF808100029F6D1DDE90F23DA
:102B5000AAEB08008146214600F036F9304400EB2C
:102B6000080604E0DDE90F121BF8010B9047B8F1ED
:102B70000108F7D221464846F7E00A21C4F3025380
:102B80004FF0000B0891022B04D001CFC117032B8B
:102B900009D00AE0FF1D27F00707F7E8020108E067
:102BA00032E01FE020E000B2C117042B01D140B297
:102BB000C117031E71F1000307DA4FF0000CD0EBD0
:102BC0000C006CEB01012D2302E0230504D52B231F
:102BD0008DF82430012303E0E30701D02023F7E739
:102BE000984658E00A2110E010210EE010204FF026
:102BF000000B08900CE010214FF0000B44F004048F
:102C00004FF00809089103E008214FF0000B0891EC
:102C1000C4F30253022B04D001CF0021032B06D0B2
:102C200006E0FF1D27F00707F7E8020103E080B286
:102C3000042B00D1C0B24FF0000823072BD5702A17
:102C400007D0DDF820C08CF0100C5CEA0B0C05D02E
:102C50000EE040238DF82430012308E050EA010300
:102C600006D030238DF824308DF825200223984695
:102C7000DDF820C08CF0080C5CEA0B0C0BD150EA9C
:102C8000010301D1630706D530238DF824304FF0BE
:102C90000108A9F10109582A04D038A20B9208AA08
:102CA0000A920BE03AA2F9E75B46089AFDF76CFA44
:102CB0000B9B9B5C0A9A521E0A92137050EA010207
:102CC000F2D10A98ADEB000000F1200B600702D5AD
:102CD00024F4803401E04FF00109D94502DDA9EB6D
:102CE0000B0000E0002000EB0B0141440890AAEB30
:102CF000010AE00306D4DDE90F232146504600F027
:102D000063F806444FF0000908E009A911F809002A
:102D1000DDE90F12904709F10109761CC145F4DB8A
:102D2000E0030CD5DDE90F232146504600F04CF8B6
:102D3000064404E0DDE90F1230209047761C089924
:102D4000481E08900029F5DC08E00A980A990078E6
:102D5000491C0A91DDE90F129047761CBBF1000176
:102D6000ABF1010BF1DC21465046DDE90F2300F009
:102D700019F806446D1C1BE6092801003031323376
:102D800034353637383961626364656600000000A7
:102D90003031323334353637383941424344454691
:102DA000000000002DE9F041044600251E461746AC
:102DB000880404D405E039462020B0476D1C641E09
:102DC000F9D52846BDE8F0812DE9F04104460025FB
:102DD0001E469046C80301D5302700E0202788040E
:102DE00004D505E041463846B0476D1C641EF9D550
:102DF0002846BDE8F08100000A20074900220A5455
:102E0000401CC0B21228FAD31A200A54401CC0B287
:102E10002228FAD3704700006C09002002200449E0
:102E200000220A54401CC0B22228FAD300F064BD2C
:102E30006C0900201CB502208DF80000C3208DF81D
:102E4000010020208DF80200E1208DF8030003200E
:102E50008DF804000521684600F05CFC1CBD0000F4
:102E6000084810B50068C16841F01001C1604FF416
:102E7000007205490348FEF7C9FE044901200870A5
:102E800010BD0000D80100206403002018000020BD
:102E90002DE9F04FDFF80884002689B098F800008B
:102EA00037463546C00772D00020FE4988F800003A
:102EB00098F80D000978884269D0FB48007800280E
:102EC00065D098F80400022861D198F80500DFF871
:102ED000DCB3F74C08F20C694FF0010AC32812D09A
:102EE00098F80610A02952D1F24A1278002A4ED042
:102EF00008F23166022232707070B1700320014610
:102F0000B8F8022001E2EC48007818B198F80B10EC
:102F100081423CD1E948007818B198F80C10814200
:102F200035D198F82800032831D1232108F1040075
:102F300001F016F898F82710814228D198F8190066
:102F4000882802D0992823D02AE098F81A00082867
:102F500026D198F81B00082822D100202070FDF708
:102F6000F3FDFDF7DFFD6846FDF742FDFDF716FDB9
:102F7000D348059020788DF8180008200090684606
:102F8000FDF758FDFDF7C4FDFDF7B8FD8BE08CE0C3
:102F900098F81A00092803D198F81B00092867D06F
:102FA0005FF01B0008EB0001097909B1761CB6B28D
:102FB000401C80B22328F5D3012E7AD9C14884F869
:102FC00001A00088208198F81F709BF8001099F8E4
:102FD00002208F403A4389F8022098F820C099F8DF
:102FE00003200CFA01FE42EA0E0289F8032098F849
:102FF00021C099F804200CFA01FB42EA0B02484672
:1030000089F8042098F822C042790CFA01F942EAC2
:103010000902427198F8235082798D402A438271C7
:1030200098F82430C2798B401A43C27198F8252051
:1030300090F808C08A404CEA020C80F808C098F862
:10304000268090F809C008FA01F84CEA080C80F8CC
:1030500009C0817C39438174C17C41EA0E01C1748D
:10306000017D41EA0B010175417D41EA09018FE0D3
:1030700084F800A0FDF768FDFDF754FD6846FDF7F4
:10308000B7FCFDF78BFC8E48059020788DF8180072
:10309000082000906846FDF7CDFCFDF739FDFDF7EF
:1030A0002DFDFFF7BBFEFFF7C5FE09B0BDE8F08FB1
:1030B000FFE71B2008EB0001097901B10F46401C16
:1030C00080B22328F6D300264FEA060027FA00F143
:1030D000C90701D0761CB6B2401C80B20828F5D3CF
:1030E000012E64D9774884F801A00088208198F8DF
:1030F0001FC09BF8001099F802200CFA01FE42EA6A
:103100000E0289F8022098F820C0484699F803205A
:103110000CFA01F942EA0902C27098F821700279AA
:103120008F403A43027198F822C042790CFA01FBB1
:1031300042EA0B02427198F8235082798D402A436B
:10314000827198F82430C2798B401A43C27198F882
:10315000252090F808C08A404CEA020C80F808C08C
:1031600098F8268090F809C008FA01F84CEA080C93
:1031700080F809C0817C41EA0E018174C17C41EA7A
:103180000901C174017D39430175417D41EA0B019B
:103190004175817D29438175C17D1943C175017ECA
:1031A00011430176417E41EA080141765BE084F8F3
:1031B00002A0484698F81F709BF8001010F80A2FDC
:1031C00007FA01F942EA0902027098F820504278A1
:1031D0008D402A43427098F8217082788F403A439C
:1031E0000797827098F82270C27807FA01FE42EAC7
:1031F0000E02C27098F82370027907FA01FB42EAC6
:103200000B02027198F8243042798B401A434271C4
:1032100098F8252087798A401743877198F826C047
:10322000C7790CFA01FC47EA0C07C771017C41EA37
:1032300009010174417C29434174817C079F394312
:103240008174C17C41EA0E01C174017D41EA0B0128
:103250000175417D19434175817D11438175C17DA2
:1032600041EA0C01C175012208211748FDF779FDDB
:10327000FFF7E0FD012E01D03C20E08014E200BF0A
:1032800008EB010C9CF80430102B1FD03354401C69
:1032900080B2491C89B21A281FD01E2822D024E0EF
:1032A0006003002025000020270000202B000020C4
:1032B0001800002024000020280000202900002001
:1032C00004F8FF1F30000020000C01409CF805307E
:1032D0003354401C80B2891CDCE7737EEA2B04D196
:1032E000012502E0737FE12B05D035B1012D07D018
:1032F000022D0AD107E0022507E01E2805D113E0C0
:103300001F2802D10EE020280ED08A42B8D81E28ED
:1033100004D0002D3FF4C9AE1F2803D0012DF9D0F1
:10332000202801D0022DF5D0707F032801D0002D78
:10333000F0D0B07F032801D0012DEBD0F07F03281F
:1033400001D0022DE6D025B1012D08D0022D14D0D8
:103350000DE01C21D84800F003FE317F04E01D2160
:10336000D54800F0FDFD717F81427FF49EAE307C38
:10337000882808D0992826D02BE01E21CE4800F0BE
:10338000EFFDB17FF0E7707C082822D1B07C0828DF
:103390001FD100202070FDF7D7FBFDF7C3FB684667
:1033A000FDF726FBFDF7FAFAC448059020788DF862
:1033B0001800082000906846FDF73CFBFDF7A8FBCD
:1033C000FDF79CFB71E6707C092802D1B07C0928CE
:1033D00005D005B3012D24D0022D22D02AE084F897
:1033E00000A0FDF7B1FBFDF79DFB6846FDF700FB74
:1033F000FDF7D4FAB148059020788DF81800082020
:1034000000906846FDF716FBFDF782FBFDF776FBA3
:10341000FFF704FD49E6707E02280BD1F07EB17EF5
:1034200003E0B07E022860D004E000EB012000043D
:10343000000CC7D000250820315C09B16D1CADB26D
:10344000401C80B21028F7D3012D51D99C4884F834
:1034500001A00088208196F808809BF8001099F858
:10346000022008FA01FB42EA0B0289F8022096F8D2
:1034700009C099F803200CFA01FC42EA0C0289F811
:10348000032096F80A80484699F8042008FA01F9C2
:1034900042EA0902027196F80B80427908FA01FEAD
:1034A00042EA0E024271377B82798F403A43827141
:1034B000737BC2798B401A43C271B27B90F808804B
:1034C0008A4048EA020880F80880F67B90F8098074
:1034D0008E4048EA060880F80980817C41EA0B01A9
:1034E0008174C17C41EA0C0168E0307FF17E9CE789
:1034F0000820315C09B1CFB203E0401C80B2102833
:10350000F7D300254FEA050027FA00F1C90701D0DB
:103510006D1CADB2401C80B20828F5D3012D63D9D3
:10352000674884F801A00088208196F808C09BF8BD
:10353000001099F802200CFA01FC42EA0C0289F80A
:10354000022096F8098099F8032008FA01FB42EA64
:103550000B0289F8032096F80A80484699F804205F
:1035600008FA01F942EA0902027196F80B804279E1
:1035700008FA01FE42EA0E024271377B82798F40DF
:103580003A438271737BC2798B401A43C271B27B1A
:1035900090F808808A4048EA020880F80880F67BA4
:1035A00090F809808E4048EA060880F80980817CFE
:1035B00041EA0C018174C17C41EA0B01C174017DB7
:1035C00041EA09010175417D41EA0E014175817DA4
:1035D00039438175C17D1943C175017E114301765F
:1035E000417E3143417655E084F802A04846377A5F
:1035F0009BF8001010F80A2F07FA01F842EA0802B7
:103600000270727A43788A4013434370B77A8378A2
:1036100007FA01FE43EA0E038370F77AC37807FACC
:1036200001FB43EA0B03C370377B037907FA01F907
:1036300043EA0903037196F80DC043790CFA01FCC3
:1036400043EA0C034371B37B87798B401F43877137
:10365000F67BC7798E403743C771017C41EA080188
:103660000174417C11434174817C41EA0E018174F3
:10367000C17C41EA0B01C174017D41EA0901017578
:10368000417D41EA0C014175817D19438175C17D00
:103690003143C175012208210A48FDF762FBFFF79B
:1036A000C9FB012D7FF4E8AD074984F803A03C2055
:1036B00081F800A0E080F8E49109002004F8FF1FE1
:1036C00030000020000C01401000002038B50068D8
:1036D0000068C043C00617D40C4C206801684068DD
:1036E00000902046FEF7F5F8606B006840680849D6
:1036F000C0F500704880012001F8040B420220460A
:10370000BDE83840FEF782BA38BD0000D80100207D
:10371000600300200A4601464FF6FF730148FEF79A
:10372000C3BA0000D801002005480068C16841F014
:103730001001C1604FF4007202490148FEF766BAF9
:10374000980100206805002038B500680068C04373
:10375000C00617D40C4C20680168406800902046D1
:10376000FEF7B7F8606B006840680849C0F5007064
:103770004880012001F8040B42022046BDE8384091
:10378000FEF744BA38BD000098010020640500200F
:103790000A4601464FF6FF730148FEF785BA00005E
:1037A0009801002003480068C16841F02001C16011
:1037B00070470000580100200A4601464FF6FF738B
:1037C0000148FEF771BA0000580100207047000060
:1037D00070B5084D002480212846FDF7BDFA00B9D8
:1037E000012420212846FDF7B7FA00B9A41C601C6B
:1037F00070BD00000008014010B5002402210748F8
:10380000FDF7AAFA00B901244FF400710448FDF74E
:10381000A3FA00B9A41C204610BD00000018014006
:10382000000C014010B520210248FDF795FA02492D
:10383000C87010BD000C01402400002070B50024A9
:1038400080210A48FDF788FA00B90124084D20219B
:103850002846FDF781FA00B9A41C08212846FDF787
:103860007BFA00B9241D204670BD00000014014001
:103870000018014070B5094D00244FF4005128464E
:10388000FDF76AFA00B901244FF400612846FDF7FC
:1038900063FA00B9A41C204670BD00000018014066
:1038A00070B5084D00244FF400712846FDF754FA16
:1038B00000B9012480212846FDF74EFA00B9A41C66
:1038C000204670BD0018014010B508210748FDF7DB
:1038D00043FA074C00B10120A07008210548FDF70C
:1038E0003BFA002801D10220A07010BD0010014059
:1038F00024000020001401402DE9F05FCA48CB4E9F
:10390000CB4D4278B714CB4CCB484FF400684FF402
:10391000806B002A4FF480717ED0FDF71DFA18B934
:10392000A07840F00100A0704FF400713046FDF720
:1039300013FA18B9A07840F00200A0704FF480711B
:103940003046FDF709FA18B9A07840F00400A070DD
:1039500080213046FDF700FA18B9A07840F0080041
:10396000A07040213046FDF7F7F918B9A07840F073
:103970001000A0704FF400412846FDF7EDF918B98A
:10398000A07840F02000A0704FF480412846FDF759
:10399000E3F918B9A07840F04000A0704FF400514E
:1039A0002846FDF7D9F918B9A07840F08000A0703A
:1039B000B94639462846FDF7CFF918B9E07840F006
:1039C0000100E070474641462846FDF7C5F918B9A1
:1039D000E07840F00200E0704FF400712846FDF7F7
:1039E000BBF918B9E07840F00400E070DFF84882D5
:1039F000BA4639464046FDF7AFF918B9E07840F0CD
:103A00000800E0704F4649464046FDF7A5F928B941
:103A1000E07840F0100000E043E0E07059463046A6
:103A2000FDF79AF918B9E07840F02000E0705146AF
:103A30003046FDF791F918B9E07840F04000E070A9
:103A400039463046FDF788F918B9E07840F0800033
:103A5000E07001212846FDF77FF918B9207940F080
:103A60000100207159462846FDF776F918B92079EA
:103A700040F00200207139467048FDF76DF918B921
:103A8000207940F0040020714FF400416C48FDF7AC
:103A900063F9002803D1207940F008002071BDE8C7
:103AA000F09FFDF759F918B9A07C40F00100A0740F
:103AB0004FF400713046FDF74FF918B9A07C40F083
:103AC0000200A0744FF480713046FDF745F918B933
:103AD000A07C40F00400A07480213046FDF73CF942
:103AE00018B9A07C40F00800A07440213046FDF7D2
:103AF00033F918B9A07C40F01000A0744FF40041D5
:103B00002846FDF729F918B9A07C40F02000A074E0
:103B10004FF480412846FDF71FF918B9A07C40F00A
:103B20004000A0744FF400512846FDF715F918B96C
:103B3000A07C40F08000A074B94639462846FDF7C5
:103B40000BF918B9E07C40F00100E07447464146AB
:103B50002846FDF701F918B9E07C40F00200E07456
:103B60004FF400712846FDF7F7F818B9E07C40F0F3
:103B70000400E074DFF8C080BA4639464046FDF7DD
:103B8000EBF818B9E07C40F00800E0744F46494675
:103B90004046FDF7E1F818B9E07C40F01000E07411
:103BA00059463046FDF7D8F818B9E07C40F02000BF
:103BB000E07451463046FDF7CFF818B9E07C40F08C
:103BC0004000E07439463046FDF7C6F818B9E07C8D
:103BD00040F08000E07401212846FDF7BDF818B9D7
:103BE000207D40F00100207559462846FDF7B4F8C5
:103BF00018B9207D40F00200207539460F48FDF7C6
:103C0000ABF818B9207D40F0040020754FF4004156
:103C10000B48FDF7A1F800287FF441AF207D40F06C
:103C2000080020753BE70000240000200010014040
:103C3000001401406C09002000080140000C014004
:103C4000001801402DE9F041404E4FF4004500229C
:103C500029463046FDF785F83D4F20213846FDF7CF
:103C60007BF83C4C0221E0703846FDF775F8607037
:103C700029463046FDF770F8D0B100202070FFF7DC
:103C800023FEFFF7F7FD2071FFF70AFE6071FFF7D3
:103C90009FFDA071FFF7D2FDE071FFF7ADFD20722F
:103CA00040B1012808D002284AD003284BD006E0B2
:103CB0000120E3E7C82001E04FF4FA70E060FFF76D
:103CC0001BFEE17824A0FEF745FE617828A0FEF7F0
:103CD00041FE21782FA0FEF73DFEA17834A0FEF72B
:103CE00039FE21793BA0FEF735FE61793FA0FEF752
:103CF00031FEA17944A0FEF72DFEE17946A0FEF742
:103D000029FE4BA0E168FEF725FE514C51A0A17899
:103D1000FEF720FEE17858A0FEF71CFE21795FA097
:103D2000FEF718FEA17C66A0FEF714FEE17C6DA0F4
:103D3000FEF710FE217DBDE8F04173A0FEF70ABE3C
:103D40004FF47A70BAE740F6B830B7E700080140A0
:103D5000000C0140240000200D0A6669726520698C
:103D60006E666F20697320253032640D0A000000F2
:103D700067526576525334383541476174655479DA
:103D80007065466C616720697320253032640D0AC6
:103D9000000000006752533438354141636B466C74
:103DA000616720697320253032640D0A000000002D
:103DB0006752533438354353656E644761746554B4
:103DC000797065466C616720697320253032640D17
:103DD0000A0000006747726F75704E756D626572FC
:103DE00020697320253032640D0A0000674D61633D
:103DF00068696E654E756D62657220697320253045
:103E000032640D0A00000000674164647220697327
:103E10002025640D0A00000067466C6F6F724F66C4
:103E20006673657420697320253032640D0A0000C2
:103E300067436F646553656E64696E6754696D6549
:103E4000436E7420697320253032640D0A0000002F
:103E50006C0900206741636B52533438354341731A
:103E60006B44617461427566665B325D20697320E4
:103E7000253033640D0A00006741636B52533438B8
:103E8000354341736B44617461427566665B335DB3
:103E900020697320253033640D0A00006741636B8D
:103EA00052533438354341736B44617461427566D3
:103EB000665B345D20697320253033640D0A000091
:103EC0006741636B52533438354341736B446174BB
:103ED00061427566665B31385D2069732025303339
:103EE000640D0A006741636B5253343835434173A4
:103EF0006B44617461427566665B31395D2069733C
:103F000020253033640D0A006741636B5253343807
:103F1000354341736B44617461427566665B323050
:103F20005D20697320253033640D0A0038B50446DE
:103F30008DF800000223012269460248FDF7B4FE15
:103F4000204638BD5801002010B5034600780122F4
:103F500003E09C5C6040521C92B28A42F9D310BDCF
:103F600010B503460078012203E09C5C6040521CBF
:103F700092B28A42F9D310BD88B0FCF705FFFEF774
:103F800078F9FDF7FFFEFDF7EFFEFEF70BF9FEF700
:103F9000E3F8FEF72DF9FEF729F8FEF765F8FEF7CE
:103FA000A1F8FDF7A5FFFDF7E7FFFFF70FFCFEF710
:103FB00057FFFFF7B9FBFFF7F5FBFFF743FE214D76
:103FC0002846FCF727FD204CC0B20128207017D9E5
:103FD00001202070FCF7B8FDFCF7A4FD6846FCF753
:103FE00007FDFCF7DBFC059520788DF8180008200C
:103FF00000906846FCF71EFDFCF78AFDFCF77EFD8D
:104000002846FCF707FDC1B2217010A0FEF7A2FC04
:104010001548FDF789FA1548FDF786FA00220821B0
:104020001348FCF79EFE134C002500BFFEF730FF3F
:104030002078C007FAD025706188201DFFF7A8FB03
:10404000F4E7000004F8FF1F18000020674E6565C4
:1040500064466C61736843617264466C6167206991
:1040600073202558200D0A00A0020020E002002045
:10407000000C01406405002000000000000000006A
:1040800001020304060708090000000001020304FE
:10409000B04000080000002038000000742900082B
:1040A000E840000838000020800D00008429000846
:1040B00000A24A04010000001000000000000000FF
:1040C00000000000000000000000000000000000F0
:1040D00000000000000000000000000000000000E0
:0840E0000000000000000000D8
:0400000508000131BD
:00000001FF
