:020000040800F2
:10000000980D002045010008BF1D00089118000848
:10001000BD1D0008B9010008D1240008000000003F
:10002000000000000000000000000000E31D0008C8
:10003000FF01000800000000E11D0008E51D0008A8
:100040005F0100085F0100085F0100085F01000810
:100050005F0100085F0100085F0100085F01000800
:100060005F0100085F0100085F0100085F010008F0
:100070005F010008BD0100085F0100085F01000882
:10008000C90100085F0100085F0100085F01000866
:100090005F0100085F0100085F0100085F010008C0
:1000A0005F0100085F0100085F0100085F010008B0
:1000B0005F010008A11E0008AD1E00085F010008D6
:1000C0005F0100085F0100085F0100085F01000890
:1000D0005F01000859230008A1240008B924000882
:1000E0005F0100085F0100085F0100085F01000870
:1000F0005F0100085F0100085F0100085F01000860
:100100005F0100085F010008B91E00085F010008D8
:100110005F0100085F0100085F0100085F0100083F
:100120005F0100085F0100085F0100085F0100082F
:10013000DFF80CD000F02EF80048004781380008A6
:10014000980D00200648804706480047FEE7FEE776
:10015000FEE7FEE7FEE7FEE7FEE7FEE7FEE7FEE777
:10016000591E00083101000830B50B460146002039
:100170002022012409E021FA02F59D4205D303FA69
:1001800002F5491B04FA02F52844151EA2F10102EA
:10019000F1DC30BD064C074D06E0E06840F001039D
:1001A00094E8070098471034AC42F6D3FFF7C4FF39
:1001B0002439000844390008FEE70000014800F037
:1001C000CFB800003C020020014800F0C9B8000090
:1001D000F801002030B590F840500124AC40C56BC8
:1001E0006C60046863604368102B036803D09960F7
:1001F0000068C26030BD9A600068C16030BD704761
:1002000001680A6822F00E020A6001680A6822F09A
:1002100001020A6090F84020C36B012101FA02F24A
:100220005A6080F82110002180F82010084670479D
:100230002DE9F05F90F821100024022903D0042159
:100240008163012485E001680A6822F00E020A60D9
:1002500001680A6822F001020A603F4E3E4FB21563
:10026000DFF8F4C0DFF8F090DFF8ECA0DFF8E8B0DA
:10027000DFF8E4E00168783F13011502ACF1640C8B
:10028000A9F15009AAF13C0AABF1280BAEF1140E0A
:100290004FF48018B14227D9B9420ED0614512D02F
:1002A00049451DD0514518D0594518D0714501D147
:1002B000424615E0294EB14201D1012210E0274EFD
:1002C0001436B14201D110220AE0244E2836B14240
:1002D00006D0224A3C32914201D11A4600E02A4619
:1002E0001E49091F0A602BE0B94213D0614517D09F
:1002F000494522D051451DD059451DD0714501D1E8
:1003000042461AE0B14202D14FF0807215E0134E1E
:10031000B14201D1012210E0104E1436B14201D198
:1003200010220AE00D4E2836B14206D00B4A3C326C
:10033000914201D11A4600E02A46074980394A60B5
:10034000012180F82110002180F82010416B01B1BB
:1003500088472046BDE8F09F800002400804024024
:100360002DE9F05FC16B0A6801680B68046C4FF0FF
:10037000040808FA04F8844D844E854FDFF814C24F
:10038000DFF81492DFF814A2DFF814B2DFF814E2F9
:1003900018EA020F65D05FEA437862D50A689206D0
:1003A00003D40A6822F004020A60DFF8F0814FF4F7
:1003B0008062016808F1140813011402414524D930
:1003C000A9420DD0B1420FD0B9421AD0614515D023
:1003D000494515D0514501D1120312E0594501D1CB
:1003E00004220EE0714501D140220AE06D4D143522
:1003F000A94206D06B4A2832914201D11A4600E048
:1004000022466749091F0A6029E0A94213D0B14278
:1004100015D0B94220D061451BD049451BD051456C
:1004200002D14FF4800217E0414502D14FF08062C3
:1004300012E0594501D104220EE0714501D140225C
:100440000AE0584D1435A94206D0564A2832914246
:1004500001D11A4600E022464B4908394A60C16A78
:1004600071E04FF0020808FA04F818EA020F70D0A1
:100470005FEA83786DD50A68920606D40A6822F08E
:100480000A020A60012180F82110DFF810814FF480
:100490000072016808F1140813011402414524D9BF
:1004A000A9420DD0B1420FD0B9421AD0614515D042
:1004B000494515D0514501D1120312E0594501D1EA
:1004C00002220EE0714501D120220AE0354D14359B
:1004D000A94206D0334A2832914201D11A4600E09F
:1004E00022462F49091F0A6029E0A94213D0B142D0
:1004F00015D0B94220D061451BD049451BD051458C
:1005000002D14FF4001217E0414502D14FF00072C2
:1005100012E0594501D102220EE0714501D120229D
:100520000AE0204D1435A94206D01E4A28329142D5
:1005300001D11A4600E02246134908394A600021D9
:1005400080F82010816A00291CD0BDE8F05F0847C0
:10055000FFE70825A540154214D01A0712D50A68EE
:1005600022F00E020A6090F84020C36B012101FACC
:1005700002F25A60816380F82110002180F8201077
:10058000016BE0E7BDE8F09F080002401C0002405C
:100590003000024044000240580002406C0002401B
:1005A000080402401C04024030B560B11C4A0368D4
:1005B0001421934209D21B4A1A44B2FBF1F189007B
:1005C000016419490AE0012030BD154A52421A441B
:1005D000B2FBF1F18900016411490839C1630221BC
:1005E00080F821101A6843F6F0718A43F0E901148B
:1005F0002143D0E902452C43214304692143446946
:1006000021438469214311431960002141628162C1
:10061000C16201634163012242770177084630BD20
:1006200008040240F8FFFDBF0000024070B5044618
:1006300090F82000002501280CD0012084F820002B
:1006400094F821600020012E06D084F820000225B5
:10065000284670BD022070BD022684F82160A06388
:100660002068066826F0010606602046FFF7B2FD06
:10067000E06A00282068016802D041F00E0106E01F
:1006800021F0040101602068016841F00A01016065
:100690002068016841F001010160D9E72DE9F84FB8
:1006A000DFF8B8A100220AF1040B144601274FF02D
:1006B0000F090BF1040E00BF0B6807FA04F52B407D
:1006C000AB4274D1DFF898C14E68A6EB0C086645C2
:1006D0002BD00DDC032E34D005DC36B3012E19D01F
:1006E000022E2FD11BE0112E16D0122E2AD119E086
:1006F000B8F5881F19D006DCB8F5803F15D0B8F5DD
:10070000801F1FD111E0B8F5001F0ED0B8F5041FEF
:1007100018D10AE0CA6815E0CA68121D12E0CA685A
:1007200008320FE0CA680C320CE08A682AB1012A4C
:100730004FF0080203D0456104E0042202E00561A5
:1007400000E00022FF2B01D8064601E000F104067C
:100750004FEA840501D9A5F12005D6F800C009FAB1
:1007600005F82CEA080C02FA05F54CEA050CC6F867
:1007700000C04D68ED006AD53A4DAE6946F00106FD
:10078000AE61AD6924F0030605F001050095364D14
:1007900006EB050CDCF80850A6074FEA167809FAB4
:1007A00008F6B543314EB04202D100261AE04EE0C1
:1007B0002F4EB04201D1012614E02E4EB04201D19D
:1007C00002260FE02C4EB04201D103260AE02B4E48
:1007D000B04201D1042605E0294EB04201D10526E0
:1007E00000E0062606FA08F62E43CCF808604D68AD
:1007F000DAF80060ED03554601D51E4300E09E4344
:100800002E604D68AD0305D5DBF800601E43CBF8C4
:10081000006004E0DBF800509D43CBF800504D68C9
:10082000DEF80060ED02754601D51E4300E09E43F0
:100830002E604D68AD0205D5084D0C352E681E435F
:100840002E6004E0054E0C3635689D433560641C0F
:10085000102CFFF431AFBDE8F88F00000004014018
:10086000000011100010024000000140000801408B
:10087000000C01400010014000140140001801402C
:10088000001C01408068084000D0012070470AB178
:10089000016170470904FBE7014880687047000068
:1008A000040000200248816802781144816070478A
:1008B00004000020074810B5016841F010010160F4
:1008C000032000F095F8002000F006F800F024F86E
:1008D000002010BD0020024070B50D4D04464FF4BD
:1008E0007A712878B1FBF0F00A490968B1FBF0F0A1
:1008F00000F025FB48B9102C07D200222146501EDB
:1009000000F056F800206C6070BD012070BD000042
:1009100004000020000000201D4808B5816941F056
:1009200001018161806900F001000090032000F066
:100930005FF8002211466FF00B0000F039F800223A
:1009400011466FF00A0000F033F8002211466FF0F4
:10095000090000F02DF800221146501F00F028F881
:1009600000221146101F00F023F800221146901EAD
:1009700000F01EF800221146501E00F019F805483C
:10098000416821F0E06141F00071416008BD000064
:10099000001002400000014000F01F0201219140C0
:1009A0004009800000F1E020C0F80011704700000D
:1009B000F0B40E4B1B680C46C3F30223C3F10705CA
:1009C000042D00D90425191D072901D2002300E0B8
:1009D000DB1E012606FA05F1491E214099409E4082
:1009E000761E16403143F0BC01F0EAB90CED00E090
:1009F000064900F0070208684FF6FF03184040EA76
:100A00000220034A10430860704700000CED00E02C
:100A10000000FA052DE9F047DFF83C8105460E4657
:100A2000D8F8000000F00700B0420CD2D8F800104F
:100A300021F007013143C8F80010D8F8000000F099
:100A40000700B04263D12878444C800705D5606820
:100A5000A96820F0F000084360602878C00745D0FE
:100A60006868012816D02168022816D08907002955
:100A70004DDA616821F0030101436160FFF70CFF6B
:100A80006968074641F2883001290FD00229814662
:100A900019D027E021688903E9E78901E7E700BF6A
:100AA000FFF7FAFEC11B494501D918E0814660688D
:100AB000C0F381000128F3D118E000BFFFF7ECFE7E
:100AC000C11B49450BD86068C0F381000228F5D1ED
:100AD0000CE000BFFFF7E0FEC11B494502D903202F
:100AE000BDE8F087606810F00C0FF3D1D8F8001063
:100AF000404601F00701B1420BD9016821F007011E
:100B000031430160006800F00700B04201D00120CD
:100B1000E6E72878400705D56068E96820F4E060DA
:100B2000084360602878000706D56068296920F4CA
:100B3000605040EAC100606000F03CF86168084A1B
:100B4000C1F30311515CC840064908600020FFF75B
:100B5000C3FE0020C4E70000002002400010024055
:100B60000C390008000000200148006870470000B0
:100B7000000000200448054900684968044AC1F3A0
:100B80000221515CC8407047000000200010024064
:100B90001C3900080448054900684968044AC1F343
:100BA000C221515CC8407047000000200010024084
:100BB0001C39000812A185B00FC98DE80F0014A0E0
:100BC000144A006804905168134801F00C03042B88
:100BD00010D0082B0ED1C1F38343C9031DF80300C5
:100BE0000AD5516804AAC1F34041515C0A4A5043F6
:100BF000B0FBF1F005B0704708494843FAE7000040
:100C000002030405060708090A0B0C0D0E0F10104D
:100C1000010200000010024000127A0000093D00AD
:100C20002DE9F84F04460078B94DC00748D06868F0
:100C3000C0F38100012807D06868C0F38100022852
:100C400009D16868C00306D52868800338D5606874
:100C500000286FD034E06068B0F5803F0BD010B151
:100C6000B0F5A02F11D0286820F4803028602868C3
:100C700020F4802002E0286840F48030286060681A
:100C800088B1FFF709FE064609E0286840F4802095
:100C90002860F0E7FFF700FE801B642875D82868FD
:100CA0008003F7D50CE0FFF7F7FD064605E000BF2F
:100CB000FFF7F2FD801B6428F0D828688003F7D482
:100CC0002078944E80074FF001094FF000083BD583
:100CD000686810F00C0F07D06868C0F38100022824
:100CE00009D16868C00306D42868800714D5206934
:100CF00001281FD110E02069B0B1C6F80090FFF7BD
:100D0000CBFD074605E000BFFFF7C6FDC01B02286C
:100D1000C4D828688007F7D52868616920F0F800F2
:100D200040EAC10028600FE0C6F80080FFF7B4FD7C
:100D3000074606E0E9E000BFFFF7AEFDC01B022852
:100D400023D828688007F7D4207800072CD572486C
:100D5000A169D9B1C0F80090FFF79EFD074604E0F5
:100D6000FFF79AFDC01B02280FD8686A8007F7D5E5
:100D70006A484FF4FA510068B0FBF1F0009000BFF0
:100D80000098411E0091FAD20EE080E0C0F8008089
:100D9000FFF782FD074604E0FFF77EFDC01B022837
:100DA00075D8686A8007F7D42078400760D5E8696D
:100DB0000027C00008D4E86940F08050E861E86985
:100DC000012700F08050009055480168C90513D4F0
:100DD0000168834641F480710160FFF75DFD824642
:100DE00006E000BFFFF758FDA0EB0A0064284ED8CC
:100DF000DBF80000C005F5D5E06801280AD008B18D
:100E0000052813D0286A20F001002862286A20F003
:100E1000040002E0286A40F001002862E06841F224
:100E2000883B98B1FFF738FD82460BE0286A40F016
:100E300004002862EEE700BFFFF72EFDA0EB0A01D9
:100E400059455AD8286A8007F6D50CE0FFF724FDEB
:100E5000824605E0FFF720FDA0EB0A0159454CD87A
:100E6000286A8007F6D41FB1E86920F08050E86155
:100E7000E06988B36968C1F38101022945D002287D
:100E8000C6F8608004D0FFF707FD044638E034E080
:100E9000FFF702FD074604E0FFF7FEFCC01B022837
:100EA0002BD828688001F7D4206AB0F5803F05D19F
:100EB0006868A16820F4003008436860D4E908013C
:100EC0000843696821F4741108436860C6F86090AB
:100ED000FFF7E2FC044606E015E000BFFFF7DCFC8C
:100EE000001B022809D828688001F7D50BE000BF55
:100EF000FFF7D2FC001B022802D90320BDE8F88FBF
:100F000028688001F4D40020F8E70120F6E700000B
:100F100000100240000042428004424200000020D3
:100F2000007000404FF0E0210428086903D020F051
:100F300004000861704740F00400FAE7704710B5FC
:100F4000401EB0F1807F01D3012010BD4FF0E0249E
:100F500060610F21601700F033FF0020A0610720BF
:100F60002061002010BD10B5FFF7E8FF10BD7047ED
:100F7000704730B590F83C20012A20D0012280F83B
:100F80003C20022380F83D3003685C6824F0700444
:100F90005C6003685C680D682C435C6003689C6857
:100FA00024F080049C6003689C6849680C439C6042
:100FB00080F83D20002180F83C10084630BD02201A
:100FC00030BD10B5040003D094F83D0010B107E027
:100FD000012010BD002084F83C00204600F00CF8F1
:100FE000022084F83D00211D206800F06BFF0120E5
:100FF00084F83D00002010BD08B5124A016812486F
:10100000914207D1C16941F00201C161C06900F09C
:10101000020009E00D4A914208D1C16941F0040182
:10102000C161C06900F00400009008BD084A914207
:10103000FBD1C16941F00801C161C06900F008003D
:10104000F2E70000000400400010024000080040E9
:10105000000C00400168CA6842F00102CA600068E2
:10106000016841F0010101600020704770B504463D
:1010700090F83C00012817D0012584F83C5002204C
:1010800084F83D002068826822F0770222F47F42D3
:1010900082600868502837D00DDC202859D005DC44
:1010A00088B3102841D151E0022070BD302853D0C0
:1010B00040283AD13FE060282ED070280BD0B0F500
:1010C000805F03D0B0F5005F2FD110E02068816809
:1010D00021F0070115E0CB68D1E90121206800F07B
:1010E00037FF2168886840F0770088601DE0CB6892
:1010F000D1E90121206800F02BFF2068816841F4CC
:101100008041816011E01EE0CA684968206800F0F3
:1011100031FF5021206806E0CA684968206800F065
:101120003AFF6021206800F01DFF84F83D50002048
:1011300084F83C0070BDCA684968206800F01AFF56
:1011400040212068EFE700212068ECE710212068AB
:10115000E9E720212068E6E730212068E3E77047CF
:1011600070B50446006801694FF00005C94389075E
:1011700015D4C168C943890711D4E91E0161012052
:101180002077206880698007204602D0FFF7E7FFBC
:1011900004E000F098F8204600F096F825772068E3
:1011A0000169C943490717D4C168C943490713D422
:1011B0006FF004010161022020772068806910F43B
:1011C000407F204602D0FFF7CAFF04E000F07BF822
:1011D000204600F079F8257720680169C94309079E
:1011E00016D4C168C943090712D46FF00801016120
:1011F000042020772068C0698007204602D0FFF7CE
:10120000AEFF04E000F05FF8204600F05DF82577BF
:1012100020680169C943C90617D4C168C943C90612
:1012200013D46FF010010161082020772068C06995
:1012300010F4407F204602D0FFF791FF04E000F059
:1012400042F8204600F040F8257720680169C9433C
:10125000C90708D1C168C943C90704D1891E016102
:10126000204600F033F820680169C943090609D413
:10127000C168C943090605D46FF0800101612046A9
:10128000FFF775FE20680169C943490609D4C168A2
:10129000C943490605D46FF040010161204600F0C2
:1012A000ADF820680169C94389060BD4C168C943F8
:1012B000890607D46FF0200101612046BDE8704027
:1012C000FFF756BE70BD7047704700002DE9F04132
:1012D00006463C48B0423DD13B4D3C4B002468881B
:1012E0004FF48071401C80B26880142801D800221D
:1012F00004E0782801D96C8003E001221846FFF74A
:10130000C6FA2878324F68B132480188491E89B23E
:1013100001800A2906D204802C7000220821384658
:10132000FFF7B5FA2C490878A0B12C480288521E64
:1013300092B20280052A0DD2294A14700C700480E2
:1013400028486C700022047010213846FFF79FFA7D
:1013500001F094FA2448B04231D101F051FF234CFE
:10136000234D207808B1287828BB224822490378E9
:10137000FF20022B05D102228854521CD2B2222A0D
:10138000FAD3012B05D102228854521CD2B2122A60
:10139000FAD32BB912228854521CD2B2222AFAD381
:1013A00001F05AFA01F0C2FE207820B12878012815
:1013B00001D101F063FABDE8F04101F0B7BEBDE82C
:1013C000F081000080020020100000200014014085
:1013D000000C01401E000020220000202000002000
:1013E000190000201B000020C00200202700002060
:1013F00018000020260000204C090020704710B57E
:1014000004460068416994F83920C1F3C011212ACB
:101410000BD151B1416921F080014161206B08B1CC
:10142000FEF7EEFE204600F026FE2068416994F8A3
:101430003A20C1F38011222A0BD151B1416921F028
:1014400040014161606B08B1FEF7DAFE204600F012
:1014500004FE002010BD704770B502680446106895
:10146000D168536910F00F0F50D003F0010501F45B
:10147000907635435DD0C20705D0CA0503D5E26B2F
:1014800042F00102E263420705D5DA0703D0E26BBE
:1014900042F00202E263820705D5DA0703D0E26B6D
:1014A00042F00402E263020705D5DA0703D0E26BDB
:1014B00042F00802E263E26B002A33D0800604D5D2
:1014C000880602D5204600F0DFFD20684069E16B08
:1014D000C0F38010090700D428B3204600F0BDFDFA
:1014E0002068416949061AD5416921F040014161EE
:1014F000606BA0B11B494163606BFEF799FE002849
:1015000010D0606B416BBDE870400847830610D572
:101510008B060ED52046BDE8704000F0B5BD2046D4
:10152000FFF799FF70BD2046FFF795FF0020E063AD
:1015300070BD030606D50B0604D52046BDE87040F5
:1015400000F0A6BE4006F3D54806F1D5D168204686
:1015500021F04001D160202184F8391000F097F982
:1015600070BD0000BB1F000870B5040004D094F8E3
:101570003900002510B106E0012070BD84F8385014
:10158000204600F023F8242084F839002068C16840
:1015900021F40051C160204600F0C2FD20680169BD
:1015A00021F4904101612068416921F02A014161E3
:1015B0002068C16841F40051C160E563202084F8CF
:1015C000390084F83A00002070BD00002DE9F04792
:1015D0000546DFF830C1036800244B48022103228E
:1015E000DFF8288180274A4E86B04FF040096345D6
:1015F0001ED1836943F4804383618069CDE9009102
:1016000000F48040CDE9032069464046FFF746F8E4
:10161000CDE90074694640460294FFF73FF87068D0
:1016200040F0E06040F00400706006B0BDE8F08774
:10163000DFF8E0C04FF0200A634531D1C36943F4BD
:101640000033C361C069CDE900A100F40030D04689
:10165000CDE90320DFF8C0A069465046FFF71EF829
:10166000CDE90094694650460294FFF717F8706878
:1016700040F0E06040F008007060294E2748C6E95D
:101680000004C6E902473461C6E905483046F46102
:10169000FEF78AFF08B1B6212FE06E637562C4E7DA
:1016A000204EB342C1D1C36943F48023C361C069F2
:1016B000039200F4802004903015CDE900016946C2
:1016C0004046FEF7EBFFF014CDE9000469464046C2
:1016D0000294FEF7E3FF124E104844363C38C6E948
:1016E0000004C6E902473461C6E9054A3046F461A0
:1016F000FEF75AFF0028D0D0E1210BA000F0E9FE50
:10170000CBE700000038014000100240000C01400F
:101710000000014000440040001401406C00024001
:10172000F8010020004800402E2E2F5372632F75C1
:10173000736172742E630000F8B5044690F83A00A5
:1017400020283CD1C1B3BAB394F83800012836D070
:10175000012084F83800A162A2850025E5632220DB
:1017600084F83A00636B17489862636B1648D86236
:10177000636B16481863606B134645630846666BD7
:10178000216802463046091DFEF750FF20680168B7
:101790004168009184F83850C16841F48071C1609B
:1017A0002068416941F0010141612068416941F0CF
:1017B000400141610020F8BDFFE70120FBE7022066
:1017C000F9E700001520000851200008CB1F000891
:1017D000704770472DE9F843044690F839001F46DA
:1017E00016460D46202850D1A5B19EB194F8380078
:1017F00001284AD0012084F838004FF00008C4F8CE
:101800003C80212084F83900FFF746F8A684814601
:10181000E68426E00120BDE8F883E08C401EE084E9
:10182000A0684B46B0F5805F4FF000024FF080019A
:101830002046009703D000F05CFDE8B90DE000F011
:1018400058FDC8B928882168C0F30800486020699D
:1018500008B16D1C05E0AD1C03E0216815F8010B13
:101860004860E08C0028D8D14B4600224021204619
:10187000009700F03EFD08B10320CCE7202084F85B
:10188000390084F838800020C5E70220C3E770479C
:10189000FEE70000054808B5416941F001014161DA
:1018A000406900F00100009008BD000000100240F7
:1018B0002DE9F047534886B0816941F040018161CC
:1018C000816901F040010491816941F01001816159
:1018D000816901F010010491816941F00401816185
:1018E000816901F004010491816941F0080181617D
:1018F000816901F008010491816941F02001816151
:101900008069414E00F020000490002245F25551BC
:101910003046FEF7BCFF01224AF6AA213046FEF708
:10192000B6FF3A4F002217213846FEF7B0FF0122DA
:1019300041F6E8713846FEF7AAFFDFF8D4800022AE
:1019400052214046FEF7A3FF01224FF4CD514046FD
:10195000FEF79DFFDFF8BC90002240F219114846C7
:10196000FEF795FF012241F222214846FEF78FFF44
:10197000DFF8A4A00022B1155046FEF788FF01222F
:101980004FF699615046FEF782FF4FF6FF70012532
:10199000CDE900050224694603943046FEF77EFE39
:1019A00041F6FF70CDE90005694603943846FEF71D
:1019B00075FE41F6F210CDE90005694603944046F4
:1019C000FEF76CFE41F23B30CDE900056946039419
:1019D0004846FEF763FE4FF46040CDE90004032063
:1019E000039069464846FEF759FE4FF69970CDE9D7
:1019F0000005694603945046FEF750FE06B0BDE868
:101A0000F087000000100240001801400010014063
:101A100000080140000C0140001401407FB545F270
:101A20005550002401258DE8310069460C48FEF729
:101A300035FE17208DE8310069460A48FEF72EFE74
:101A400012208DE8310069460748FEF727FE40F274
:101A500009108DE8310069460448FEF71FFE7FBD7E
:101A6000001801400010014000080140000C014036
:101A700010B5002211462520FEF79AFF2520FEF71B
:101A80008BFF002211462620FEF792FF2620FEF74C
:101A900083FF002211462720FEF78AFF2720FEF74A
:101AA0007BFF002211463220FEF782FF3220FEF734
:101AB00073FF002211461D20FEF77AFF1D20FEF75E
:101AC0006BFF002211461E20FEF772FF1E20FEF75C
:101AD00063FF002211460D20FEF76AFF0D20FEF77E
:101AE0005BFF002211461020FEF762FFBDE81040A8
:101AF0001020FEF751BF00001FB500244FF699607B
:101B0000CDE90004694614480294FEF7C7FD41F28E
:101B10002220CDE90004694610480294FEF7BEFD7C
:101B20004FF4CD50CDE9000469460D480294FEF70C
:101B3000B5FD41F6E870CDE9000469460948029414
:101B4000FEF7ACFD4AF6AA20CDE900046946064836
:101B50000294FEF7A3FD1FBD00140140000C0140DC
:101B600000080140001001400018014010B519485C
:101B700086B01749016040F27F210024C0E90114BA
:101B800040F2E731C0E9031480218161FFF719FABF
:101B900018B1412110A000F09CFC4FF4805000903F
:101BA00069460C48FFF762FA18B147210AA000F015
:101BB00090FC049404A907480594FFF7DAF900287B
:101BC00003D04E2104A000F084FC06B010BD00003C
:101BD00000040040800200202E2E2F5372632F74C9
:101BE000696D2E630000000010B5194886B01749D2
:101BF000016040F27F210024C0E9011440F69F718A
:101C0000C0E9031480218161FFF7DBF918B160217D
:101C100010A000F05EFC4FF48050009069460C4824
:101C2000FFF724FA18B166210AA000F052FC0494D0
:101C300004A907480594FFF79CF9002803D06D21FB
:101C400004A000F046FC06B010BD000000080040F3
:101C5000C00200202E2E2F5372632F74696D2E63E5
:101C60000000000010B5174886B015490024C0E9EF
:101C700000148460C460802104618161FFF7A1F9D0
:101C800018B17F2110A000F024FC4FF48050009088
:101C900069460C48FFF7EAF918B185210AA000F05F
:101CA00018FC049404A907480594FFF762F900287A
:101CB00003D08C2104A000F00CFC06B010BD000085
:101CC000000C0040000300202E2E2F5372632F744F
:101CD000696D2E63000000000D4810B50B490160CE
:101CE0004FF416414160002181600C22C160C0E9BF
:101CF00004128161C161FFF737FC002805D0BDE8FF
:101D00001040472103A000F0E4BB10BD00380140A3
:101D1000380100202E2E2F5372632F757361727459
:101D20002E6300000D4810B50B4901604FF4E131FE
:101D30004160002181600C22C160C0E90412816110
:101D4000C161FFF711FC002805D0BDE810405A2101
:101D500003A000F0BEBB10BD00440040780100208D
:101D60002E2E2F5372632F75736172742E630000D1
:101D70000D4810B50B4901604FF416514160002128
:101D800081600C22C160C0E904128161C161FFF76A
:101D9000EBFB002805D0BDE810406D2103A000F04A
:101DA00098BB10BD00480040B80100202E2E2F53D4
:101DB00072632F75736172742E630000FEE77047C3
:101DC0000907090E002806DA00F00F0000F1E020F4
:101DD00080F8141D704700F1E02080F8001470476F
:101DE0007047704710B5FEF75DFDBDE81040FFF786
:101DF000BAB830B58FB002250120049000951020AC
:101E0000059000244FF46010CDE90840079568461E
:101E1000FEF706FF00B1FEE70F20CDE90A054FF4FB
:101E20008060CDE90C4002210AA80E94FEF7F2FD75
:101E300000B1FEE7FEF798FE4FF47A71B0FBF1F0C7
:101E4000FFF77DF80420FFF76DF800221146501EC1
:101E5000FEF7AEFD0FB030BD0D48016841F0010145
:101E6000016041680B4A1140416001680A4A114013
:101E70000160016821F480210160416821F4FE01C4
:101E800041604FF41F0181600449C003086070473E
:101E9000001002400000FFF8FFFFF6FE08ED00E032
:101EA0000148FFF75DB90000800200200148FFF7FC
:101EB00057B90000C00200200148FFF751B90000E7
:101EC00000030020F0B502681C4B1D4D1D4E1E4F37
:101ED0001E4C4FF0804C984209D0A04207D060457C
:101EE00005D0A84203D0B04201D0B84204D122F0BC
:101EF000700E4A6842EA0E02984209D0A04207D00A
:101F0000604505D0A84203D0B04201D0B84203D109
:101F100022F44075CA682A4322F080054A692A43A0
:101F200002608A68C2620A688262984201D0A04256
:101F300001D10969016301214161F0BD002C01401B
:101F40000004004000080040000C00400034014044
:101F500010B5846842EA032224F47F440A432243F2
:101F6000826010BD826822F070020A4342F00701CD
:101F70008160704710B5036A046A24F001040462AA
:101F8000846924F0F00444EA021423F00A020A43AC
:101F90008461026210BD10B5036A23F0100303626E
:101FA0008369046A23F4704343EA023224F0A003F5
:101FB00043EA01118261016210BD10B5406A00213F
:101FC000C185C184FFF747FA10BD70B5446A206827
:101FD000406994F83910C0F3C0100025212904D1BC
:101FE00018B1E584204600F046F82068406994F86E
:101FF0003A10C0F38010222904D118B1E58520469B
:1020000000F02BF8E06B40F01000E0632046FFF793
:1020100022FA70BD10B50146406A09680968890650
:1020200013D40021C1850168CA6822F48072CA6095
:1020300001684A6922F001024A6101684A6922F096
:1020400040024A61202180F83A10FFF7C1FB10BD21
:1020500010B5406AFFF7BDFB10BD0168CA6822F4E5
:102060009072CA6001684A6922F001024A61202127
:1020700080F83A1070470168CA6822F0C002CA604E
:10208000202180F83910704710B590F83A102229B5
:1020900001D0022010BD8168B1F5805F11D00169C7
:1020A000002901681FD0496801F07F03816A4A1C3A
:1020B00082620B70C18D491E0904090CC18518D0BC
:1020C0002BE00269816A002A0268526805D0D2B208
:1020D0000A80816A491C8162ECE7C2F308020A8027
:1020E000816A891CF7E74A68816A4B1C83620A701F
:1020F000E0E70168CA6822F02002CA600168CA6885
:1021000022F48072CA6001684A6922F001024A61C1
:10211000202180F83A10FFF75BFB002010BD000083
:102120002DE9F041044600680169E26821F440515C
:10213000114301612169A06808436169084321686E
:10214000CA6841F20C639A430243CA60206841693D
:10215000A26921F44071114341614C492068642512
:10216000322688423CD1FEF715FD00EBC00101EBA1
:10217000001061688900B0FBF1F7FEF70BFD00EB82
:10218000C00101EB00106168B0468900B0FBF1F0BE
:10219000B0FBF5F06FF01801484307EB800106EB48
:1021A0000110B0FBF5F000F0F006FEF7F3FC00EBD9
:1021B000C00101EB001061688900B0FBF1F0B0FBD9
:1021C000F5F006EB0016FEF7E5FC00EBC00101EBB5
:1021D000001061688900B0FBF1F7FEF7DBFC3BE023
:1021E000FEF7C8FC00EBC00101EB0010616889003C
:1021F000B0FBF1F7FEF7BEFC00EBC00101EB0010F5
:102200006168B0468900B0FBF1F0B0FBF5F06FF00B
:102210001801484307EB800106EB0110B0FBF5F015
:1022200000F0F006FEF7A6FC00EBC00101EB001089
:1022300061688900B0FBF1F0B0FBF5F006EB001629
:10224000FEF798FC00EBC00101EB0010616889000B
:10225000B0FBF1F7FEF78EFC00EBC00101EB0010C4
:1022600061688900B0FBF1F0B0FBF5F06FF0180188
:10227000484307EB800108EB0110B0FBF5F0216843
:1022800000F00F0030448860BDE8F0810038014064
:1022900090F83910212901D0022070478168B1F5EA
:1022A000805F016A0BD04A1C0262026809785160A3
:1022B000C18C491E0904090CC1840ED017E009889D
:1022C0000268C1F30801516001690029016A02D066
:1022D000491C0162ECE7891CFBE70168CA6822F02F
:1022E0008002CA600068C16841F04001C1600020FE
:1022F00070472DE9F041984617460E460446069D64
:102300001DE0681C1BD02DB1FEF7C6FAA0EB08003B
:10231000A84214D92068C16821F4D071C160206836
:10232000416921F001014161202084F8390084F8DD
:102330003A00002084F838000320BDE8F0812068CE
:10234000006836EA000004D00020B842D9D000204E
:10235000F3E70120F9E700002DE9F0474448006861
:102360000068C043800648D4424800680127C2B2D2
:102370004148424D5A2A418800D119B10378012BB6
:1023800001D003E007706A54491C418089B23C4E79
:10239000002402292CD0804605292ED1042137485B
:1023A00001F056FAA8F8024088F8004029798142E5
:1023B00023D16878317888421FD1DFF8C880DFF8F0
:1023C000C89098F8000030B1304801221021077001
:1023D0004846FEF75CFA2E4F387820B101221021D2
:1023E0004846FEF754FA2B482B4D017839B10CE0E2
:1023F0003178914201D044800470BDE8F08702201A
:102400002C54401CC0B21228FAD3012905D1122045
:102410002C54401CC0B22228FAD35A20287030789D
:10242000687024211C4801F013FA85F82400252146
:10243000194800F045FE387898F80010174D4646C8
:10244000014302D02978491C29700028D5D028786A
:102450000228D2D900F000FA3C702C7030780028A5
:10246000CBD14846BDE8F04700221021FEF70FBA55
:1024700038010020043801401400002038000020FA
:102480002A00002019000020000C0140220000203A
:102490001A000020260000204C0900201100002016
:1024A00010B5044800F0D4FDBDE810400148FEF727
:1024B000D3BF00007801002010B5044800F08AFD69
:1024C000BDE810400148FEF7C7BF0000B80100207A
:1024D000FEE7FEE70FB4054B10B503A9044A0298C6
:1024E00000F018F810BC5DF814FB00003538000847
:1024F0003400002002E008C8121F08C1002AFAD1E7
:1025000070477047002001E001C1121F002AFBD173
:10251000704700002DE9FF4F8BB088460546002626
:1025200006E025280BD0DDE90D1290476D1C761CC6
:1025300028780028F5D10FB03046BDE8F08F002490
:10254000A146A2460122AE4900E0044315F8013F2E
:10255000203B02FA03F00842F7D128782A2810D04D
:102560006FF02F022878A0F13001092915D809EB66
:10257000890102EB410144F0020400EB01096D1CEA
:10258000F0E758F8041B5FEA010903D544F400544E
:10259000C9F1000944F002046D1C28782E2817D1D7
:1025A00015F8010F44F004042A280ED06FF02F0212
:1025B0002878A0F1300109290AD80AEB8A0102EB38
:1025C000410100EB010A6D1CF2E758F804AB6D1CE9
:1025D00028786C280FD006DC4C2817D068280DD03E
:1025E0006A2814D104E0742810D07A280FD10DE0A5
:1025F00044F400140AE044F4801401E044F440146C
:102600006978814202D104F580146D1C6D1C287814
:10261000692865D006DC00288DD0632827D064287F
:1026200006D15DE06E2808D073282AD0752877D0AF
:10263000DDE90D129047761CE0E0C4F30250022859
:1026400009D003280DD0D8F8001004280DD00E6052
:1026500008F10408D2E0D8F80010F217C1E90062CE
:10266000F6E7D8F800100E80F2E70E70F0E718F8E1
:10267000041B8DF8001000208DF80100EB460120AE
:1026800003E058F804BB4FF0FF3061074FF000073C
:1026900001D40AE07F1C57450DDA8742FADB1BF8AC
:1026A00007100029F6D106E07F1C8742FCDB1BF8EF
:1026B00007100029F8D1DDE90D23A9EB07008146B9
:1026C000214600F0B1F83044C61904E0DDE90D12EE
:1026D0001BF8010B90477F1EF8D22146484688E040
:1026E00058F8040BC4F302514FF00A0B032900D130
:1026F00000B2042900D140B2002802DA40422D2164
:1027000002E0210505D52B218DF82410012104E0DC
:1027100006E0E10710D02021F6E708AF089113E0AA
:1027200058F8040BC4F302514FF00A0B032900D1EF
:1027300080B2042900D1C0B20021EEE75946FDF76E
:1027400013FD303107F8011D0028F7D1ADEB07006C
:1027500000F1200B600702D524F4803401E04FF033
:10276000010ADA4502DDAAEB0B0000E000208246F8
:1027700000EB0B0108980144A9EB01000A90E0036B
:1027800006D4DDE90D2321460A9800F04DF80644F1
:102790004FF0000908E009A911F80900DDE90D1260
:1027A000904709F10109761C08998945F3DBE0039C
:1027B0000CD5DDE90D2321460A9800F035F80644D2
:1027C00004E0DDE90D1230209047761CBAF10001DB
:1027D000AAF1010AF5DC05E0DDE90D1217F8010B9D
:1027E0009047761CBBF10001ABF1010BF4DC0A98B9
:1027F0002146DDE90D2300F005F806446D1C97E63F
:10280000092801002DE9F041044600251E4617461F
:10281000880404D405E039462020B0476D1C641EAE
:10282000F9D52846BDE8F0812DE9F04104460025A0
:102830001E469046C80301D5302700E020278804B3
:1028400004D505E041463846B0476D1C641EF9D5F5
:102850002846BDE8F08100000A20074900220A54FA
:10286000401CC0B21228FAD31A200A54401CC0B22D
:102870002228FAD3704700004C09002002200449A6
:1028800000220A54401CC0B22228FAD300F0B8BC7F
:102890004C0900201CB502208DF80000C3208DF8E3
:1028A000010020208DF80200E1208DF803000320B4
:1028B0008DF804000521684600F0B0FB1CBD000047
:1028C000084810B50068C16841F01001C1604FF4BC
:1028D000007205490348FEF72FFF044901200870E4
:1028E00010BD0000B80100204403002018000020A3
:1028F0002DE9F05FFF4800252F4601782A46C907D9
:1029000057D00021FC4B0170417B1B78994250D07D
:10291000FA49097800294CD00179022949D1417935
:10292000DFF8DCB3DFF8DCA3F74E00F20C644FF005
:102930000109C32914D08379A02B3AD1F34D2D7806
:10294000002D36D000F231654FF0020C85F800C042
:102950006970AB7003210B468146B0F802C0A6E156
:10296000EB49097811B1C27A8A4222D1E949097842
:1029700011B1027B8A421CD190F82810032918D18A
:1029800080462321001D00F06FFF98F82710814238
:102990000FD198F819104046882902D099290AD0F9
:1029A0000FE0817E08290CD1C17E082909D10020C1
:1029B0003070BDE8F09F817E092902D1C17E0929CE
:1029C0005FD01B21421812790AB16D1CADB2491CAF
:1029D00089B22329F6D3012D56D986F80190BBF888
:1029E0000010318110F81FCF9AF80010A2780CFA6D
:1029F00001F842EA0802A2704778E2788F403A4331
:102A0000E27090F802C022790CFA01FE42EA0E024E
:102A1000227190F803C062790CFA01FB42EA0B02C2
:102A2000627190F804C0A2790CFA01FA42EA0A0233
:102A3000A2714379E2798B401A43E271827994F86A
:102A400008C08A404CEA020C84F808C0C07994F8A7
:102A500009C088404CEA000C84F809C0A17C41EA16
:102A60000801A174E17C3943E174217D41EA0E0142
:102A70002175617D41EA0B016175A17D41EA0A0181
:102A80006DE086F8009094E71B214218127902B19C
:102A90001746491C89B22329F7D300254FEA0501BF
:102AA00027FA01F2D20701D06D1CADB2491C89B2E0
:102AB0000829F5D3012D5DD986F80190BBF80010E7
:102AC000318110F81F8F9AF80010A27808FA01FBE4
:102AD00042EA0B02A27090F80180E27808FA01FA4B
:102AE00042EA0A02E27090F802C022790CFA01FC74
:102AF00042EA0C02227190F80380627908FA01FE22
:102B000042EA0E0262710779A2798F403A43A271BC
:102B10004379E2798B401A43E271827994F8088014
:102B20008A4048EA020884F80880C07994F809804D
:102B3000884048EA000884F80980A17C41EA0B013A
:102B4000A174E17C41EA0A01E174217D41EA0C01B2
:102B50002175617D41EA0E016175A17D3943A17541
:102B6000E17D1943E175217E11432176617E0143A8
:102B700061765AE086F8029010F81FCF9AF800109C
:102B800014F80A2F0CFA01F842EA0802227047787A
:102B900062788F403A43627090F802C0A2780CFAD3
:102BA00001FE42EA0E02A27090F803C0E2780CFA2D
:102BB00001FB42EA0B02E27090F804C022790CFAA1
:102BC00001FA42EA0A022271437962798B401A4380
:102BD0006271827994F806C08A404CEA020C84F84B
:102BE00006C0C07994F807C088404CEA000C84F80D
:102BF00007C0217C41EA08012174617C394361747A
:102C0000A17C41EA0E01A174E17C41EA0B01E1746F
:102C1000217D41EA0A012175617D19436175A17D1C
:102C20001143A175E17D0143E175012208213A4874
:102C3000FDF72DFEFFF72EFE012D01D03C20F08088
:102C4000364986F803903C2081F80090F080B0E689
:102C500009EB030898F80400102809D06854491CAF
:102C600089B25B1C9BB21A2909D01E290CD00EE038
:102C700098F805006854491C89B29B1CF2E7687EED
:102C8000EA2804D1012202E0687FE12805D032B1B0
:102C9000012A07D0022A0AD107E0022207E01E29F2
:102CA00005D112E01F2902D10DE020290DD09C454D
:102CB000CED81E2903D0002AC9D01F2903D0012A4B
:102CC000C5D0202901D0022AC1D0687F032801D0B5
:102CD000002ABCD0A87F032801D0012AB7D0E87F02
:102CE000032801D0022AB2D0D2B1012A23D0022A6D
:102CF0002BD03AE0400300202500002027000020D0
:102D0000300000202B0000201800002024000020AC
:102D10002800002029000020000C014010000020A5
:102D20001C21A94800F0A0FD297F81428FD1687E37
:102D3000022812D019E01D21A34800F095FD697FFB
:102D400008E0A87E022869D00FE01E219E4800F00E
:102D50008BFDA97F8142E9D1F3E7E87E95F81A104F
:102D600000EB01200004000CA6D0002108202A5C02
:102D70000AB1491C89B2401C80B21028F7D301293E
:102D80004FD901207070BBF80000308195F808C061
:102D90009AF80000A1780CFA00FC41EA0C01A1703D
:102DA0006F7AE17887403943E17095F80A8021799C
:102DB00008FA00FA41EA0A01217195F80B8061795D
:102DC00008FA00F941EA090161712B7BA17983407E
:102DD0001943A1716A7BE17982401143E171A97BBA
:102DE00094F80880814048EA010884F80880ED7B67
:102DF00094F80980854048EA050884F80980A07C99
:102E000040EA0C00A074E07C3843E074207D40EA86
:102E10000A002075607D40EA090065E0287FE97EB0
:102E20009EE70820295C09B1CFB203E0401C80B2C4
:102E30001028F7D30021084627FA00F2D20701D064
:102E4000491C89B2401C80B20828F5D3012959D900
:102E500001207070BBF80000308195F808C09AF826
:102E60000000A1780CFA00FC41EA0C01A17095F871
:102E70000980E17808FA00FA41EA0A01E17095F860
:102E80000A80217908FA00F941EA09012171EF7AF3
:102E900061798740394361712B7BA1798340194364
:102EA000A1716A7BE17982401143E171A97B94F8B9
:102EB0000880814048EA010884F80880ED7B94F896
:102EC0000980854048EA050884F80980A07C40EA2A
:102ED0000C00A074E07C40EA0A00E074207D40EA27
:102EE00009002075607D38436075A07D1843A0758A
:102EF000E07D1043E075207E08432076607E284305
:102F0000607654E095F808C09AF8000014F80A1F9B
:102F10000CFA00FC41EA0C0121706F7A617887405D
:102F20003943617095F80A80A17808FA00FA41EAFD
:102F30000A01A17095F80B80E17808FA00F941EADE
:102F40000901E1702B7B21798340194321716A7B50
:102F50006179824011436171A97B94F806808140B8
:102F600048EA010884F80680ED7B94F807808540E4
:102F700048EA050884F80780207C40EA0C002074A9
:102F8000607C38436074A07C40EA0A00A074E07C56
:102F900040EA0900E074207D18432075607D1043ED
:102FA0006075A07D0843A075E07D2843E075074962
:102FB0000120024608703C21F180F070BDE8F05F0E
:102FC00008210348FDF763BC7109002010000020B0
:102FD000000C014038B500680068C043C00617D433
:102FE0000C4C20680168406800902046FEF707FA04
:102FF000606B006840680849C0F500704880012097
:1030000001F8040B42022046BDE83840FEF794BBAD
:1030100038BD0000B8010020400300200A460146E8
:103020004FF6FF730148FEF7D5BB0000B801002042
:1030300005480068C16841F01001C1604FF400729A
:1030400002490148FEF778BB7801002048050020BE
:1030500038B500680068C043C00617D40C4C20681F
:103060000168406800902046FEF7C9F9606B00686F
:1030700040680849C0F500704880012001F8040B41
:1030800042022046BDE83840FEF756BB38BD00007E
:1030900078010020440500200A4601464FF6FF73E0
:1030A0000148FEF797BB0000780100200348006844
:1030B000C16841F02001C160704700003801002064
:1030C0000A4601464FF6FF730148FEF783BB000036
:1030D000380100207047000070B5084D00248021A1
:1030E0002846FDF7CFFB00B9012420212846FDF733
:1030F000C9FB00B9A41C601C70BD000000080140A1
:1031000010B5002402210748FDF7BCFB00B90124DB
:103110004FF400710448FDF7B5FB00B9A41C20462C
:1031200010BD000000180140000C014010B5202126
:103130000248FDF7A7FB0249C87010BD000C014012
:103140002400002070B5002480210A48FDF79AFB76
:1031500000B90124084D20212846FDF793FB00B952
:10316000A41C08212846FDF78DFB00B9241D20462C
:1031700070BD0000001401400018014070B5094DF9
:1031800000244FF400512846FDF77CFB00B90124D0
:103190004FF400612846FDF775FB00B9A41C2046DA
:1031A00070BD00000018014070B5084D00244FF4B8
:1031B00000712846FDF766FB00B9012480212846EE
:1031C000FDF760FB00B9A41C204670BD001801404B
:1031D00010B508210748FDF755FB074C00B1012049
:1031E000A07008210548FDF74DFB002801D1022001
:1031F000A07010BD00100140240000200014014008
:103200002DE9F05FCA48CB4ECB4D4278B714CB4C7A
:10321000CB484FF400684FF4806B002A4FF4807164
:103220007ED0FDF72FFB18B9A07840F00100A07008
:103230004FF400713046FDF725FB18B9A07840F037
:103240000200A0704FF480713046FDF71BFB18B9E7
:10325000A07840F00400A07080213046FDF712FBFA
:1032600018B9A07840F00800A07040213046FDF762
:1032700009FB18B9A07840F01000A0704FF400418D
:103280002846FDF7FFFA18B9A07840F02000A0709A
:103290004FF480412846FDF7F5FA18B9A07840F0C0
:1032A0004000A0704FF400512846FDF7EBFA18B922
:1032B000A07840F08000A070B94639462846FDF756
:1032C000E1FA18B9E07840F00100E0704746414665
:1032D0002846FDF7D7FA18B9E07840F00200E07010
:1032E0004FF400712846FDF7CDFA18B9E07840F0A8
:1032F0000400E070DFF84882BA4639464046FDF7E0
:10330000C1FA18B9E07840F00800E0704F4649462D
:103310004046FDF7B7FA28B9E07840F0100000E029
:1033200043E0E07059463046FDF7ACFA18B9E07852
:1033300040F02000E07051463046FDF7A3FA18B97E
:10334000E07840F04000E07039463046FDF79AFAE8
:1033500018B9E07840F08000E07001212846FDF7C0
:1033600091FA18B9207940F0010020715946284699
:10337000FDF788FA18B9207940F00200207139462B
:103380007048FDF77FFA18B9207940F004002071E9
:103390004FF400416C48FDF775FA002803D12079FD
:1033A00040F008002071BDE8F09FFDF76BFA18B9F6
:1033B000A07C40F00100A0744FF400713046FDF78E
:1033C00061FA18B9A07C40F00200A0744FF480713B
:1033D0003046FDF757FA18B9A07C40F00400A074FD
:1033E00080213046FDF74EFA18B9A07C40F0080065
:1033F000A07440213046FDF745FA18B9A07C40F092
:103400001000A0744FF400412846FDF73BFA18B9AC
:10341000A07C40F02000A0744FF480412846FDF7C6
:1034200031FA18B9A07C40F04000A0744FF400516C
:103430002846FDF727FA18B9A07C40F08000A07458
:10344000B94639462846FDF71DFA18B9E07C40F028
:103450000100E074474641462846FDF713FA18B9C3
:10346000E07C40F00200E0744FF400712846FDF764
:1034700009FA18B9E07C40F00400E074DFF8C0807D
:10348000BA4639464046FDF7FDF918B9E07C40F0F0
:103490000800E0744F4649464046FDF7F3F918B975
:1034A000E07C40F01000E07459463046FDF7EAF940
:1034B00018B9E07C40F02000E07451463046FDF73A
:1034C000E1F918B9E07C40F04000E074394630463C
:1034D000FDF7D8F918B9E07C40F08000E0740121D4
:1034E0002846FDF7CFF918B9207D40F0010020757E
:1034F00059462846FDF7C6F918B9207D40F002006C
:10350000207539460F48FDF7BDF918B9207D40F008
:10351000040020754FF400410B48FDF7B3F9002873
:103520007FF441AF207D40F0080020753BE70000AC
:103530002400002000100140001401404C0900202C
:1035400000080140000C0140001801402DE9F04145
:10355000404E4FF40045002229463046FDF797F9CA
:103560003D4F20213846FDF78DF93C4C0221E0709B
:103570003846FDF787F9607029463046FDF782F935
:10358000D0B100202070FFF723FEFFF7F7FD207178
:10359000FFF70AFE6071FFF79FFDA071FFF7D2FDF4
:1035A000E071FFF7ADFD207240B1012808D002287C
:1035B0004AD003284BD006E00120E3E7C82001E011
:1035C0004FF4FA70E060FFF71BFEE17824A0FEF7ED
:1035D00081FF617828A0FEF77DFF21782FA0FEF7FC
:1035E00079FFA17834A0FEF775FF21793BA0FEF7A3
:1035F00071FF61793FA0FEF76DFFA17944A0FEF74E
:1036000069FFE17946A0FEF765FF4BA0E168FEF790
:1036100061FF514C51A0A178FEF75CFFE17858A002
:10362000FEF758FF21795FA0FEF754FFA17C66A04A
:10363000FEF750FFE17C6DA0FEF74CFF217DBDE859
:10364000F04173A0FEF746BF4FF47A70BAE740F638
:10365000B830B7E700080140000C0140240000200A
:103660000D0A6669726520696E666F206973202590
:103670003032640D0A0000006752657652533438C8
:1036800035414761746554797065466C616720699E
:103690007320253032640D0A000000006752533455
:1036A00038354141636B466C616720697320253072
:1036B00032640D0A0000000067525334383543531A
:1036C000656E644761746554797065466C61672006
:1036D000697320253032640D0A0000006747726F5D
:1036E00075704E756D626572206973202530326485
:1036F0000D0A0000674D616368696E654E756D6205
:10370000657220697320253032640D0A00000000C4
:1037100067416464722069732025640D0A0000000B
:1037200067466C6F6F724F666673657420697320AD
:10373000253032640D0A000067436F646553656E7F
:1037400064696E6754696D65436E742069732025E2
:103750003032640D0A0000004C0900206741636BA1
:1037600052533438354341736B446174614275661A
:10377000665B325D20697320253033640D0A0000DA
:103780006741636B52533438354341736B44617402
:1037900061427566665B335D206973202530336452
:1037A0000D0A00006741636B52533438354341734F
:1037B0006B44617461427566665B345D2069732099
:1037C000253033640D0A00006741636B525334386F
:1037D000354341736B44617461427566665B313891
:1037E0005D20697320253033640D0A006741636BE7
:1037F00052533438354341736B446174614275668A
:10380000665B31395D20697320253033640D0A0011
:103810006741636B52533438354341736B44617471
:1038200061427566665B32305D20697320253033F6
:10383000640D0A0038B504468DF800000223012209
:1038400069460248FDF7C6FF204638BD3801002012
:1038500010B503460078012203E09C5C6040521CD6
:1038600092B28A42F9D310BD10B503460078012206
:1038700003E09C5C6040521C92B28A42F9D310BDB6
:10388000FDF718F8FEF7B5FAFEF712F8FEF702F8A2
:10389000FEF748FAFEF720FAFEF76AFAFEF766F935
:1038A000FEF7A2F9FEF7DEF9FEF7E2F8FEF724F9DB
:1038B000FEF7B4F8FFF70EFCFFF702F8FFF7B8FBCE
:1038C000FFF7F4FBFFF742FE0C48FDF7C3FB0C4883
:1038D000FDF7C0FB002208210A48FCF7D8FF0A4C7C
:1038E000002500BFFFF704F82078C007FAD0257044
:1038F0006188201DFFF7D0FBF4E700008002002064
:10390000C0020020000C014044050020000000001F
:10391000000000000102030406070809000000007F
:1039200001020304443900080000002038000000B0
:10393000F42400087C39000838000020600D0000E5
:103940000425000800A24A04010000001000000045
:103950000000000000000000000000000000000067
:103960000000000000000000000000000000000057
:0C3970000000000000000000000000004B
:0400000508000131BD
:00000001FF
