:020000040800F2
:10000000C80D0020450100083F220008351E0008E9
:100010003D2200082F0200086529000800000000AA
:100020000000000000000000000000006322000843
:100030007302000800000000612200086522000829
:100040005F0100085F0100085F0100085F01000810
:100050005F0100085F0100085F0100085F01000800
:100060005F0100085F0100085F0100085F010008F0
:100070005F010008310200085F0100085F0100080D
:100080003D0200085F0100085F0100085F010008F1
:100090005F0100085F0100085F0100085F010008C0
:1000A0005F0100085F0100085F0100085F010008B0
:1000B0005F010008212300082D2300085F010008CC
:1000C0005F0100085F0100085F0100085F01000890
:1000D0005F010008D9270008352900084D290008CC
:1000E0005F0100085F0100085F0100085F01000870
:1000F0005F0100085F0100085F0100085F01000860
:100100005F0100085F010008392300085F01000853
:100110005F0100085F0100085F0100085F0100083F
:100120005F0100085F0100085F0100085F0100082F
:10013000DFF80CD000F05AF8004800477942000878
:10014000C80D00200648804706480047FEE7FEE746
:10015000FEE7FEE7FEE7FEE7FEE7FEE7FEE7FEE777
:10016000D922000831010008202A04DB203A21FAB4
:1001700002F00021704721FA02F3D040C2F12002C0
:1001800091400843194670472DE9F05F054600206D
:1001900092469B4688460646814640241BE02846F8
:1001A000414647462246FFF7DFFF53465A46C01AEC
:1001B000914110D311461846224600F029F82D1A15
:1001C00067EB01084F4622460120002100F020F88D
:1001D00017EB00094E41201EA4F10104DFDC484664
:1001E00031462A464346BDE8F09F0000064C074DC5
:1001F00006E0E06840F0010394E8070098471034F7
:10020000AC42F6D3FFF798FF84430008A4430008EC
:10021000202A04DB203A00FA02F1002070479140C6
:10022000C2F1200320FA03F3194390407047FEE720
:10023000014800F015BA000064020020014800F0F7
:100240000FBA00002002002030B590F84050012481
:10025000AC40C56B6C60046863604368102B036836
:1002600003D099600068C26030BD9A600068C160C8
:1002700030BD70472DE9F047DFF89C80D8F820109A
:100280004CF250390143CFB2C1F30726C1F3074501
:100290000C0E484600F00AF900283BD11F49C861FE
:1002A00000F07CFB002835D1D8F8102042F0100275
:1002B000C8F81020FF2F07D0194801883943018062
:1002C000484600F0F3F8F8B9FF2E08D01448801C17
:1002D000018831430180484600F0E8F8A0B9FF2DBD
:1002E00008D00F48001D018829430180484600F0CE
:1002F000DDF848B9FF2C07D00948801D018821434B
:100300000180484600F0D2F8D8F8102022F0100200
:10031000C8F81020BDE8F08700200240400000200F
:1003200008F8FF1F2DE9F047DFF89C80D8F820106F
:100330004CF250398143CFB2C1F30726C1F30745D0
:100340000C0E484600F0B2F800283BD11F49C861A6
:1003500000F024FB002835D1D8F8102042F010021C
:10036000C8F81020FF2F07D01948018839400180B4
:10037000484600F09BF8F8B9FF2E08D01448801CBE
:10038000018831400180484600F090F8A0B9FF2D67
:1003900008D00F48001D018829400180484600F020
:1003A00085F848B9FF2C07D00948801D01882140F5
:1003B0000180484600F07AF8D8F8102022F01002A8
:1003C000C8F81020BDE8F08700200240400000205F
:1003D00008F8FF1F0449A520C96901F0020102299C
:1003E00000D10020704700000020024070B5064692
:1003F0004CF25035284600F059F8002820D1114918
:10040000C861114C206940F020002061206940F053
:1004100040002061284600F049F8216921F02001C0
:10042000216100280CD1206940F0100020610748AC
:100430000680284600F03AF8216921F01001216178
:1004400070BD0000400000200020024000F8FF1FA7
:1004500014480022C168CB06134904D5CA6942F08A
:100460000202CA611022C3685B0705D5CB6943F05D
:100470000103CB6142F00402C369DB0707D0CB69FB
:1004800043F00403CB61C16921F00101C161A2F510
:100490008071013901D0C2607047C16921F001014A
:1004A000C1617047002002404000002070B5054641
:1004B00000F05CFC0646114C09E0681C07D025B131
:1004C00000F054FC801BA84201D9032070BDE068F5
:1004D000C007F2D1E068800601D52020E060E06826
:1004E000C00605D4E069C00702D1E068400703D523
:1004F000FFF7AEFF012070BD002070BD002002405C
:1005000001680A6822F00E020A6001680A6822F097
:1005100001020A6090F84020C36B012101FA02F247
:100520005A6080F82110002180F82010084670479A
:100530002DE9F05F90F821100024022903D0042156
:100540008163012485E001680A6822F00E020A60D6
:1005500001680A6822F001020A603F4E3E4FB21560
:10056000DFF8F4C0DFF8F090DFF8ECA0DFF8E8B0D7
:10057000DFF8E4E00168783F13011502ACF1640C88
:10058000A9F15009AAF13C0AABF1280BAEF1140E07
:100590004FF48018B14227D9B9420ED0614512D02C
:1005A00049451DD0514518D0594518D0714501D144
:1005B000424615E0294EB14201D1012210E0274EFA
:1005C0001436B14201D110220AE0244E2836B1423D
:1005D00006D0224A3C32914201D11A4600E02A4616
:1005E0001E49091F0A602BE0B94213D0614517D09C
:1005F000494522D051451DD059451DD0714501D1E5
:1006000042461AE0B14202D14FF0807215E0134E1B
:10061000B14201D1012210E0104E1436B14201D195
:1006200010220AE00D4E2836B14206D00B4A3C3269
:10063000914201D11A4600E02A46074980394A60B2
:10064000012180F82110002180F82010416B01B1B8
:1006500088472046BDE8F09F800002400804024021
:100660002DE9F05FC16B0A6801680B68046C4FF0FC
:10067000040808FA04F8844D844E854FDFF814C24C
:10068000DFF81492DFF814A2DFF814B2DFF814E2F6
:1006900018EA020F65D05FEA437862D50A689206CD
:1006A00003D40A6822F004020A60DFF8F0814FF4F4
:1006B0008062016808F1140813011402414524D92D
:1006C000A9420DD0B1420FD0B9421AD0614515D020
:1006D000494515D0514501D1120312E0594501D1C8
:1006E00004220EE0714501D140220AE06D4D14351F
:1006F000A94206D06B4A2832914201D11A4600E045
:1007000022466749091F0A6029E0A94213D0B14275
:1007100015D0B94220D061451BD049451BD0514569
:1007200002D14FF4800217E0414502D14FF08062C0
:1007300012E0594501D104220EE0714501D1402259
:100740000AE0584D1435A94206D0564A2832914243
:1007500001D11A4600E022464B4908394A60C16A75
:1007600071E04FF0020808FA04F818EA020F70D09E
:100770005FEA83786DD50A68920606D40A6822F08B
:100780000A020A60012180F82110DFF810814FF47D
:100790000072016808F1140813011402414524D9BC
:1007A000A9420DD0B1420FD0B9421AD0614515D03F
:1007B000494515D0514501D1120312E0594501D1E7
:1007C00002220EE0714501D120220AE0354D143598
:1007D000A94206D0334A2832914201D11A4600E09C
:1007E00022462F49091F0A6029E0A94213D0B142CD
:1007F00015D0B94220D061451BD049451BD0514589
:1008000002D14FF4001217E0414502D14FF00072BF
:1008100012E0594501D102220EE0714501D120229A
:100820000AE0204D1435A94206D01E4A28329142D2
:1008300001D11A4600E02246134908394A600021D6
:1008400080F82010816A00291CD0BDE8F05F0847BD
:10085000FFE70825A540154214D01A0712D50A68EB
:1008600022F00E020A6090F84020C36B012101FAC9
:1008700002F25A60816380F82110002180F8201074
:10088000016BE0E7BDE8F09F080002401C00024059
:100890003000024044000240580002406C00024018
:1008A000080402401C04024030B560B11C4A0368D1
:1008B0001421934209D21B4A1A44B2FBF1F1890078
:1008C000016419490AE0012030BD154A52421A4418
:1008D000B2FBF1F18900016411490839C1630221B9
:1008E00080F821101A6843F6F0718A43F0E9011488
:1008F0002143D0E902452C43214304692143446943
:1009000021438469214311431960002141628162BE
:10091000C16201634163012242770177084630BD1D
:1009200008040240F8FFFDBF0000024070B5044615
:1009300090F82000002501280CD0012084F8200028
:1009400094F821600020012E06D084F820000225B2
:10095000284670BD022070BD022684F82160A06385
:100960002068066826F0010606602046FFF76CFC4A
:10097000E06A00282068016802D041F00E0106E01C
:1009800021F0040101602068016841F00A01016062
:100990002068016841F001010160D9E770B5FFF7F7
:1009A00019FDC5B24CF250363046FFF77FFD0028E6
:1009B00018D10D49C8610D4C206940F0200020611C
:1009C000206940F0400020613046FFF76FFD21694B
:1009D00021F020012161002804D12846BDE87040A3
:1009E000FFF704BD70BD0000400000200020024061
:1009F00070B50446064D07202060286AA060FFF706
:100A0000E9FC2074E869C0F38200607470BD0000E6
:100A100000200240054A06499042C86902D1C0F34D
:100A200087207047C0F387407047000004F8FF1F1D
:100A3000002002402DE9F0472D4D04460120297E7B
:100A400001290ED00121297621784FF00007C9072E
:100A50000DD060680128A06806D0FFF70BFCE8BB4A
:100A600005E00220BDE8F087FFF75CFCF7E721789E
:100A7000890703D5207CFFF7B9FC78BB21781D4E90
:100A800049074CF2503916D594F811804846FFF7C3
:100A90000DFD78B9EF61306940F010003061164902
:100AA00048F0880008804846FFF700FD316921F0D2
:100AB0001001316190B92178090716D5D4F8148056
:100AC000247E4846FFF7F2FC40B9EF61306940F000
:100AD00010003061A8F80040484600E005E0FFF74C
:100AE000E5FC316921F0100131612F76BAE7000091
:100AF000400000200020024002F8FF1F0348016967
:100B000041F0800101610020704700000020024098
:100B10000348016921F40071016100207047000061
:100B20000020024005480169890505D40449816017
:100B30000449816000207047012070470020024076
:100B400023016745AB89EFCD064900200A691206EB
:100B500007D5054A4A60054A4A600969090600D571
:100B6000012070470020024023016745AB89EFCD8B
:100B70002DE9F84FDFF8B8A100220AF1040B144662
:100B800001274FF00F090BF1040E00BF0B6807FAA5
:100B900004F52B40AB4274D1DFF898C14E68A6EB48
:100BA0000C0866452BD00DDC032E34D005DC36B3A3
:100BB000012E19D0022E2FD11BE0112E16D0122E8D
:100BC0002AD119E0B8F5881F19D006DCB8F5803FA6
:100BD00015D0B8F5801F1FD111E0B8F5001F0ED059
:100BE000B8F5041F18D10AE0CA6815E0CA68121DDA
:100BF00012E0CA6808320FE0CA680C320CE08A685A
:100C00002AB1012A4FF0080203D0456104E0042212
:100C100002E0056100E00022FF2B01D8064601E05A
:100C200000F104064FEA840501D9A5F12005D6F8A4
:100C300000C009FA05F82CEA080C02FA05F54CEA9E
:100C4000050CC6F800C04D68ED006AD53A4DAE6996
:100C500046F00106AE61AD6924F0030605F001051A
:100C60000095364D06EB050CDCF80850A6074FEA58
:100C7000167809FA08F6B543314EB04202D1002683
:100C80001AE04EE02F4EB04201D1012614E02E4E64
:100C9000B04201D102260FE02C4EB04201D1032612
:100CA0000AE02B4EB04201D1042605E0294EB042A5
:100CB00001D1052600E0062606FA08F62E43CCF8F8
:100CC00008604D68DAF80060ED03554601D51E4313
:100CD00000E09E432E604D68AD0305D5DBF8006053
:100CE0001E43CBF8006004E0DBF800509D43CBF8D6
:100CF00000504D68DEF80060ED02754601D51E43D8
:100D000000E09E432E604D68AD0205D5084D0C35C0
:100D10002E681E432E6004E0054E0C3635689D4358
:100D20003560641C102CFFF431AFBDE8F88F000073
:100D300000040140000011100010024000000140BA
:100D400000080140000C0140001001400014014067
:100D500000180140001C01408068084000D00120BC
:100D600070470AB1016170470904FBE701488068D8
:100D70007047000004000020024881680278114496
:100D80008160704704000020074810B5016841F0F9
:100D900010010160032000F095F8002000F006F833
:100DA00000F024F8002010BD0020024070B50D4D69
:100DB00004464FF47A712878B1FBF0F00A490968CB
:100DC000B1FBF0F000F025FB48B9102C07D200224F
:100DD0002146501E00F056F800206C6070BD0120C6
:100DE00070BD000004000020000000201D4808B570
:100DF000816941F001018161806900F0010000908A
:100E0000032000F05FF8002211466FF00B0000F0A5
:100E100039F8002211466FF00A0000F033F8002282
:100E200011466FF0090000F02DF800221146501F06
:100E300000F028F800221146101F00F023F80022CD
:100E40001146901E00F01EF800221146501E00F0C0
:100E500019F80548416821F0E06141F000714160F6
:100E600008BD0000001002400000014000F01F0219
:100E7000012191404009800000F1E020C0F80011FC
:100E800070470000F0B40E4B1B680C46C3F30223FE
:100E9000C3F10705042D00D90425191D072901D226
:100EA000002300E0DB1E012606FA05F1491E214061
:100EB00099409E40761E16403143F0BC01F0C0B907
:100EC0000CED00E0064900F0070208684FF6FF034A
:100ED000184040EA0220034A1043086070470000AF
:100EE0000CED00E00000FA052DE9F047DFF83C8149
:100EF00005460E46D8F8000000F00700B0420CD2BC
:100F0000D8F8001021F007013143C8F80010D8F8D4
:100F1000000000F00700B04263D12878444C8007FD
:100F200005D56068A96820F0F00008436060287863
:100F3000C00745D06868012816D02168022816D05D
:100F4000890700294DDA616821F0030101436160DE
:100F5000FFF70CFF6968074641F2883001290FD07E
:100F60000229814619D027E021688903E9E7890130
:100F7000E7E700BFFFF7FAFEC11B494501D918E0BA
:100F800081466068C0F381000128F3D118E000BFFA
:100F9000FFF7ECFEC11B49450BD86068C0F3810028
:100FA0000228F5D10CE000BFFFF7E0FEC11B494568
:100FB00002D90320BDE8F087606810F00C0FF3D170
:100FC000D8F80010404601F00701B1420BD9016882
:100FD00021F0070131430160006800F00700B042D2
:100FE00001D00120E6E72878400705D56068E96868
:100FF00020F4E060084360602878000706D5606848
:10100000296920F4605040EAC100606000F03CF8BB
:101010006168084AC1F30311515CC8400649086081
:101020000020FFF7C3FE0020C4E7000000200240BC
:10103000001002406C4300080000002001480068D6
:101040007047000000000020044805490068496816
:10105000044AC1F30221515CC840704700000020DF
:10106000001002407C4300080448054900684968B4
:10107000044AC1F3C221515CC840704700000020FF
:10108000001002407C43000812A185B00FC98DE812
:101090000F0014A0144A006804905168134801F02E
:1010A0000C03042B10D0082B0ED1C1F38343C903CA
:1010B0001DF803000AD5516804AAC1F34041515CF0
:1010C0000A4A5043B0FBF1F005B070470849484365
:1010D000FAE7000002030405060708090A0B0C0DD5
:1010E0000E0F1010010200000010024000127A00E2
:1010F00000093D002DE9F84F04460078B94DC007BE
:1011000048D06868C0F38100012807D06868C0F340
:101110008100022809D16868C00306D528688003C9
:1011200038D5606800286FD034E06068B0F5803F43
:101130000BD010B1B0F5A02F11D0286820F480306A
:101140002860286820F4802002E0286840F480307D
:101150002860606888B1FFF709FE064609E0286844
:1011600040F480202860F0E7FFF700FE801B642831
:1011700075D828688003F7D50CE0FFF7F7FD064621
:1011800005E000BFFFF7F2FD801B6428F0D8286857
:101190008003F7D42078944E80074FF001094FF078
:1011A00000083BD5686810F00C0F07D06868C0F3E2
:1011B0008100022809D16868C00306D42868800726
:1011C00014D5206901281FD110E02069B0B1C6F8FC
:1011D0000090FFF7CBFD074605E000BFFFF7C6FD17
:1011E000C01B0228C4D828688007F7D52868616921
:1011F00020F0F80040EAC10028600FE0C6F8008047
:10120000FFF7B4FD074606E0E9E000BFFFF7AEFDDB
:10121000C01B022823D828688007F7D4207800074D
:101220002CD57248A169D9B1C0F80090FFF79EFD96
:10123000074604E0FFF79AFDC01B02280FD8686A32
:101240008007F7D56A484FF4FA510068B0FBF1F017
:10125000009000BF0098411E0091FAD20EE080E09D
:10126000C0F80080FFF782FD074604E0FFF77EFD2F
:10127000C01B022875D8686A8007F7D42078400719
:1012800060D5E8690027C00008D4E86940F08050C4
:10129000E861E869012700F0805000905548016836
:1012A000C90513D40168834641F480710160FFF7DA
:1012B0005DFD824606E000BFFFF758FDA0EB0A0087
:1012C00064284ED8DBF80000C005F5D5E068012899
:1012D0000AD008B1052813D0286A20F0010028623E
:1012E000286A20F0040002E0286A40F00100286229
:1012F000E06841F2883B98B1FFF738FD82460BE089
:10130000286A40F004002862EEE700BFFFF72EFDD8
:10131000A0EB0A0159455AD8286A8007F6D50CE097
:10132000FFF724FD824605E0FFF720FDA0EB0A0150
:1013300059454CD8286A8007F6D41FB1E86920F0D7
:101340008050E861E06988B36968C1F381010229CE
:1013500045D00228C6F8608004D0FFF707FD044698
:1013600038E034E0FFF702FD074604E0FFF7FEFC3B
:10137000C01B02282BD828688001F7D4206AB0F55A
:10138000803F05D16868A16820F400300843686098
:10139000D4E908010843696821F4741108436860BE
:1013A000C6F86090FFF7E2FC044606E015E000BFD7
:1013B000FFF7DCFC001B022809D828688001F7D55C
:1013C0000BE000BFFFF7D2FC001B022802D903206C
:1013D000BDE8F88F28688001F4D40020F8E70120E8
:1013E000F6E7000000100240000042428004424242
:1013F00000000020007000404FF0E0210428086940
:1014000003D020F004000861704740F00400FAE7C0
:10141000704710B5401EB0F1807F01D3012010BD90
:101420004FF0E02460610F21601700F009FF0020F9
:10143000A06107202061002010BD10B5FFF7E8FF74
:1014400010BD7047704730B590F83C20012A20D07D
:10145000012280F83C20022380F83D3003685C685C
:1014600024F070045C6003685C680D682C435C6069
:1014700003689C6824F080049C6003689C68496849
:101480000C439C6080F83D20002180F83C10084609
:1014900030BD022030BD10B5040003D094F83D00EB
:1014A00010B107E0012010BD002084F83C00204668
:1014B00000F00CF8022084F83D00211D206800F0A7
:1014C00041FF012084F83D00002010BD08B5124AFC
:1014D00001681248914207D1C16941F00201C1611E
:1014E000C06900F0020009E00D4A914208D1C169CB
:1014F00041F00401C161C06900F00400009008BD22
:10150000084A9142FBD1C16941F00801C161C0693B
:1015100000F00800F2E70000000400400010024064
:1015200000080040000C00400168CA6842F0010257
:10153000CA600068016841F0010101600020704745
:1015400070B5044690F83C00012817D0012584F8B6
:101550003C50022084F83D002068826822F0770227
:1015600022F47F4282600868502837D00DDC2028A2
:1015700059D005DC88B3102841D151E0022070BD5C
:10158000302853D040283AD13FE060282ED0702830
:101590000BD0B0F5805F03D0B0F5005F2FD110E025
:1015A0002068816821F0070115E0CB68D1E90121AD
:1015B000206800F00DFF2168886840F0770088609F
:1015C0001DE0CB68D1E90121206800F001FF20680F
:1015D000816841F48041816011E01EE0CA68496879
:1015E000206800F007FF5021206806E0CA684968BB
:1015F000206800F010FF6021206800F0F3FE84F8FE
:101600003D50002084F83C0070BDCA6849682068DD
:1016100000F0F0FE40212068EFE700212068ECE7B1
:1016200010212068E9E720212068E6E730212068C2
:10163000E3E7704770B50446006801694FF00005A4
:10164000C943890715D4C168C943890711D4E91E64
:10165000016101202077206880698007204602D040
:10166000FFF7E7FF04E000F098F8204600F096F856
:10167000257720680169C943490717D4C168C94360
:10168000490713D46FF0040101610220207720681C
:10169000806910F4407F204602D0FFF7CAFF04E0C3
:1016A00000F07BF8204600F079F825772068016982
:1016B000C943090716D4C168C943090712D46FF09A
:1016C00008010161042020772068C0698007204656
:1016D00002D0FFF7AEFF04E000F05FF8204600F014
:1016E0005DF8257720680169C943C90617D4C16828
:1016F000C943C90613D46FF0100101610820207797
:101700002068C06910F4407F204602D0FFF791FFA7
:1017100004E000F042F8204600F040F82577206809
:101720000169C943C90708D1C168C943C90704D1C0
:10173000891E0161204600F033F820680169C94321
:10174000090609D4C168C943090605D46FF08001B0
:1017500001612046FFF775FE20680169C94349060B
:1017600009D4C168C943490605D46FF0400101613D
:10177000204600F015F920680169C94389060BD499
:10178000C168C943890607D46FF020010161204672
:10179000BDE87040FFF756BE70BD7047704700004F
:1017A0002DE9F04F06466C48DFF8B0B16C4CDFF81D
:1017B000B4A187B04FF00108B04266D16A48DFF8A3
:1017C000AC91002501786A4F022922D13978491C51
:1017D000C9B2397063291CD93D70664A05700A2167
:1017E0005318605C13F80A3C18436054491CC9B292
:1017F0001229F5D31A201318215C13F81A3C194347
:101800002154401CC0B22228F5D389F8008015600D
:101810005560B8884FF48071401C80B2B88014289D
:1018200001D8002204E0782801D9BD8003E001221C
:101830005046FFF796FA787868B14F480188491EFC
:1018400089B201800A2906D205807D700022082114
:101850005846FFF786FA49490878B0B148480288E7
:10186000521E92B20280052A0FD2464A157089F89C
:1018700000500D7005804448BD7000220570102195
:101880005846FFF76EFA01F0D3FA4048B04260D1F3
:1018900002F08CF93E4E3F4D307808B1287878BB85
:1018A0000022042157465046FFF75BFA3A48027877
:1018B000FF20022A05D102216054491CC9B2222905
:1018C000FAD3012A05D102216054491CC9B2122958
:1018D000FAD32AB912216054491CC9B22229FAD379
:1018E00001F094FA02F0DAF8307848B1287801284B
:1018F00006D1012204213846FFF733FA01F098FAA5
:1019000002F0CCF810215846FFF726FA002820D123
:10191000287800281DD185F8008001220421504636
:10192000FFF71FFAFFF710F9FFF7FCF86846FFF71B
:101930005FF8FFF733F81948059028788DF81800FC
:10194000082000906846FFF775F8FFF7E1F8FFF709
:10195000D5F807B0BDE8F08FA8020020000C0140C8
:101960007D090020001401401F0000201C00002001
:101970001000002074090020200000202400002016
:10198000220000201B0000201D000020E802002093
:101990002B0000201A0000202A00002004F8FF1F5E
:1019A000704710B504460068416994F83920C1F3C6
:1019B000C011212A0BD151B1416921F0800141614F
:1019C000206B08B1FEF79CFD204600F094FD2068D6
:1019D000416994F83A20C1F38011222A0BD151B108
:1019E000416921F040014161606B08B1FEF788FD5B
:1019F000204600F072FD002010BD704770B50268EF
:101A000004461068D168536910F00F0F50D003F0EE
:101A1000010501F4907635435DD0C20705D0CA05B3
:101A200003D5E26B42F00102E263420705D5DA0713
:101A300003D0E26B42F00202E263820705D5DA07C7
:101A400003D0E26B42F00402E263020705D5DA0735
:101A500003D0E26B42F00802E263E26B002A33D06B
:101A6000800604D5880602D5204600F04DFD20688A
:101A70004069E16BC0F38010090700D428B3204609
:101A800000F02BFD2068416949061AD5416921F013
:101A900040014161606BA0B11B494163606BFEF77F
:101AA00047FD002810D0606B416BBDE870400847CF
:101AB000830610D58B060ED52046BDE8704000F099
:101AC00023BD2046FFF799FF70BD2046FFF795FF25
:101AD0000020E06370BD030606D50B0604D5204642
:101AE000BDE8704000F014BE4006F3D54806F1D5BD
:101AF000D168204621F04001D160202184F83910BE
:101B000000F097F970BD00003B24000870B5040098
:101B100004D094F83900002510B106E0012070BD12
:101B200084F83850204600F023F8242084F8390047
:101B30002068C16821F40051C160204600F030FDEA
:101B40002068016921F4904101612068416921F018
:101B50002A0141612068C16841F40051C160E56318
:101B6000202084F8390084F83A00002070BD00007D
:101B70002DE9F0470546DFF830C1036800244B48E3
:101B800002210322DFF8288180274A4E86B04FF0D9
:101B9000400963451ED1836943F4804383618069B2
:101BA000CDE9009100F48040CDE90320694640462C
:101BB000FEF7DEFFCDE90074694640460294FEF769
:101BC000D7FF706840F0E06040F00400706006B03D
:101BD000BDE8F087DFF8E0C04FF0200A634531D15F
:101BE000C36943F40033C361C069CDE900A100F4C7
:101BF0000030D046CDE90320DFF8C0A0694650464A
:101C0000FEF7B6FFCDE90094694650460294FEF710
:101C1000AFFF706840F0E06040F008007060294E4F
:101C20002748C6E90004C6E902473461C6E9054809
:101C30003046F461FEF738FE08B1B6212FE06E633E
:101C40007562C4E7204EB342C1D1C36943F4802317
:101C5000C361C069039200F4802004903015CDE97F
:101C6000000169464046FEF783FFF014CDE9000409
:101C7000694640460294FEF77BFF124E10484436F8
:101C80003C38C6E90004C6E902473461C6E9054AA2
:101C90003046F461FEF708FE0028D0D0E1210BA009
:101CA00000F061FECBE70000003801400010024068
:101CB000000C0140000001400044004000140140BD
:101CC0006C00024020020020004800402E2E2F53BE
:101CD00072632F75736172742E630000F8B5044649
:101CE00090F83A0020283CD1C1B3BAB394F8380038
:101CF000012836D0012084F83800A162A285002591
:101D0000E563222084F83A00636B17489862636B9E
:101D10001648D862636B16481863606B13464563B8
:101D20000846666B216802463046091DFEF7FEFD37
:101D3000206801684168009184F83850C16841F416
:101D40008071C1602068416941F0010141612068F2
:101D5000416941F0400141610020F8BDFFE70120E9
:101D6000FBE70220F9E7000095240008D1240008D1
:101D70004B240008704770472DE9F843044690F85B
:101D800039001F4616460D46202850D1A5B19EB1F8
:101D900094F8380001284AD0012084F838004FF028
:101DA0000008C4F83C80212084F83900FEF7DEFFEB
:101DB000A6848146E68426E00120BDE8F883E08C15
:101DC000401EE084A0684B46B0F5805F4FF00002F3
:101DD0004FF080012046009703D000F0CAFCE8B91C
:101DE0000DE000F0C6FCC8B928882168C0F30800DF
:101DF0004860206908B16D1C05E0AD1C03E0216856
:101E000015F8010B4860E08C0028D8D14B46002221
:101E100040212046009700F0ACFC08B10320CCE73D
:101E2000202084F8390084F838800020C5E702209B
:101E3000C3E77047FEE70000054808B5416941F077
:101E400001014161406900F00100009008BD0000FF
:101E500000100240F0B53D4885B0816941F0400175
:101E60008161816901F040010491816941F01001B3
:101E70008161816901F010010491816941F00401DF
:101E80008161816901F004010491816941F00801D7
:101E90008161816901F008010491816941F02001AB
:101EA000816180692A4E00F020004FF48275049011
:101EB000002229463046FEF754FF264F0022182103
:101EC0003846FEF74EFF00244FF6FF70CDE90004C0
:101ED000694621480294FEF74BFE41F6FF70CDE9BA
:101EE000000469461D480294FEF742FE41F6F27076
:101EF000CDE9000469461A480294FEF739FE43F220
:101F00002B30CDE90004694638460294FEF730FED6
:101F10001120CDE900500225694630460395FEF7B1
:101F200027FE4FF69960CDE90004694630460294D9
:101F3000FEF71EFE182000900120019069460395CF
:101F40003846FEF715FE05B0F0BD00000010024057
:101F500000140140000C0140001801400010014035
:101F60000008014010B5002211462520FEF78AFF27
:101F70002520FEF77BFF002211462620FEF782FF78
:101F80002620FEF773FF002211462720FEF77AFF76
:101F90002720FEF76BFF002211463220FEF772FF6A
:101FA0003220FEF763FF002211461D20FEF76AFF74
:101FB0001D20FEF75BFF002211461E20FEF762FF88
:101FC0001E20FEF753FF002211460D20FEF75AFF98
:101FD0000D20FEF74BFF002211461020FEF752FFA6
:101FE000BDE810401020FEF741BF000010B51948B1
:101FF00086B01749016040F27F210024C0E9011436
:1020000040F2E731C0E9031480218161FFF743FA10
:1020100018B1412110A000F0A6FC4FF480500090B0
:1020200069460C48FFF78CFA18B147210AA000F066
:102030009AFC049404A907480594FFF704FA0028C1
:1020400003D04E2104A000F08EFC06B010BD0000AD
:1020500000040040A80200202E2E2F5372632F741C
:10206000696D2E630000000010B5194886B017494D
:10207000016040F27F210024C0E9011440F69F7105
:10208000C0E9031480218161FFF705FA18B16021CE
:1020900010A000F068FC4FF48050009069460C4896
:1020A000FFF74EFA18B166210AA000F05CFC049418
:1020B00004A907480594FFF7C6F9002803D06D214D
:1020C00004A000F050FC06B010BD00000008004065
:1020D000E80200202E2E2F5372632F74696D2E6339
:1020E0000000000010B5174886B015490024C0E96B
:1020F00000148460C460802104618161FFF7CBF922
:1021000018B17F2110A000F02EFC4FF480500090F9
:1021100069460C48FFF714FA18B185210AA000F0AF
:1021200022FC049404A907480594FFF78CF90028C1
:1021300003D08C2104A000F016FC06B010BD0000F6
:10214000000C0040280300202E2E2F5372632F74A2
:10215000696D2E63000000000D4810B50B49016049
:102160004FF416414160002181600C22C160C0E93A
:1021700004128161C161FFF7C9FC002805D0BDE8E8
:102180001040472103A000F0EEBB10BD0038014015
:10219000600100202E2E2F5372632F7573617274AD
:1021A0002E6300000D4810B50B4901604FF4165125
:1021B0004160002181600C22C160C0E9041281618C
:1021C000C161FFF7A3FC002805D0BDE810405A21EB
:1021D00003A000F0C8BB10BD00440040A0010020D7
:1021E0002E2E2F5372632F75736172742E6300004D
:1021F0000D4810B50B4901604FF4165141600021A4
:1022000081600C22C160C0E904128161C161FFF7E5
:102210007DFC002805D0BDE810406D2103A000F032
:10222000A2BB10BD00480040E00100202E2E2F531D
:1022300072632F75736172742E630000FEE770473E
:102240000907090E002806DA00F00F0000F1E0206F
:1022500080F8141D704700F1E02080F800147047EA
:102260007047704710B5FEF787FDBDE81040FFF7D7
:10227000E4B830B58FB002250120049000951020FD
:10228000059000244FF46010CDE90840079568469A
:10229000FEF730FF00B1FEE70F20CDE90A054FF44D
:1022A0008060CDE90C4002210AA80E94FEF71CFEC6
:1022B00000B1FEE7FEF7C2FE4FF47A71B0FBF1F019
:1022C000FFF7A7F80420FFF797F800221146501EE9
:1022D000FEF7D8FD0FB030BD0D48016841F0010197
:1022E000016041680B4A1140416001680A4A11408F
:1022F0000160016821F480210160416821F4FE0140
:1023000041604FF41F0181600449C00308607047B9
:10231000001002400000FFF8FFFFF6FE08ED00E0AD
:102320000148FFF787B90000A80200200148FFF725
:1023300081B90000E80200200148FFF77BB90000E6
:1023400028030020F0B502681C4B1D4D1D4E1E4F8A
:102350001E4C4FF0804C984209D0A04207D06045F7
:1023600005D0A84203D0B04201D0B84204D122F037
:10237000700E4A6842EA0E02984209D0A04207D085
:10238000604505D0A84203D0B04201D0B84203D185
:1023900022F44075CA682A4322F080054A692A431C
:1023A00002608A68C2620A688262984201D0A042D2
:1023B00001D10969016301214161F0BD002C014097
:1023C0000004004000080040000C004000340140C0
:1023D00010B5846842EA032224F47F440A4322436E
:1023E000826010BD826822F070020A4342F0070149
:1023F0008160704710B5036A046A24F00104046226
:10240000846924F0F00444EA021423F00A020A4327
:102410008461026210BD10B5036A23F010030362E9
:102420008369046A23F4704343EA023224F0A00370
:1024300043EA01118261016210BD10B5406A0021BA
:10244000C185C184FFF7D9FA10BD70B5446A206810
:10245000406994F83910C0F3C0100025212904D137
:1024600018B1E584204600F046F82068406994F8E9
:102470003A10C0F38010222904D118B1E585204616
:1024800000F02BF8E06B40F01000E0632046FFF70F
:10249000B4FA70BD10B50146406A0968096889063A
:1024A00013D40021C1850168CA6822F48072CA6011
:1024B00001684A6922F001024A6101684A6922F012
:1024C00040024A61202180F83A10FFF753FC10BD0A
:1024D00010B5406AFFF74FFC10BD0168CA6822F4CE
:1024E0009072CA6001684A6922F001024A612021A3
:1024F00080F83A1070470168CA6822F0C002CA60CA
:10250000202180F83910704710B590F83A10222930
:1025100001D0022010BD8168B1F5805F11D0016942
:10252000002901681FD0496801F07F03816A4A1CB5
:1025300082620B70C18D491E0904090CC18518D037
:102540002BE00269816A002A0268526805D0D2B283
:102550000A80816A491C8162ECE7C2F308020A80A2
:10256000816A891CF7E74A68816A4B1C83620A709A
:10257000E0E70168CA6822F02002CA600168CA6800
:1025800022F48072CA6001684A6922F001024A613D
:10259000202180F83A10FFF7EDFB002010BD00006D
:1025A0002DE9F041044600680169E26821F44051D8
:1025B000114301612169A0680843616908432168EA
:1025C000CA6841F20C639A430243CA6020684169B9
:1025D000A26921F44071114341614C49206864258E
:1025E000322688423CD1FEF73FFD00EBC00101EBF3
:1025F000001061688900B0FBF1F7FEF735FD00EBD4
:10260000C00101EB00106168B0468900B0FBF1F039
:10261000B0FBF5F06FF01801484307EB800106EBC3
:102620000110B0FBF5F000F0F006FEF71DFD00EB29
:10263000C00101EB001061688900B0FBF1F0B0FB54
:10264000F5F006EB0016FEF70FFD00EBC00101EB05
:10265000001061688900B0FBF1F7FEF705FD3BE073
:10266000FEF7F2FC00EBC00101EB0010616889008D
:10267000B0FBF1F7FEF7E8FC00EBC00101EB001046
:102680006168B0468900B0FBF1F0B0FBF5F06FF087
:102690001801484307EB800106EB0110B0FBF5F091
:1026A00000F0F006FEF7D0FC00EBC00101EB0010DB
:1026B00061688900B0FBF1F0B0FBF5F006EB0016A5
:1026C000FEF7C2FC00EBC00101EB0010616889005D
:1026D000B0FBF1F7FEF7B8FC00EBC00101EB001016
:1026E00061688900B0FBF1F0B0FBF5F06FF0180104
:1026F000484307EB800108EB0110B0FBF5F02168BF
:1027000000F00F0030448860BDE8F08100380140DF
:1027100090F83910212901D0022070478168B1F565
:10272000805F016A0BD04A1C02620268097851601E
:10273000C18C491E0904090CC1840ED017E0098818
:102740000268C1F30801516001690029016A02D0E1
:10275000491C0162ECE7891CFBE70168CA6822F0AA
:102760008002CA600068C16841F04001C160002079
:1027700070472DE9F041984617460E460446069DDF
:102780001DE0681C1BD02DB1FEF7F0FAA0EB08008D
:10279000A84214D92068C16821F4D071C1602068B2
:1027A000416921F001014161202084F8390084F859
:1027B0003A00002084F838000320BDE8F08120684A
:1027C000006836EA000004D00020B842D9D00020CA
:1027D000F3E70120F9E700002DE9F04748480068D9
:1027E0000068C04380064CD446480068474DC2B2DA
:1027F000454801275A2A418800D119B10378012B95
:1028000001D003E007706A54491C418089B2404EF0
:102810000024022930D08046052932D104213B48CA
:1028200001F011FDA8F8024088F8004029798142A2
:1028300027D168783178884223D1DFF8D880DFF853
:10284000D890DFF8D8A098F8000030B189F800706F
:10285000012210215046FEF784FA314D287830B11C
:1028600089F80070012210215046FEF77AFA2D48AF
:102870002D4F017839B10CE03178914201D044807C
:102880000470BDE8F08702203C54401CC0B21228FE
:10289000FAD3012905D112203C54401CC0B2222891
:1028A000FAD35A2038703078787024211E4801F00D
:1028B000CAFC87F8240025211B4801F0B9F82878C4
:1028C00098F80010194E4746014302D03178491C50
:1028D00031700028D5D030780728D2D900F096FA88
:1028E0002C703470387820B9002210215046FEF741
:1028F00038FA0F4801780129C3D102210170C0E7DD
:102900006001002004380140160000206000002013
:102910002E0000201B00002024000020000C01409D
:102920001C0000202A0000207D0900201200002049
:102930001F00002010B5044801F042F8BDE8104027
:102940000148FFF75BB80000A001002010B5044863
:1029500000F0F4FEBDE810400148FFF74FB800005A
:10296000E0010020FEE7FEE70FB4054B10B503A918
:10297000044A029800F018F810BC5DF814FB00003F
:10298000114200083800002002E008C8121F08C1E8
:10299000002AFAD170477047002001E001C1121FE0
:1029A000002AFBD1704700002DE9FF4F8DB00F4684
:1029B0000546002606E025280BD0DDE90F129047DA
:1029C0006D1C761C28780028F5D111B03046BDE882
:1029D000F08F0024A246A1460122EC4900E0044306
:1029E00015F8013F203B02FA03F00842F7D128789E
:1029F0002A2810D06FF02F022878A0F13001092981
:102A000014D80AEB8A0102EB410144F0020400EB06
:102A1000010A6D1CF0E701CF5FEA000A03D544F418
:102A20000054CAF1000A44F002046D1C28782E28D4
:102A300017D115F8010F44F004042A280ED06FF0C6
:102A40002F022878A0F1300109290AD809EB890161
:102A500002EB410100EB01096D1CF2E757F8049B02
:102A60006D1C28786C280FD006DC4C2817D06828FD
:102A70000DD06A2814D104E0742810D07A280FD120
:102A80000DE044F400140AE044F4801401E044F43E
:102A900040146978814202D104F580146D1C6D1CCC
:102AA0002A786E2A1FD00CDC632A31D004DC002A7D
:102AB0008BD0582A11D1A3E0642A68D0692A0CD19E
:102AC00065E0732A2ED004DC6F2A73D0702A04D1FB
:102AD0009BE0752A6FD0782A6ED01046DDE90F1280
:102AE0009047761C50E1C4F30250022806D0032818
:102AF00009D0042801CF09D0066045E101CFF117C4
:102B0000C0E9006140E101CF06803DE106703BE194
:102B100017F8040B8DF8000000208DF80100EB463B
:102B2000012003E057F804BB4FF0FF3061074FF07E
:102B3000000102D40DE008F10101884649450FDA91
:102B40008045F8DB1BF808100029F4D108E008F1F3
:102B5000010188468142FADB1BF808100029F6D1F2
:102B6000DDE90F23AAEB08008146214600F036F983
:102B7000304400EB080604E0DDE90F121BF8010BFE
:102B80009047B8F10108F7D221464846F7E00A21FC
:102B9000C4F302534FF0000B0891022B04D001CF75
:102BA000C117032B09D00AE0FF1D27F00707F7E83C
:102BB000020108E032E01FE020E000B2C117042B60
:102BC00001D140B2C117031E71F1000307DA4FF0C3
:102BD000000CD0EB0C006CEB01012D2302E023056F
:102BE00004D52B238DF82430012303E0E30701D023
:102BF0002023F7E7984658E00A2110E010210EE064
:102C000010204FF0000B08900CE010214FF0000B4B
:102C100044F004044FF00809089103E008214FF044
:102C2000000B0891C4F30253022B04D001CF002102
:102C3000032B06D006E0FF1D27F00707F7E8020187
:102C400003E080B2042B00D1C0B24FF0000823078C
:102C50002BD5702A07D0DDF820C08CF0100C5CEA70
:102C60000B0C05D00EE040238DF82430012308E042
:102C700050EA010306D030238DF824308DF825204A
:102C800002239846DDF820C08CF0080C5CEA0B0C9F
:102C90000BD150EA010301D1630706D530238DF82B
:102CA00024304FF00108A9F10109582A04D038A2B4
:102CB0000B9208AA0A920BE03AA2F9E75B46089A3F
:102CC000FDF762FA0B9B9B5C0A9A521E0A921370E4
:102CD00050EA0102F2D10A98ADEB000000F1200B9E
:102CE000600702D524F4803401E04FF00109D94592
:102CF00002DDA9EB0B0000E0002000EB0B014144DA
:102D00000890AAEB010AE00306D4DDE90F2321466F
:102D1000504600F063F806444FF0000908E009A9A6
:102D200011F80900DDE90F12904709F10109761C3D
:102D3000C145F4DBE0030CD5DDE90F232146504605
:102D400000F04CF8064404E0DDE90F123020904713
:102D5000761C0899481E08900029F5DC08E00A98BE
:102D60000A990078491C0A91DDE90F129047761CF8
:102D7000BBF10001ABF1010BF1DC21465046DDE96E
:102D80000F2300F019F806446D1C1BE6092801000A
:102D900030313233343536373839616263646566D1
:102DA0000000000030313233343536373839414293
:102DB00043444546000000002DE9F041044600254B
:102DC0001E461746880404D405E039462020B04743
:102DD0006D1C641EF9D52846BDE8F0812DE9F0414F
:102DE000044600251E469046C80301D5302700E062
:102DF0002027880404D505E041463846B0476D1CBD
:102E0000641EF9D52846BDE8F08100000A20074974
:102E100000220A54401CC0B21228FAD31A200A54C5
:102E2000401CC0B22228FAD3704700007D09002060
:102E30000220044900220A54401CC0B22228FAD3BE
:102E400000F0B4BE7D0900201CB502208DF8000002
:102E5000C3208DF8010020208DF80200E1208DF8BC
:102E6000030003208DF804000521684600F08AFC69
:102E70001CBD0000084810B50068C16841F0100191
:102E8000C1604FF4007205490348FEF727FF04496B
:102E90000120087010BD0000E00100206C0300203C
:102EA0001A0000202DE9F04FDFF80084002689B0D9
:102EB00098F8000037463546C00777D00020FC4917
:102EC00088F8000098F80D00097888426ED0F9481B
:102ED000007800286AD098F80400022866D198F893
:102EE0000500DFF8D4B3F54C08F215694FF0010A7C
:102EF000C32812D098F80610A02957D1F04A1278AA
:102F0000002A53D008F23A66022232707070B17013
:102F100003200146B8F802200FE2EA48007818B111
:102F200098F80B10814241D1E748007818B198F821
:102F30000C1081423AD198F82800032836D1232179
:102F400008F1040001F08BF998F8271081422DD187
:102F500098F80F00882802D0992828D02FE098F8F8
:102F6000100008282BD198F81100082827D100203C
:102F7000207002460421D548FDF7F3FEFDF7E4FD7D
:102F8000FDF7D0FD6846FDF733FDFDF707FDD0489E
:102F9000059020788DF81800082000906846FDF70D
:102FA00049FDFDF7B5FDFDF7A9FD8EE08FE098F82E
:102FB0001000092803D198F81100092865D01B20BA
:102FC00008EB0001097909B1761CB6B2401C80B249
:102FD0002328F5D3012E7ED9BE4884F801A00088AD
:102FE000208198F81FC09BF8001099F802200CFA75
:102FF00001FE42EA0E0289F8022098F820C099F8F2
:1030000003200CFA01FB42EA0B0289F8032098F82E
:1030100021C0484699F804200CFA01F942EA090255
:10302000027198F8227042798F403A43427198F8C1
:10303000235082798D402A43827198F82430C279D6
:103040008B401A43C27198F8252090F808C08A4036
:103050004CEA020C80F808C098F8268090F809C065
:1030600008FA01F84CEA080C80F809C0817C41EAB2
:103070000E018174C17C41EA0B01C174017D41EAFA
:1030800009010175417D394396E084F800A00122D1
:1030900004218E48FDF765FEFDF756FDFDF742FD64
:1030A0006846FDF7A5FCFDF779FC89480590207876
:1030B0008DF81800082000906846FDF7BBFCFDF76E
:1030C00027FDFDF71BFDFFF7B3FEFFF7BDFE09B0BF
:1030D000BDE8F08FFFE71B2008EB0001097901B183
:1030E0000F46401C80B22328F6D300264FEA060084
:1030F00027FA00F1C90701D0761CB6B2401C80B295
:103100000828F5D3012E66D9724884F801A00088FA
:10311000208198F81F709BF8001099F802208F40CA
:103120003A4389F8022098F820C099F803200CFA55
:1031300001FB42EA0B0289F8032098F821C04846B7
:1031400099F804200CFA01F942EA0902027198F890
:1031500022C042790CFA01FE42EA0E02427198F84E
:10316000235082798D402A43827198F82430C279A5
:103170008B401A43C27198F8252090F808C08A4005
:103180004CEA020C80F808C098F8268090F809C034
:1031900008FA01F84CEA080C80F809C0817C394330
:1031A0008174C17C41EA0B01C174017D41EA0901CE
:1031B0000175417D41EA0E014175817D294381758B
:1031C000C17D1943C175017E11430176417E41EAFB
:1031D000080141765DE084F802A07820208148460D
:1031E00098F81F509BF8001010F80A2F05FA01F903
:1031F00042EA0902027098F8202043788A4013437B
:10320000437098F8215083788D402B430795837045
:1032100098F82250C37805FA01FE43EA0E03C37002
:1032200098F82350037905FA01FB43EA0B03037175
:1032300098F8243045798B401D43457198F825C096
:1032400085790CFA01FC45EA0C05857198F8267021
:10325000C5798F403D43C571017C41EA0901017484
:10326000417C11434174817C079D29438174C17C59
:1032700041EA0E01C174017D41EA0B010175417DF6
:1032800019434175817D41EA0C018175C17D394346
:10329000C175012208211048FDF763FDFFF7D4FD39
:1032A000012E01D03C20E08034E2000068030020C1
:1032B000290000202B0000202F0000201A000020F1
:1032C000280000202C0000202D00002000140140C8
:1032D00004F8FF1F34000020000C014008EB010C33
:1032E0009CF80430102B09D03354401C80B2491C88
:1032F00089B21A2809D01E280CD00EE09CF805309F
:103300003354401C80B2891CF2E7737EEA2B04D14F
:10331000012502E0737FE12B05D035B1012D07D0E7
:10332000022D0AD107E0022507E01E2805D113E08F
:103330001F2802D10EE020280ED08A42CED81E28A7
:1033400004D0002D3FF4C3AE1F2803D0012DF9D0C7
:10335000202801D0022DF5D0707F032801D0002D48
:10336000F0D0B07F032801D0012DEBD0F07F0328EF
:1033700001D0022DE6D025B1012D08D0022D14D0A8
:103380000DE01C21E74800F06AFF317F04E01D21B9
:10339000E44800F064FF717F81427FF498AE307C96
:1033A000882808D099282BD030E01E21DD4800F075
:1033B00056FFB17FF0E7707C082827D1B07C082841
:1033C00024D10020207002460421D748FDF7C9FC13
:1033D000FDF7BAFBFDF7A6FB6846FDF709FBFDF715
:1033E000DDFAD248059020788DF81800082000906A
:1033F0006846FDF71FFBFDF78BFBFDF77FFB66E6DD
:10340000707C092802D1B07C092805D02DB3012D8C
:1034100029D0022D27D02FE084F800A0012204211A
:10342000C148FDF79EFCFDF78FFBFDF77BFB68466F
:10343000FDF7DEFAFDF7B2FABC48059020788DF86A
:103440001800082000906846FDF7F4FAFDF760FBCD
:10345000FDF754FBFFF7ECFC39E6707E02280BD138
:10346000F07EB17E03E0B07E02286CD004E000EB79
:1034700001200004000CC2D000250820315C09B1F5
:103480006D1CADB2401C80B21028F7D3012D5DD960
:10349000A74884F801A00088208196F808C09BF80E
:1034A000001099F802200CFA01F842EA080289F8A3
:1034B0000220777A99F803208F403A4389F8032055
:1034C00096F80AC099F804200CFA01FE42EA0E02AE
:1034D000484689F8042096F80BC042790CFA01FBA3
:1034E00042EA0B02427196F80CC082790CFA01F99B
:1034F00042EA09028271737BC2798B401A43C2711E
:10350000B27B90F808C08A404CEA020C80F808C0F0
:10351000F67B90F809C08E404CEA060C80F809C092
:10352000817C41EA08018174C17C3943C174017D09
:1035300041EA0E010175417D41EA0B014175817D32
:1035400041EA090173E0307FF17E90E70820315CA9
:1035500009B1CFB203E0401C80B21028F7D3002598
:103560004FEA050027FA00F1C90701D06D1CADB282
:10357000401C80B20828F5D3012D63D96C4884F82B
:1035800001A00088208196F808C09BF8001099F8E7
:1035900002200CFA01FC42EA0C0289F8022096F89B
:1035A000098099F8032008FA01FB42EA0B0289F826
:1035B000032096F80A80484699F8042008FA01F991
:1035C00042EA0902027196F80B80427908FA01FE7C
:1035D00042EA0E024271377B82798F403A43827110
:1035E000737BC2798B401A43C271B27B90F808801A
:1035F0008A4048EA020880F80880F67B90F8098043
:103600008E4048EA060880F80980817C41EA0C0176
:103610008174C17C41EA0B01C174017D41EA090159
:103620000175417D41EA0E014175817D3943817506
:10363000C17D1943C175017E11430176417E31433D
:1036400041765DE084F802A078202081484696F813
:1036500008C09BF8001010F80A2F0CFA01F842EA93
:1036600008020270737A42788B401A43427096F8CF
:103670000AC082780CFA01FE42EA0E02827096F8C5
:103680000BC0C2780CFA01FB42EA0B02C27096F83A
:103690000CC002790CFA01F942EA09020271777B47
:1036A00042798F403A434271B27B90F806C08A401B
:1036B0004CEA020C80F806C0F67B90F807C08E40FA
:1036C0004CEA060C80F807C0017C41EA080101744D
:1036D000417C19434174817C41EA0E018174C17CB3
:1036E00041EA0B01C174017D41EA09010175417D87
:1036F00039434175817D11438175C17D3143C17568
:10370000012208210B48FDF72CFBFFF79DFB012D43
:103710007FF4C8AD084984F803A03C2081F800A0DC
:10372000E080D4E4A20900200014014004F8FF1F47
:1037300034000020000C01401100002038B5006862
:103740000068C043C00617D40C4C2068016840686C
:1037500000902046FEF725F9606B00684068084934
:10376000C0F500704880012001F8040B4202204699
:10377000BDE83840FEF7B2BA38BD0000E0010020D5
:10378000680300200A4601464FF6FF730148FEF722
:10379000F3BA0000E00100201CB555238DF800307D
:1037A000FF238DF8013003238DF80230AA238DF812
:1037B000041000228DF8050001208DF806008DF818
:1037C000033068469DF80710835C521C1944D2B23E
:1037D0008DF80710072AF5D3082100F015F91CBD54
:1037E00005480068C16841F01001C1604FF40072E3
:1037F00002490148FEF772BAA001002070050020BE
:103800002DE9F047DFF8A881002698F80000C007EE
:103810007ED0002088F8000066480078002877D025
:10382000DFF894A19AF80000002871D098F80400FD
:1038300055286DD198F80500FF2869D198F8070040
:1038400008F211475D4D0124A7F10909A8281BD0F2
:10385000A9285DD10C2108F1040000F0E7FC98F8DC
:103860001010884254D198F80900C1095AD029781B
:1038700000F07F00091ABA7A04FA01F00243BA7222
:10388000B97E0143B97661E0132108F1040000F02C
:10389000CDFC98F8171088423AD198F80B004246B0
:1038A000C1090CD0297800F07F00081AB97A04FA0F
:1038B00000F00143B972B97E0143B97613E029786B
:1038C000491E0844C11700EB5171C1F3C7033B44C3
:1038D00021F00701411A9F7A04FA01F007439F7211
:1038E000997E014399768AF802402B7892F80EC0AF
:1038F00099F800705D1E0CFA05FC47EA0C07484673
:1039000089F800709719855DFF7B9F403D4300E07B
:103910004BE08555761CF6B2082EF3D38AF80540A5
:10392000117A3CE02978491E0844C11700EB517117
:10393000C1F3C7023A4421F00701411A937A04FA0D
:1039400001F003439372917E014391768AF802401D
:1039500098F80D0008B3C1090BD0297800F07F005A
:10396000081A99F8003004FA00F0034389F800308F
:1039700011E029784318491E0844C117DB0800EB01
:10398000517121F00701401A19F8035004FA00F0B0
:10399000054309F803508AF8054098F8081098F88C
:1039A0000700BDE8F047FFF7F7BEBDE8F08700006D
:1039B0006C0500202B0000201A00002030000020A1
:1039C00038B500680068C043C00617D40C4C2068A6
:1039D0000168406800902046FDF7E3FF606B0068D7
:1039E00040680849C0F500704880012001F8040BC8
:1039F00042022046BDE83840FEF770B938BD0000ED
:103A0000A00100206C0500200A4601464FF6FF7316
:103A10000148FEF7B1B90000A0010020034800688A
:103A2000C16841F02001C1607047000060010020C2
:103A30000A4601464FF6FF730148FEF79DB90000A4
:103A4000600100207047000070B5084D00248021FF
:103A50002846FDF781F900B9012420212846FDF709
:103A60007BF900B9A41C601C70BD00000008014077
:103A700010B5002402210748FDF76EF900B90124B2
:103A80004FF400710448FDF767F900B9A41C204603
:103A900010BD000000180140000C014010B52021AD
:103AA0000248FDF759F90249C87010BD000C0140E9
:103AB0002800002070B5002480210A48FDF74CF949
:103AC00000B90124084D20212846FDF745F900B929
:103AD000A41C08212846FDF73FF900B9241D204603
:103AE00070BD0000001401400018014070B5094D80
:103AF00000244FF400512846FDF72EF900B90124A7
:103B00004FF400612846FDF727F900B9A41C2046B0
:103B100070BD00000018014070B5084D00244FF43E
:103B200000712846FDF718F900B9012480212846C4
:103B3000FDF712F900B9A41C204670BD0018014021
:103B400070B50C4D00244FF480612846FDF704F950
:103B500000B901244FF400712846FDF7FDF800B9C3
:103B6000A41C4FF400510448FDF7F6F800B9241DD9
:103B7000204670BD00080140000C014010B508212E
:103B80000748FDF7E9F8074C00B10120A0700821B3
:103B90000548FDF7E1F8002801D10220A07010BD12
:103BA0000010014028000020001401402DE9F05FC2
:103BB000CA48CB4ECB4D4278B714CB4CCB484FF4D0
:103BC00000684FF4806B002A4FF480717ED0FDF7BF
:103BD000C3F818B9A07840F00100A0704FF400714C
:103BE0003046FDF7B9F818B9A07840F00200A0708F
:103BF0004FF480713046FDF7AFF818B9A07840F067
:103C00000400A07080213046FDF7A6F818B9A0780E
:103C100040F00800A07040213046FDF79DF818B92B
:103C2000A07840F01000A0704FF400412846FDF746
:103C300093F818B9A07840F02000A0704FF48041AC
:103C40002846FDF789F818B9A07840F04000A07028
:103C50004FF400512846FDF77FF818B9A07840F0DE
:103C60008000A070B94639462846FDF775F818B9A6
:103C7000E07840F00100E070474641462846FDF7F5
:103C80006BF818B9E07840F00200E0704FF4007172
:103C90002846FDF761F818B9E07840F00400E070BC
:103CA000DFF84882BA4639464046FDF755F818B95C
:103CB000E07840F00800E0704F4649464046FDF786
:103CC0004BF828B9E07840F0100000E043E0E070E5
:103CD00059463046FDF740F818B9E07840F020002A
:103CE000E07051463046FDF737F818B9E07840F0FB
:103CF0004000E07039463046FDF72EF818B9E078FC
:103D000040F08000E07001212846FDF725F818B941
:103D1000207940F00100207159462846FDF71CF833
:103D200018B9207940F00200207139467048FDF73B
:103D300013F818B9207940F0040020714FF40041C5
:103D40006C48FDF709F8002803D1207940F00800FD
:103D50002071BDE8F09FFCF7FFFF18B9A07C40F090
:103D60000100A0744FF400713046FCF7F5FF18B95C
:103D7000A07C40F00200A0744FF480713046FCF744
:103D8000EBFF18B9A07C40F00400A07480213046FD
:103D9000FCF7E2FF18B9A07C40F00800A0744021B5
:103DA0003046FCF7D9FF18B9A07C40F01000A07491
:103DB0004FF400412846FCF7CFFF18B9A07C40F033
:103DC0002000A0744FF480412846FCF7C5FF18B9C5
:103DD000A07C40F04000A0744FF400512846FCF74E
:103DE000BBFF18B9A07C40F08000A074B9463946EA
:103DF0002846FCF7B1FF18B9E07C40F00100E07400
:103E0000474641462846FCF7A7FF18B9E07C40F03A
:103E10000200E0744FF400712846FCF79DFF18B9CA
:103E2000E07C40F00400E074DFF8C080BA46394618
:103E30004046FCF791FF18B9E07C40F00800E074C0
:103E40004F4649464046FCF787FF18B9E07C40F0F2
:103E50001000E07459463046FCF77EFF18B9E07C4C
:103E600040F02000E07451463046FCF775FF18B969
:103E7000E07C40F04000E07439463046FCF76CFFCF
:103E800018B9E07C40F08000E07401212846FCF77E
:103E900063FF18B9207D40F001002075594628467F
:103EA000FCF75AFF18B9207D40F002002075394612
:103EB0000F48FCF751FF18B9207D40F00400207531
:103EC0004FF400410B48FCF747FF00287FF441AF57
:103ED000207D40F0080020753BE70000280000200E
:103EE00000100140001401407D090020000801403D
:103EF000000C0140001801402DE9F041444E4FF400
:103F00000045002229463046FCF72BFF414F202177
:103F10003846FCF721FF404C0221E0703846FCF7A0
:103F20001BFF607029463046FCF716FFE8B1002001
:103F30002070FFF723FEFFF7D9FD2071FFF7ECFD9E
:103F40006071FFF781FDA071FFF7B4FDE071FFF72D
:103F5000F7FD2072FFF78CFD607240B1012808D098
:103F600002284ED003284FD006E00120E0E7782059
:103F700001E04FF47A70E060FFF718FEE17827A0C7
:103F8000FEF7F2FC61782BA0FEF7EEFC217832A060
:103F9000FEF7EAFCA17837A0FEF7E6FC21793EA007
:103FA000FEF7E2FC617942A0FEF7DEFCA17947A0B2
:103FB000FEF7DAFCE17949A0FEF7D6FC217A4DA0A4
:103FC000FEF7D2FC53A0E168FEF7CEFC594C5AA094
:103FD000A178FEF7C9FCE17860A0FEF7C5FC217965
:103FE00067A0FEF7C1FCA17C6EA0FEF7BDFCE17CE2
:103FF00075A0FEF7B9FC217DBDE8F0417BA0FEF77E
:10400000B3BC40F6B830B6E741F27070B3E70000D9
:1040100000080140000C0140280000200D0A6669DC
:10402000726520696E666F20697320253032640DD9
:104030000A000000675265765253343835414761B3
:10404000746554797065466C61672069732025300A
:1040500032640D0A00000000675253343835414184
:10406000636B466C616720697320253032640D0AEA
:10407000000000006752533438354353656E64477F
:1040800061746554797065466C6167206973202599
:104090003032640D0A0000006747726F75704E750C
:1040A0006D62657220697320253032640D0A00004C
:1040B000674D616368696E654E756D6265722069F2
:1040C0007320253032640D0A0000000067416464EB
:1040D000722069732025640D0A00000067466C6F2A
:1040E0006F724F6666736574206973202530326481
:1040F0000D0A0000674E61676976617465466C6FF2
:104100006F724F6666736574206973202530326460
:104110000D0A000067436F646553656E64696E67DE
:1041200054696D65436E7420697320253032640DC7
:104130000A0000007D0900206741636B5253343848
:10414000354341736B44617461427566665B325DF1
:1041500020697320253033640D0A00006741636BCA
:1041600052533438354341736B4461746142756610
:10417000665B335D20697320253033640D0A0000CF
:104180006741636B52533438354341736B446174F8
:1041900061427566665B345D206973202530336447
:1041A0000D0A00006741636B525334383543417345
:1041B0006B44617461427566665B31385D2069737A
:1041C00020253033640D0A006741636B5253343845
:1041D000354341736B44617461427566665B313986
:1041E0005D20697320253033640D0A006741636BDD
:1041F00052533438354341736B4461746142756680
:10420000665B32305D20697320253033640D0A000F
:1042100038B504468DF800000223012269460248A1
:10422000FDF7AAFD204638BD6001002010B5034609
:104230000022104604E09C5C521C2044C0B292B2A2
:104240008A42F8D310BD10B503460078012203E07E
:104250009C5C6040521C92B28A42F9D310BD10B5EA
:1042600003460078012203E09C5C6040521C92B23D
:104270008A42F9D310BD000088B0FCF785FDFDF738
:10428000F8FFFDF7E7FDFDF7D7FDFDF78BFFFDF725
:1042900063FFFDF7ADFFFDF7A9FEFDF7E5FEFDF7B6
:1042A00021FFFDF75FFEFFF7CDFBFEF7E3FDFFF714
:1042B00097FAFFF7B3FBFFF71FFE204D2846FCF7E8
:1042C000A9FB1F4CC0B20128207017D90120207013
:1042D000FCF73AFCFCF726FC6846FCF789FBFCF788
:1042E0005DFB059520788DF8180008200090684641
:1042F000FCF7A0FBFCF70CFCFCF700FC2846FCF7E5
:1043000089FBC1B221700FA0FEF72EFB1448FDF708
:104310000BF91448FDF708F9134C00220821204638
:10432000FCF71FFD002210212046FCF71AFD00BFFC
:10433000FEF7B8FDFFF764FAFAE7000004F8FF1F84
:104340001A000020674E656564466C6173684361BE
:104350007264466C6167206973202558200D0A003D
:10436000A8020020E8020020000C0140000000002C
:104370000000000001020304060708090000000015
:1043800001020304A4430008000000203C000000D8
:1043900088290008E04300083C0000208C0D000044
:1043A0009829000800A24A04010000001000000043
:1043B00000000000000000000000000000000000FD
:1043C00000000000000000000000000000000000ED
:1043D00000000000000000000000000000000000DD
:0400000508000131BD
:00000001FF
