:020000040800F2
:10000000C80D0020450100083B220008211E000801
:10001000392200082F0200086129000800000000B2
:100020000000000000000000000000005F22000847
:1000300073020008000000005D2200086122000831
:100040005F0100085F0100085F0100085F01000810
:100050005F0100085F0100085F0100085F01000800
:100060005F0100085F0100085F0100085F010008F0
:100070005F010008310200085F0100085F0100080D
:100080003D0200085F0100085F0100085F010008F1
:100090005F0100085F0100085F0100085F010008C0
:1000A0005F0100085F0100085F0100085F010008B0
:1000B0005F0100081D230008292300085F010008D4
:1000C0005F0100085F0100085F0100085F01000890
:1000D0005F010008D52700083129000849290008D8
:1000E0005F0100085F0100085F0100085F01000870
:1000F0005F0100085F0100085F0100085F01000860
:100100005F0100085F010008352300085F01000857
:100110005F0100085F0100085F0100085F0100083F
:100120005F0100085F0100085F0100085F0100082F
:10013000DFF80CD000F05AF800480047E142000810
:10014000C80D00200648804706480047FEE7FEE746
:10015000FEE7FEE7FEE7FEE7FEE7FEE7FEE7FEE777
:10016000D522000831010008202A04DB203A21FAB8
:1001700002F00021704721FA02F3D040C2F12002C0
:1001800091400843194670472DE9F05F054600206D
:1001900092469B4688460646814640241BE02846F8
:1001A000414647462246FFF7DFFF53465A46C01AEC
:1001B000914110D311461846224600F029F82D1A15
:1001C00067EB01084F4622460120002100F020F88D
:1001D00017EB00094E41201EA4F10104DFDC484664
:1001E00031462A464346BDE8F09F0000064C074DC5
:1001F00006E0E06840F0010394E8070098471034F7
:10020000AC42F6D3FFF798FF4C4400086C4400085A
:10021000202A04DB203A00FA02F1002070479140C6
:10022000C2F1200320FA03F3194390407047FEE720
:10023000014800F015BA000064020020014800F0F7
:100240000FBA00002002002030B590F84050012481
:10025000AC40C56B6C60046863604368102B036836
:1002600003D099600068C26030BD9A600068C160C8
:1002700030BD70472DE9F047DFF89C80D8F820109A
:100280004CF250390143CFB2C1F30726C1F3074501
:100290000C0E484600F00AF900283BD11F49C861FE
:1002A00000F07CFB002835D1D8F8102042F0100275
:1002B000C8F81020FF2F07D0194801883943018062
:1002C000484600F0F3F8F8B9FF2E08D01448801C17
:1002D000018831430180484600F0E8F8A0B9FF2DBD
:1002E00008D00F48001D018829430180484600F0CE
:1002F000DDF848B9FF2C07D00948801D018821434B
:100300000180484600F0D2F8D8F8102022F0100200
:10031000C8F81020BDE8F08700200240400000200F
:1003200008F8FF1F2DE9F047DFF89C80D8F820106F
:100330004CF250398143CFB2C1F30726C1F30745D0
:100340000C0E484600F0B2F800283BD11F49C861A6
:1003500000F024FB002835D1D8F8102042F010021C
:10036000C8F81020FF2F07D01948018839400180B4
:10037000484600F09BF8F8B9FF2E08D01448801CBE
:10038000018831400180484600F090F8A0B9FF2D67
:1003900008D00F48001D018829400180484600F020
:1003A00085F848B9FF2C07D00948801D01882140F5
:1003B0000180484600F07AF8D8F8102022F01002A8
:1003C000C8F81020BDE8F08700200240400000205F
:1003D00008F8FF1F0449A520C96901F0020102299C
:1003E00000D10020704700000020024070B5064692
:1003F0004CF25035284600F059F8002820D1114918
:10040000C861114C206940F020002061206940F053
:1004100040002061284600F049F8216921F02001C0
:10042000216100280CD1206940F0100020610748AC
:100430000680284600F03AF8216921F01001216178
:1004400070BD0000400000200020024000F8FF1FA7
:1004500014480022C168CB06134904D5CA6942F08A
:100460000202CA611022C3685B0705D5CB6943F05D
:100470000103CB6142F00402C369DB0707D0CB69FB
:1004800043F00403CB61C16921F00101C161A2F510
:100490008071013901D0C2607047C16921F001014A
:1004A000C1617047002002404000002070B5054641
:1004B00000F05CFC0646114C09E0681C07D025B131
:1004C00000F054FC801BA84201D9032070BDE068F5
:1004D000C007F2D1E068800601D52020E060E06826
:1004E000C00605D4E069C00702D1E068400703D523
:1004F000FFF7AEFF012070BD002070BD002002405C
:1005000001680A6822F00E020A6001680A6822F097
:1005100001020A6090F84020C36B012101FA02F247
:100520005A6080F82110002180F82010084670479A
:100530002DE9F05F90F821100024022903D0042156
:100540008163012485E001680A6822F00E020A60D6
:1005500001680A6822F001020A603F4E3E4FB21560
:10056000DFF8F4C0DFF8F090DFF8ECA0DFF8E8B0D7
:10057000DFF8E4E00168783F13011502ACF1640C88
:10058000A9F15009AAF13C0AABF1280BAEF1140E07
:100590004FF48018B14227D9B9420ED0614512D02C
:1005A00049451DD0514518D0594518D0714501D144
:1005B000424615E0294EB14201D1012210E0274EFA
:1005C0001436B14201D110220AE0244E2836B1423D
:1005D00006D0224A3C32914201D11A4600E02A4616
:1005E0001E49091F0A602BE0B94213D0614517D09C
:1005F000494522D051451DD059451DD0714501D1E5
:1006000042461AE0B14202D14FF0807215E0134E1B
:10061000B14201D1012210E0104E1436B14201D195
:1006200010220AE00D4E2836B14206D00B4A3C3269
:10063000914201D11A4600E02A46074980394A60B2
:10064000012180F82110002180F82010416B01B1B8
:1006500088472046BDE8F09F800002400804024021
:100660002DE9F05FC16B0A6801680B68046C4FF0FC
:10067000040808FA04F8844D844E854FDFF814C24C
:10068000DFF81492DFF814A2DFF814B2DFF814E2F6
:1006900018EA020F65D05FEA437862D50A689206CD
:1006A00003D40A6822F004020A60DFF8F0814FF4F4
:1006B0008062016808F1140813011402414524D92D
:1006C000A9420DD0B1420FD0B9421AD0614515D020
:1006D000494515D0514501D1120312E0594501D1C8
:1006E00004220EE0714501D140220AE06D4D14351F
:1006F000A94206D06B4A2832914201D11A4600E045
:1007000022466749091F0A6029E0A94213D0B14275
:1007100015D0B94220D061451BD049451BD0514569
:1007200002D14FF4800217E0414502D14FF08062C0
:1007300012E0594501D104220EE0714501D1402259
:100740000AE0584D1435A94206D0564A2832914243
:1007500001D11A4600E022464B4908394A60C16A75
:1007600071E04FF0020808FA04F818EA020F70D09E
:100770005FEA83786DD50A68920606D40A6822F08B
:100780000A020A60012180F82110DFF810814FF47D
:100790000072016808F1140813011402414524D9BC
:1007A000A9420DD0B1420FD0B9421AD0614515D03F
:1007B000494515D0514501D1120312E0594501D1E7
:1007C00002220EE0714501D120220AE0354D143598
:1007D000A94206D0334A2832914201D11A4600E09C
:1007E00022462F49091F0A6029E0A94213D0B142CD
:1007F00015D0B94220D061451BD049451BD0514589
:1008000002D14FF4001217E0414502D14FF00072BF
:1008100012E0594501D102220EE0714501D120229A
:100820000AE0204D1435A94206D01E4A28329142D2
:1008300001D11A4600E02246134908394A600021D6
:1008400080F82010816A00291CD0BDE8F05F0847BD
:10085000FFE70825A540154214D01A0712D50A68EB
:1008600022F00E020A6090F84020C36B012101FAC9
:1008700002F25A60816380F82110002180F8201074
:10088000016BE0E7BDE8F09F080002401C00024059
:100890003000024044000240580002406C00024018
:1008A000080402401C04024030B560B11C4A0368D1
:1008B0001421934209D21B4A1A44B2FBF1F1890078
:1008C000016419490AE0012030BD154A52421A4418
:1008D000B2FBF1F18900016411490839C1630221B9
:1008E00080F821101A6843F6F0718A43F0E9011488
:1008F0002143D0E902452C43214304692143446943
:1009000021438469214311431960002141628162BE
:10091000C16201634163012242770177084630BD1D
:1009200008040240F8FFFDBF0000024070B5044615
:1009300090F82000002501280CD0012084F8200028
:1009400094F821600020012E06D084F820000225B2
:10095000284670BD022070BD022684F82160A06385
:100960002068066826F0010606602046FFF76CFC4A
:10097000E06A00282068016802D041F00E0106E01C
:1009800021F0040101602068016841F00A01016062
:100990002068016841F001010160D9E770B5FFF7F7
:1009A00019FDC5B24CF250363046FFF77FFD0028E6
:1009B00018D10D49C8610D4C206940F0200020611C
:1009C000206940F0400020613046FFF76FFD21694B
:1009D00021F020012161002804D12846BDE87040A3
:1009E000FFF704BD70BD0000400000200020024061
:1009F00070B50446064D07202060286AA060FFF706
:100A0000E9FC2074E869C0F38200607470BD0000E6
:100A100000200240054A06499042C86902D1C0F34D
:100A200087207047C0F387407047000004F8FF1F1D
:100A3000002002402DE9F0472D4D04460120297E7B
:100A400001290ED00121297621784FF00007C9072E
:100A50000DD060680128A06806D0FFF70BFCE8BB4A
:100A600005E00220BDE8F087FFF75CFCF7E721789E
:100A7000890703D5207CFFF7B9FC78BB21781D4E90
:100A800049074CF2503916D594F811804846FFF7C3
:100A90000DFD78B9EF61306940F010003061164902
:100AA00048F0880008804846FFF700FD316921F0D2
:100AB0001001316190B92178090716D5D4F8148056
:100AC000247E4846FFF7F2FC40B9EF61306940F000
:100AD00010003061A8F80040484600E005E0FFF74C
:100AE000E5FC316921F0100131612F76BAE7000091
:100AF000400000200020024002F8FF1F0348016967
:100B000041F0800101610020704700000020024098
:100B10000348016921F40071016100207047000061
:100B20000020024005480169890505D40449816017
:100B30000449816000207047012070470020024076
:100B400023016745AB89EFCD064900200A691206EB
:100B500007D5054A4A60054A4A600969090600D571
:100B6000012070470020024023016745AB89EFCD8B
:100B70002DE9F84FDFF8B8A100220AF1040B144662
:100B800001274FF00F090BF1040E00BF0B6807FAA5
:100B900004F52B40AB4274D1DFF898C14E68A6EB48
:100BA0000C0866452BD00DDC032E34D005DC36B3A3
:100BB000012E19D0022E2FD11BE0112E16D0122E8D
:100BC0002AD119E0B8F5881F19D006DCB8F5803FA6
:100BD00015D0B8F5801F1FD111E0B8F5001F0ED059
:100BE000B8F5041F18D10AE0CA6815E0CA68121DDA
:100BF00012E0CA6808320FE0CA680C320CE08A685A
:100C00002AB1012A4FF0080203D0456104E0042212
:100C100002E0056100E00022FF2B01D8064601E05A
:100C200000F104064FEA840501D9A5F12005D6F8A4
:100C300000C009FA05F82CEA080C02FA05F54CEA9E
:100C4000050CC6F800C04D68ED006AD53A4DAE6996
:100C500046F00106AE61AD6924F0030605F001051A
:100C60000095364D06EB050CDCF80850A6074FEA58
:100C7000167809FA08F6B543314EB04202D1002683
:100C80001AE04EE02F4EB04201D1012614E02E4E64
:100C9000B04201D102260FE02C4EB04201D1032612
:100CA0000AE02B4EB04201D1042605E0294EB042A5
:100CB00001D1052600E0062606FA08F62E43CCF8F8
:100CC00008604D68DAF80060ED03554601D51E4313
:100CD00000E09E432E604D68AD0305D5DBF8006053
:100CE0001E43CBF8006004E0DBF800509D43CBF8D6
:100CF00000504D68DEF80060ED02754601D51E43D8
:100D000000E09E432E604D68AD0205D5084D0C35C0
:100D10002E681E432E6004E0054E0C3635689D4358
:100D20003560641C102CFFF431AFBDE8F88F000073
:100D300000040140000011100010024000000140BA
:100D400000080140000C0140001001400014014067
:100D500000180140001C01408068084000D00120BC
:100D600070470AB1016170470904FBE701488068D8
:100D70007047000004000020024881680278114496
:100D80008160704704000020074810B5016841F0F9
:100D900010010160032000F095F8002000F006F833
:100DA00000F024F8002010BD0020024070B50D4D69
:100DB00004464FF47A712878B1FBF0F00A490968CB
:100DC000B1FBF0F000F025FB48B9102C07D200224F
:100DD0002146501E00F056F800206C6070BD0120C6
:100DE00070BD000004000020000000201D4808B570
:100DF000816941F001018161806900F0010000908A
:100E0000032000F05FF8002211466FF00B0000F0A5
:100E100039F8002211466FF00A0000F033F8002282
:100E200011466FF0090000F02DF800221146501F06
:100E300000F028F800221146101F00F023F80022CD
:100E40001146901E00F01EF800221146501E00F0C0
:100E500019F80548416821F0E06141F000714160F6
:100E600008BD0000001002400000014000F01F0219
:100E7000012191404009800000F1E020C0F80011FC
:100E800070470000F0B40E4B1B680C46C3F30223FE
:100E9000C3F10705042D00D90425191D072901D226
:100EA000002300E0DB1E012606FA05F1491E214061
:100EB00099409E40761E16403143F0BC01F0BEB909
:100EC0000CED00E0064900F0070208684FF6FF034A
:100ED000184040EA0220034A1043086070470000AF
:100EE0000CED00E00000FA052DE9F047DFF83C8149
:100EF00005460E46D8F8000000F00700B0420CD2BC
:100F0000D8F8001021F007013143C8F80010D8F8D4
:100F1000000000F00700B04263D12878444C8007FD
:100F200005D56068A96820F0F00008436060287863
:100F3000C00745D06868012816D02168022816D05D
:100F4000890700294DDA616821F0030101436160DE
:100F5000FFF70CFF6968074641F2883001290FD07E
:100F60000229814619D027E021688903E9E7890130
:100F7000E7E700BFFFF7FAFEC11B494501D918E0BA
:100F800081466068C0F381000128F3D118E000BFFA
:100F9000FFF7ECFEC11B49450BD86068C0F3810028
:100FA0000228F5D10CE000BFFFF7E0FEC11B494568
:100FB00002D90320BDE8F087606810F00C0FF3D170
:100FC000D8F80010404601F00701B1420BD9016882
:100FD00021F0070131430160006800F00700B042D2
:100FE00001D00120E6E72878400705D56068E96868
:100FF00020F4E060084360602878000706D5606848
:10100000296920F4605040EAC100606000F03CF8BB
:101010006168084AC1F30311515CC8400649086081
:101020000020FFF7C3FE0020C4E7000000200240BC
:10103000001002403444000800000020014800680D
:101040007047000000000020044805490068496816
:10105000044AC1F30221515CC840704700000020DF
:1010600000100240444400080448054900684968EB
:10107000044AC1F3C221515CC840704700000020FF
:10108000001002404444000812A185B00FC98DE849
:101090000F0014A0144A006804905168134801F02E
:1010A0000C03042B10D0082B0ED1C1F38343C903CA
:1010B0001DF803000AD5516804AAC1F34041515CF0
:1010C0000A4A5043B0FBF1F005B070470849484365
:1010D000FAE7000002030405060708090A0B0C0DD5
:1010E0000E0F1010010200000010024000127A00E2
:1010F00000093D002DE9F84F04460078B94DC007BE
:1011000048D06868C0F38100012807D06868C0F340
:101110008100022809D16868C00306D528688003C9
:1011200038D5606800286FD034E06068B0F5803F43
:101130000BD010B1B0F5A02F11D0286820F480306A
:101140002860286820F4802002E0286840F480307D
:101150002860606888B1FFF709FE064609E0286844
:1011600040F480202860F0E7FFF700FE801B642831
:1011700075D828688003F7D50CE0FFF7F7FD064621
:1011800005E000BFFFF7F2FD801B6428F0D8286857
:101190008003F7D42078944E80074FF001094FF078
:1011A00000083BD5686810F00C0F07D06868C0F3E2
:1011B0008100022809D16868C00306D42868800726
:1011C00014D5206901281FD110E02069B0B1C6F8FC
:1011D0000090FFF7CBFD074605E000BFFFF7C6FD17
:1011E000C01B0228C4D828688007F7D52868616921
:1011F00020F0F80040EAC10028600FE0C6F8008047
:10120000FFF7B4FD074606E0E9E000BFFFF7AEFDDB
:10121000C01B022823D828688007F7D4207800074D
:101220002CD57248A169D9B1C0F80090FFF79EFD96
:10123000074604E0FFF79AFDC01B02280FD8686A32
:101240008007F7D56A484FF4FA510068B0FBF1F017
:10125000009000BF0098411E0091FAD20EE080E09D
:10126000C0F80080FFF782FD074604E0FFF77EFD2F
:10127000C01B022875D8686A8007F7D42078400719
:1012800060D5E8690027C00008D4E86940F08050C4
:10129000E861E869012700F0805000905548016836
:1012A000C90513D40168834641F480710160FFF7DA
:1012B0005DFD824606E000BFFFF758FDA0EB0A0087
:1012C00064284ED8DBF80000C005F5D5E068012899
:1012D0000AD008B1052813D0286A20F0010028623E
:1012E000286A20F0040002E0286A40F00100286229
:1012F000E06841F2883B98B1FFF738FD82460BE089
:10130000286A40F004002862EEE700BFFFF72EFDD8
:10131000A0EB0A0159455AD8286A8007F6D50CE097
:10132000FFF724FD824605E0FFF720FDA0EB0A0150
:1013300059454CD8286A8007F6D41FB1E86920F0D7
:101340008050E861E06988B36968C1F381010229CE
:1013500045D00228C6F8608004D0FFF707FD044698
:1013600038E034E0FFF702FD074604E0FFF7FEFC3B
:10137000C01B02282BD828688001F7D4206AB0F55A
:10138000803F05D16868A16820F400300843686098
:10139000D4E908010843696821F4741108436860BE
:1013A000C6F86090FFF7E2FC044606E015E000BFD7
:1013B000FFF7DCFC001B022809D828688001F7D55C
:1013C0000BE000BFFFF7D2FC001B022802D903206C
:1013D000BDE8F88F28688001F4D40020F8E70120E8
:1013E000F6E7000000100240000042428004424242
:1013F00000000020007000404FF0E0210428086940
:1014000003D020F004000861704740F00400FAE7C0
:10141000704710B5401EB0F1807F01D3012010BD90
:101420004FF0E02460610F21601700F007FF0020FB
:10143000A06107202061002010BD10B5FFF7E8FF74
:1014400010BD7047704730B590F83C20012A20D07D
:10145000012280F83C20022380F83D3003685C685C
:1014600024F070045C6003685C680D682C435C6069
:1014700003689C6824F080049C6003689C68496849
:101480000C439C6080F83D20002180F83C10084609
:1014900030BD022030BD10B5040003D094F83D00EB
:1014A00010B107E0012010BD002084F83C00204668
:1014B00000F00CF8022084F83D00211D206800F0A7
:1014C0003FFF012084F83D00002010BD08B5124AFE
:1014D00001681248914207D1C16941F00201C1611E
:1014E000C06900F0020009E00D4A914208D1C169CB
:1014F00041F00401C161C06900F00400009008BD22
:10150000084A9142FBD1C16941F00801C161C0693B
:1015100000F00800F2E70000000400400010024064
:1015200000080040000C00400168CA6842F0010257
:10153000CA600068016841F0010101600020704745
:1015400070B5044690F83C00012817D0012584F8B6
:101550003C50022084F83D002068826822F0770227
:1015600022F47F4282600868502837D00DDC2028A2
:1015700059D005DC88B3102841D151E0022070BD5C
:10158000302853D040283AD13FE060282ED0702830
:101590000BD0B0F5805F03D0B0F5005F2FD110E025
:1015A0002068816821F0070115E0CB68D1E90121AD
:1015B000206800F00BFF2168886840F077008860A1
:1015C0001DE0CB68D1E90121206800F0FFFE206812
:1015D000816841F48041816011E01EE0CA68496879
:1015E000206800F005FF5021206806E0CA684968BD
:1015F000206800F00EFF6021206800F0F1FE84F802
:101600003D50002084F83C0070BDCA6849682068DD
:1016100000F0EEFE40212068EFE700212068ECE7B3
:1016200010212068E9E720212068E6E730212068C2
:10163000E3E7704770B50446006801694FF00005A4
:10164000C943890715D4C168C943890711D4E91E64
:10165000016101202077206880698007204602D040
:10166000FFF7E7FF04E000F098F8204600F096F856
:10167000257720680169C943490717D4C168C94360
:10168000490713D46FF0040101610220207720681C
:10169000806910F4407F204602D0FFF7CAFF04E0C3
:1016A00000F07BF8204600F079F825772068016982
:1016B000C943090716D4C168C943090712D46FF09A
:1016C00008010161042020772068C0698007204656
:1016D00002D0FFF7AEFF04E000F05FF8204600F014
:1016E0005DF8257720680169C943C90617D4C16828
:1016F000C943C90613D46FF0100101610820207797
:101700002068C06910F4407F204602D0FFF791FFA7
:1017100004E000F042F8204600F040F82577206809
:101720000169C943C90708D1C168C943C90704D1C0
:10173000891E0161204600F033F820680169C94321
:10174000090609D4C168C943090605D46FF08001B0
:1017500001612046FFF775FE20680169C94349060B
:1017600009D4C168C943490605D46FF0400101613D
:10177000204600F00BF920680169C94389060BD4A3
:10178000C168C943890607D46FF020010161204672
:10179000BDE87040FFF756BE70BD7047704700004F
:1017A0002DE9F05F67498146674C684E4FF00108AC
:1017B000494579D16648674FDFF89CA1017800253B
:1017C000DFF898B102292AD12178491CC9B22170C9
:1017D000092924D92570057061490A200B18325C4B
:1017E00013F80A3C1A433254401CC0B21228F5D3F5
:1017F0001A200B18325C13F81A3C1A433254401C5E
:10180000C0B22228F5D38BF800809AF8000010B1FE
:101810003888462801D2502038800D604D60A0885D
:101820004FF48071401C82B24E48A280142A01D825
:10183000002204E0782A01D9A58002E00122FFF706
:1018400090FAA07868B148480188491E89B20180A1
:101850000A2906D20580A570002208214348FFF717
:1018600080FA43480178F9B13988491E89B2398034
:10187000032919D205703F483D80E57005700022AC
:1018800010213A48FFF76DFA9AF8000057460128F0
:1018900002D101F0CBFA3D709BF800005F460128B1
:1018A00002D101F0B1FA3D703349494547D102F008
:1018B00085F9DFF8B89020214846FFF74DFA2F4D03
:1018C0002F4F2978884228D020214846FFF744FA34
:1018D000287084F8018018B1387801281BD01CE0EA
:1018E00028480278FF20022A05D102217054491CA1
:1018F000C9B22229FAD3012A05D102217054491C08
:10190000C9B21229FAD342B912217054491CC9B282
:101910002229FAD301E001F089FA20214846FFF795
:101920001BFA2870184D38782978884205D084F839
:101930000180012801D101F079FA38782870BDE8DA
:10194000F09F0000A8020020100000207D09002068
:1019500021000020240000201D0000201E00002087
:10196000740900200014014022000020000C0140F6
:10197000260000201F000020E80200202B0000208D
:101980001C0000202A0000201A000020704710B51B
:1019900004460068416994F83920C1F3C011212A36
:1019A0000BD151B1416921F080014161206B08B137
:1019B000FEF7A6FD204600F09CFD2068416994F8E2
:1019C0003A20C1F38011222A0BD151B1416921F093
:1019D00040014161606B08B1FEF792FD204600F0C6
:1019E0007AFD002010BD704770B50268044610688B
:1019F000D168536910F00F0F50D003F0010501F4C6
:101A0000907635435DD0C20705D0CA0503D5E26B99
:101A100042F00102E263420705D5DA0703D0E26B28
:101A200042F00202E263820705D5DA0703D0E26BD7
:101A300042F00402E263020705D5DA0703D0E26B45
:101A400042F00802E263E26B002A33D0800604D53C
:101A5000880602D5204600F055FD20684069E16BFC
:101A6000C0F38010090700D428B3204600F033FDEE
:101A70002068416949061AD5416921F04001416158
:101A8000606BA0B11B494163606BFEF751FD0028FC
:101A900010D0606B416BBDE870400847830610D5DD
:101AA0008B060ED52046BDE8704000F02BBD2046C9
:101AB000FFF799FF70BD2046FFF795FF0020E06318
:101AC00070BD030606D50B0604D52046BDE8704060
:101AD00000F01CBE4006F3D54806F1D5D16820467B
:101AE00021F04001D160202184F8391000F097F9ED
:101AF00070BD00003724000870B5040004D094F8CD
:101B00003900002510B106E0012070BD84F838507E
:101B1000204600F023F8242084F839002068C168AA
:101B200021F40051C160204600F038FD20680169B1
:101B300021F4904101612068416921F02A0141614D
:101B40002068C16841F40051C160E563202084F839
:101B5000390084F83A00002070BD00002DE9F047FC
:101B60000546DFF830C1036800244B4802210322F8
:101B7000DFF8288180274A4E86B04FF04009634540
:101B80001ED1836943F4804383618069CDE900916C
:101B900000F48040CDE9032069464046FEF7E8FFA7
:101BA000CDE90074694640460294FEF7E1FF706893
:101BB00040F0E06040F00400706006B0BDE8F087DF
:101BC000DFF8E0C04FF0200A634531D1C36943F428
:101BD0000033C361C069CDE900A100F40030D046F4
:101BE000CDE90320DFF8C0A069465046FEF7C0FFEC
:101BF000CDE90094694650460294FEF7B9FF70683B
:101C000040F0E06040F008007060294E2748C6E9C7
:101C10000004C6E902473461C6E905483046F4616C
:101C2000FEF742FE08B1B6212FE06E637562C4E78D
:101C3000204EB342C1D1C36943F48023C361C0695C
:101C4000039200F4802004903015CDE9000169462C
:101C50004046FEF78DFFF014CDE90004694640468A
:101C60000294FEF785FF124E104844363C38C6E910
:101C70000004C6E902473461C6E9054A3046F4610A
:101C8000FEF712FE0028D0D0E1210BA000F069FE83
:101C9000CBE700000038014000100240000C01407A
:101CA0000000014000440040001401406C0002406C
:101CB00020020020004800402E2E2F5372632F7503
:101CC000736172742E630000F8B5044690F83A0010
:101CD00020283CD1C1B3BAB394F83800012836D0DB
:101CE000012084F83800A162A2850025E563222046
:101CF00084F83A00636B17489862636B1648D862A1
:101D0000636B16481863606B134645630846666B41
:101D1000216802463046091DFEF708FE206801686A
:101D20004168009184F83850C16841F48071C16005
:101D30002068416941F0010141612068416941F039
:101D4000400141610020F8BDFFE70120FBE70220D0
:101D5000F9E7000091240008CD240008472400087A
:101D6000704770472DE9F843044690F839001F4644
:101D700016460D46202850D1A5B19EB194F83800E2
:101D800001284AD0012084F838004FF00008C4F838
:101D90003C80212084F83900FEF7E8FFA6848146C4
:101DA000E68426E00120BDE8F883E08C401EE08454
:101DB000A0684B46B0F5805F4FF000024FF0800105
:101DC0002046009703D000F0D2FCE8B90DE000F007
:101DD000CEFCC8B928882168C0F308004860206993
:101DE00008B16D1C05E0AD1C03E0216815F8010B7E
:101DF0004860E08C0028D8D14B4600224021204684
:101E0000009700F0B4FC08B10320CCE7202084F850
:101E1000390084F838800020C5E70220C3E7704706
:101E2000FEE70000054808B5416941F00101416144
:101E3000406900F00100009008BD00000010024061
:101E4000F0B5414885B0816941F040018161816907
:101E500001F040010491816941F0100181618169C3
:101E600001F010010491816941F0040181618169EF
:101E700001F004010491816941F0080181618169E7
:101E800001F008010491816941F0200181618069BC
:101E90002E4E00F020004FF4827504900022294657
:101EA0003046FEF75EFF2A4F002218213846FEF723
:101EB00058FF00244FF6FF70CDE90004694625481D
:101EC0000294FEF755FE41F6FF70CDE90004694625
:101ED00021480294FEF74CFE41F6F270CDE9000471
:101EE00069461E480294FEF743FE43F22B30CDE9CB
:101EF0000004694638460294FEF73AFE1120CDE907
:101F000000500225694630460395FEF731FE4FF634
:101F10009960CDE90004694630460294FEF728FE38
:101F20001020CDE900040124694630460294FEF7F2
:101F30001FFE1820CDE90004694603953846FEF7D8
:101F400017FE05B0F0BD0000001002400014014073
:101F5000000C014000180140001001400008014041
:101F600010B5002211462520FEF78CFF2520FEF734
:101F70007DFF002211462620FEF784FF2620FEF773
:101F800075FF002211462720FEF77CFF2720FEF771
:101F90006DFF002211463220FEF774FF3220FEF75B
:101FA00065FF002211461D20FEF76CFF1D20FEF785
:101FB0005DFF002211461E20FEF764FF1E20FEF783
:101FC00055FF002211460D20FEF75CFF0D20FEF7A5
:101FD0004DFF002211461020FEF754FFBDE81040CF
:101FE0001020FEF743BF000010B5194886B017490E
:101FF000016040F27F210024C0E9011440F2E73182
:10200000C0E9031480218161FFF745FA18B141212D
:1020100010A000F0A6FC4FF48050009069460C48D8
:10202000FFF78EFA18B147210AA000F09AFC049439
:1020300004A907480594FFF706FA002803D04E21AB
:1020400004A000F08EFC06B010BD000000040040AB
:10205000A80200202E2E2F5372632F74696D2E63F9
:102060000000000010B5194886B01749016040F221
:102070007F210024C0E9011440F69F71C0E90314D8
:1020800080218161FFF707FA18B1602110A000F0EC
:1020900068FC4FF48050009069460C48FFF750FAF6
:1020A00018B166210AA000F05CFC049404A907485A
:1020B0000594FFF7C8F9002803D06D2104A000F0B3
:1020C00050FC06B010BD000000080040E8020020EF
:1020D0002E2E2F5372632F74696D2E630000000043
:1020E00010B5174886B015490024C0E90014846073
:1020F000C460802104618161FFF7CDF918B17F21AF
:1021000010A000F02EFC4FF48050009069460C485F
:10211000FFF716FA18B185210AA000F022FC0494FA
:1021200004A907480594FFF78EF9002803D08C21F5
:1021300004A000F016FC06B010BD0000000C00402A
:10214000280300202E2E2F5372632F74696D2E6387
:10215000000000000D4810B50B4901604FF4164116
:102160004160002181600C22C160C0E904128161DC
:10217000C161FFF7C1FC002805D0BDE81040472130
:1021800003A000F0EEBB10BD00380140600100204C
:102190002E2E2F5372632F75736172742E6300009D
:1021A0000D4810B50B4901604FF4165141600021F4
:1021B00081600C22C160C0E904128161C161FFF736
:1021C0009BFC002805D0BDE810405A2103A000F078
:1021D000C8BB10BD00440040A00100202E2E2F538C
:1021E00072632F75736172742E6300000D4810B511
:1021F0000B4901604FF416514160002181600C22AF
:10220000C160C0E904128161C161FFF775FC00285B
:1022100005D0BDE810406D2103A000F0A2BB10BDA9
:1022200000480040E00100202E2E2F5372632F75CE
:10223000736172742E630000FEE770470907090E90
:10224000002806DA00F00F0000F1E02080F8141DED
:10225000704700F1E02080F8001470477047704725
:1022600010B5FEF789FDBDE81040FFF7E6B830B5C0
:102270008FB00225012004900095102005900024C5
:102280004FF46010CDE9084007956846FEF732FF2D
:1022900000B1FEE70F20CDE90A054FF48060CDE9DB
:1022A0000C4002210AA80E94FEF71EFE00B1FEE7C4
:1022B000FEF7C4FE4FF47A71B0FBF1F0FFF7A9F816
:1022C0000420FFF799F800221146501EFEF7DAFDB0
:1022D0000FB030BD0D48016841F001010160416857
:1022E0000B4A1140416001680A4A114001600168CF
:1022F00021F480210160416821F4FE0141604FF426
:102300001F0181600449C00308607047001002404B
:102310000000FFF8FFFFF6FE08ED00E00148FFF7C0
:1023200089B90000A80200200148FFF783B9000026
:10233000E80200200148FFF77DB9000028030020D3
:10234000F0B502681C4B1D4D1D4E1E4F1E4C4FF02C
:10235000804C984209D0A04207D0604505D0A842E1
:1023600003D0B04201D0B84204D122F0700E4A68C6
:1023700042EA0E02984209D0A04207D0604505D03B
:10238000A84203D0B04201D0B84203D122F4407534
:10239000CA682A4322F080054A692A4302608A6893
:1023A000C2620A688262984201D0A04201D10969E2
:1023B000016301214161F0BD002C01400004004097
:1023C00000080040000C00400034014010B5846853
:1023D00042EA032224F47F440A432243826010BD70
:1023E000826822F070020A4342F007018160704760
:1023F00010B5036A046A24F001040462846924F0BD
:10240000F00444EA021423F00A020A4384610262DF
:1024100010BD10B5036A23F0100303628369046AD8
:1024200023F4704343EA023224F0A00343EA01118B
:102430008261016210BD10B5406A0021C185C1846E
:10244000FFF7D1FA10BD70B5446A2068406994F86E
:102450003910C0F3C0100025212904D118B1E5843A
:10246000204600F046F82068406994F83A10C0F31E
:102470008010222904D118B1E585204600F02BF800
:10248000E06B40F01000E0632046FFF7ACFA70BD4F
:1024900010B50146406A09680968890613D400210D
:1024A000C1850168CA6822F48072CA6001684A69FD
:1024B00022F001024A6101684A6922F040024A6141
:1024C000202180F83A10FFF74BFC10BD10B5406A90
:1024D000FFF747FC10BD0168CA6822F49072CA6019
:1024E00001684A6922F001024A61202180F83A100D
:1024F00070470168CA6822F0C002CA60202180F8D3
:102500003910704710B590F83A10222901D00220F6
:1025100010BD8168B1F5805F11D0016900290168A3
:102520001FD0496801F07F03816A4A1C82620B70E8
:10253000C18D491E0904090CC18518D02BE0026920
:10254000816A002A0268526805D0D2B20A80816A84
:10255000491C8162ECE7C2F308020A80816A891C87
:10256000F7E74A68816A4B1C83620A70E0E70168FA
:10257000CA6822F02002CA600168CA6822F4807228
:10258000CA6001684A6922F001024A61202180F88C
:102590003A10FFF7E5FB002010BD00002DE9F041E7
:1025A000044600680169E26821F440511143016169
:1025B0002169A0680843616908432168CA6841F23B
:1025C0000C639A430243CA6020684169A26921F4FE
:1025D0004071114341614C4920686425322688428C
:1025E0003CD1FEF741FD00EBC00101EB001061683A
:1025F0008900B0FBF1F7FEF737FD00EBC00101EBFE
:1026000000106168B0468900B0FBF1F0B0FBF5F056
:102610006FF01801484307EB800106EB0110B0FB97
:10262000F5F000F0F006FEF71FFD00EBC00101EB36
:10263000001061688900B0FBF1F0B0FBF5F006EB2B
:102640000016FEF711FD00EBC00101EB0010616800
:102650008900B0FBF1F7FEF707FD3BE0FEF7F4FC65
:1026600000EBC00101EB001061688900B0FBF1F7DD
:10267000FEF7EAFC00EBC00101EB00106168B04618
:102680008900B0FBF1F0B0FBF5F06FF018014843A2
:1026900007EB800106EB0110B0FBF5F000F0F0064F
:1026A000FEF7D2FC00EBC00101EB0010616889006D
:1026B000B0FBF1F0B0FBF5F006EB0016FEF7C4FC42
:1026C00000EBC00101EB001061688900B0FBF1F77D
:1026D000FEF7BAFC00EBC00101EB00106168890055
:1026E000B0FBF1F0B0FBF5F06FF01801484307EBD9
:1026F000800108EB0110B0FBF5F0216800F00F003D
:1027000030448860BDE8F0810038014090F839100D
:10271000212901D0022070478168B1F5805F016AEC
:102720000BD04A1C0262026809785160C18C491EB4
:102730000904090CC1840ED017E009880268C1F3AE
:102740000801516001690029016A02D0491C016237
:10275000ECE7891CFBE70168CA6822F08002CA60C6
:102760000068C16841F04001C160002070472DE958
:10277000F041984617460E460446069D1DE0681C2B
:102780001BD02DB1FEF7F2FAA0EB0800A84214D935
:102790002068C16821F4D071C1602068416921F0CE
:1027A00001014161202084F8390084F83A000020BA
:1027B00084F838000320BDE8F0812068006836EA1C
:1027C000000004D00020B842D9D00020F3E7012057
:1027D000F9E700002DE9F047484800680068C04369
:1027E00080064CD446480068474DC2B24548012790
:1027F0005A2A418800D119B10378012B01D003E096
:1028000007706A54491C418089B2404E0024022955
:1028100030D08046052932D104213B4801F047FDE4
:10282000A8F8024088F800402979814227D16878C9
:102830003178884223D1DFF8D880DFF8D890DFF8EC
:10284000D8A098F8000030B189F80070012210215A
:102850005046FEF786FA314D287830B189F800707D
:10286000012210215046FEF77CFA2D482D4F0178A9
:1028700039B10CE03178914201D044800470BDE858
:10288000F08702203C54401CC0B21228FAD3012920
:1028900005D112203C54401CC0B22228FAD35A2041
:1028A00038703078787024211E4801F000FD87F8D8
:1028B000240025211B4801F0CFF8287898F8001053
:1028C000194E4746014302D03178491C3170002827
:1028D000D5D030780428D2D900F096FA2C70347014
:1028E000387820B9002210215046FEF73AFA0F48F6
:1028F00001780129C3D102210170C0E760010020E5
:102900000438014016000020600000202E00002046
:102910001D00002026000020000C01401E000020A9
:102920002A0000207D090020130000202100002043
:1029300010B5044801F058F8BDE810400148FFF711
:1029400053B80000A001002010B5044800F002FFB9
:10295000BDE810400148FFF747B80000E001002043
:10296000FEE7FEE70FB4054B10B503A9044A029831
:1029700000F018F810BC5DF814FB00007942000864
:102980003800002002E008C8121F08C1002AFAD14E
:1029900070477047002001E001C1121F002AFBD1DF
:1029A000704700002DE9FF4F8DB00F460546002609
:1029B00006E025280BD0DDE90F1290476D1C761C30
:1029C00028780028F5D111B03046BDE8F08F0024FA
:1029D000A246A1460122EC4900E0044315F8013F5C
:1029E000203B02FA03F00842F7D128782A2810D0B9
:1029F0006FF02F022878A0F13001092914D80AEBD2
:102A00008A0102EB410144F0020400EB010A6D1C53
:102A1000F0E701CF5FEA000A03D544F40054CAF19D
:102A2000000A44F002046D1C28782E2817D115F8EE
:102A3000010F44F004042A280ED06FF02F022878EA
:102A4000A0F1300109290AD809EB890102EB410103
:102A500000EB01096D1CF2E757F8049B6D1C287808
:102A60006C280FD006DC4C2817D068280DD06A28B7
:102A700014D104E0742810D07A280FD10DE044F46A
:102A800000140AE044F4801401E044F4401469782E
:102A9000814202D104F580146D1C6D1C2A786E2AC7
:102AA0001FD00CDC632A31D004DC002A8BD0582ADA
:102AB00011D1A3E0642A68D0692A0CD165E0732A99
:102AC0002ED004DC6F2A73D0702A04D19BE0752AC3
:102AD0006FD0782A6ED01046DDE90F129047761C31
:102AE00050E1C4F30250022806D0032809D004287C
:102AF00001CF09D0066045E101CFF117C0E90061BF
:102B000040E101CF06803DE106703BE117F8040B80
:102B10008DF8000000208DF80100EB46012003E055
:102B200057F804BB4FF0FF3061074FF0000102D4AB
:102B30000DE008F10101884649450FDA8045F8DBD0
:102B40001BF808100029F4D108E008F101018846BB
:102B50008142FADB1BF808100029F6D1DDE90F23CA
:102B6000AAEB08008146214600F036F9304400EB1C
:102B7000080604E0DDE90F121BF8010B9047B8F1DD
:102B80000108F7D221464846F7E00A21C4F3025370
:102B90004FF0000B0891022B04D001CFC117032B7B
:102BA00009D00AE0FF1D27F00707F7E8020108E057
:102BB00032E01FE020E000B2C117042B01D140B287
:102BC000C117031E71F1000307DA4FF0000CD0EBC0
:102BD0000C006CEB01012D2302E0230504D52B230F
:102BE0008DF82430012303E0E30701D02023F7E729
:102BF000984658E00A2110E010210EE010204FF016
:102C0000000B08900CE010214FF0000B44F004047E
:102C10004FF00809089103E008214FF0000B0891DC
:102C2000C4F30253022B04D001CF0021032B06D0A2
:102C300006E0FF1D27F00707F7E8020103E080B276
:102C4000042B00D1C0B24FF0000823072BD5702A07
:102C500007D0DDF820C08CF0100C5CEA0B0C05D01E
:102C60000EE040238DF82430012308E050EA0103F0
:102C700006D030238DF824308DF825200223984685
:102C8000DDF820C08CF0080C5CEA0B0C0BD150EA8C
:102C9000010301D1630706D530238DF824304FF0AE
:102CA0000108A9F10109582A04D038A20B9208AAF8
:102CB0000A920BE03AA2F9E75B46089AFDF764FA3C
:102CC0000B9B9B5C0A9A521E0A92137050EA0102F7
:102CD000F2D10A98ADEB000000F1200B600702D59D
:102CE00024F4803401E04FF00109D94502DDA9EB5D
:102CF0000B0000E0002000EB0B0141440890AAEB20
:102D0000010AE00306D4DDE90F232146504600F016
:102D100063F806444FF0000908E009A911F809001A
:102D2000DDE90F12904709F10109761CC145F4DB7A
:102D3000E0030CD5DDE90F232146504600F04CF8A6
:102D4000064404E0DDE90F1230209047761C089914
:102D5000481E08900029F5DC08E00A980A990078D6
:102D6000491C0A91DDE90F129047761CBBF1000166
:102D7000ABF1010BF1DC21465046DDE90F2300F0F9
:102D800019F806446D1C1BE6092801003031323366
:102D90003435363738396162636465660000000097
:102DA0003031323334353637383941424344454681
:102DB000000000002DE9F041044600251E4617469C
:102DC000880404D405E039462020B0476D1C641EF9
:102DD000F9D52846BDE8F0812DE9F04104460025EB
:102DE0001E469046C80301D5302700E020278804FE
:102DF00004D505E041463846B0476D1C641EF9D540
:102E00002846BDE8F08100000A20074900220A5444
:102E1000401CC0B21228FAD31A200A54401CC0B277
:102E20002228FAD3704700007D09002002200449BF
:102E300000220A54401CC0B22228FAD300F0BEBEC1
:102E40007D0900201CB502208DF80000C3208DF8FC
:102E5000010020208DF80200E1208DF803000320FE
:102E60008DF804000521684600F098FC1CBD0000A8
:102E7000084810B50068C16841F01001C1604FF406
:102E8000007205490348FEF71FFF0449012008703E
:102E900010BD0000E00100206C0300201C00002099
:102EA0002DE9F84FDFF8FC930026374699F800002B
:102EB0003546C0077ED00020FB4989F8000099F80C
:102EC0000D000978884275D0F8480078002871D044
:102ED00099F8040002286DD199F805004FF0FF0B16
:102EE00009F215644FF0010AC32815D099F80610AD
:102EF000A0295FD1EE4A1278002A5BD004F12508A0
:102F0000022288F8002088F8010088F802100320C7
:102F10000146B9F8022010E2E648007818B199F8A5
:102F20000B10814246D1E448007818B199F80C1092
:102F300081423FD199F82800C84603283AD123217D
:102F400008F1040001F0BFF998F82710814231D14F
:102F500098F80F00882802D0992831D038E098F8E6
:102F60001000082834D198F81100082830D1D3492E
:102F70000020024608700421D148FDF7F2FED14836
:102F80000178022906D102205A462254401C80B200
:102F90002228FAD3012906D102205A462254401C85
:102FA00080B21228FAD341B9122059462154401C4C
:102FB00080B200E07CE02228F8D3FFF725FF80E014
:102FC00098F81000092803D198F81100092870D04A
:102FD000BA4D287800286BD05FF01B0008EB000189
:102FE000097909B1761CB6B2401C80B22328F5D30A
:102FF000012E6AD9B44885F801A000882881B34819
:1030000098F81F10A278007881400A43A27098F8BF
:103010002030E27803FA00F942EA0902E27098F8F7
:103020002130227983401A430093227198F822308C
:10303000627903FA00FE42EA0E02627198F82330C8
:10304000A27903FA00FB42EA0B02A27198F824204D
:10305000E37982401343E37198F825C0237A0CFA90
:1030600000FC43EA0C03237298F82670637A8740C9
:103070003B436372A07C0843A074E07C40EA0900F3
:10308000E074207D009B18432075607D40EA0E00AF
:103090006075A07D40EA0B00A075E07D1043E075EF
:1030A000207E40EA0C002076607E384382E000E01B
:1030B000F6E082490122824881F800A00421FDF750
:1030C00050FEBDE8F84FFFF7BDBE1B2008EB000126
:1030D000097901B10F46401C80B22328F6D300269F
:1030E0004FEA060027FA00F1C90701D0761CB6B2F4
:1030F000401C80B20828F5D3012E5DD9724885F8AE
:1031000001A000882881714898F81F20A1780078D4
:1031100082401143A17098F82030E17803FA00FB57
:1031200041EA0B01E17098F82130217903FA00F9A6
:1031300041EA0901217198F82230617983401943ED
:103140000093617198F82310A37981400B43A37118
:1031500098F82430E77903FA00FE47EA0E07E77192
:1031600098F82570237A87403B43237298F826C04D
:10317000637A0CFA00FC43EA0C036372A07C1043F0
:10318000A074E07C40EA0B00E074207D40EA090076
:103190002075607D009B18436075A07D0843A07575
:1031A000E07D40EA0E00E075207E38432076607EA8
:1031B00040EA0C00607661E085F802A0687810B102
:1031C0002889462801D250202881404898F81F704D
:1031D00014F80A1F007807FA00FB41EA0B0121707E
:1031E00098F82020617882401143617098F821702E
:1031F000A17807FA00F941EA0901A17098F8227054
:10320000E178874039430097E17098F8237021797D
:1032100007FA00FE41EA0E01217198F82430617925
:1032200083401943617198F82510A77981400F43B5
:10323000A77198F826C0E7790CFA00FC47EA0C075A
:10324000E771207C40EA0B002074607C10436074BE
:10325000A07C40EA0900A074E07C009F3843E07441
:10326000207D40EA0E002075607D18436075A07DCA
:103270000843A075E07D40EA0C00E07501220821BA
:103280001348FDF76EFDFFF7DDFD012E01D03C2058
:10329000E880104985F803A03C2081F800A0E88070
:1032A000BDE8F88F68030020290000202B000020D3
:1032B000280000202C0000202D0000201C000020F1
:1032C000001401402A000020340000202F000020BC
:1032D000000C01401200002009EB01063379102B8D
:1032E0000AD008F80030401C80B2491C89B21A2864
:1032F00009D01E280DD010E0737908F80030401C6A
:1033000080B2891CF2E798F81930EA2B05D1012523
:1033100003E098F81D30E12B05D035B1012D07D021
:10332000022D0AD107E0022507E01E2805D112E090
:103330001F2802D10DE020280DD08A42CCD81E28AB
:1033400003D0002DACD01F2803D0012DA8D02028F9
:1033500001D0022DA4D098F81D00032801D0002D23
:103360009ED098F81E00032801D0012D98D098F81F
:103370001F00032801D0022D92D025B1012D09D0C4
:10338000022D17D00FE01C21E94800F09CFF98F8AF
:103390001C1005E01D21E64800F095FF98F81D106F
:1033A00081427FF47DAF98F81000882809D09928D1
:1033B00037D03EE01E21DE4800F085FF98F81E1051
:1033C000EEE798F81100082833D198F81200082881
:1033D0002FD1D84800210A4601700421D648FDF7B4
:1033E000C0FCD6480178022906D102205A46225450
:1033F000401C80B22228FAD3012906D102205A4665
:103400002254401C80B21228FAD331B912205946F6
:103410002154401C80B22228FAD3BDE8F84FFFF7B0
:10342000F3BC98F81100092803D198F81200092874
:1034300009D0C04E3078002884D095B1012D19D024
:10344000022D17D020E0BB49BD4881F800A00078CC
:103450000128A6D1BDE8F84F01220421B648FDF7A6
:1034600080BC98F8190002280ED198F81B0098F833
:103470001A1004E098F81A00022865D004E000EB66
:1034800001200004000CD7D00025082018F80010F7
:1034900009B16D1CADB2401C80B21028F6D3012DCD
:1034A00057D9A84886F801A000883081A64898F826
:1034B00008C0A17800780CFA00FE41EA0E01A17064
:1034C00098F809C0E1780CFA00FB41EA0B01E170C1
:1034D00098F80AC021790CFA00F941EA0901217132
:1034E00098F80B70617987403943617198F80C3016
:1034F000A17983401943A17198F80D20E1798240A8
:103500001143E17198F80E1094F808C081404CEA1C
:10351000010C84F808C098F80F8094F809C008FAE4
:1035200000F84CEA080C84F809C0A07C40EA0E00C0
:10353000A074E07C40EA0B00E074207D40EA0900C2
:103540002075607D38436FE098F81C0098F81B10D8
:1035500095E7082018F8001009B1CFB203E0401C2D
:1035600080B21028F6D300254FEA050027FA00F1B3
:10357000C90701D06D1CADB2401C80B20828F5D33C
:10358000012D60D96F4886F801A0008830816E480F
:1035900098F808C0A17800780CFA00FB41EA0B010A
:1035A000A17098F80970E17887403943E17098F884
:1035B0000AC021790CFA00F941EA0901217198F851
:1035C0000BC061790CFA00FE41EA0E01617198F8B6
:1035D0000C30A17983401943A17198F80D20E1794D
:1035E00082401143E17198F80E1094F808C08140B0
:1035F0004CEA010C84F808C098F80F8094F809C0D0
:1036000008FA00F84CEA080C84F809C0A07C40EAEB
:103610000B00A074E07C3843E074207D40EA090090
:103620002075607D40EA0E006075A07D1843A0758E
:10363000E07D1043E075207E08432076607E40EAFE
:103640000800607661E086F802A0707810B13089D9
:10365000462801D2502030813B4898F8087014F871
:103660000A1F007807FA00F941EA0901217098F869
:103670000920617882401143617098F80A70A1783E
:1036800007FA00FB41EA0B01A17098F80B70E17892
:10369000874039430097E17098F80C70217907FA58
:1036A00000FE41EA0E01217198F80D3061798340E6
:1036B0001943617198F80E10A77981400F43A771E3
:1036C00098F80FC0E7790CFA00FC47EA0C07E7719D
:1036D000207C40EA09002074607C10436074A07C68
:1036E00040EA0B00A074E07C009F3843E074207D2A
:1036F00040EA0E002075607D18436075A07D084388
:10370000A075E07D40EA0C00E075012208210F4819
:10371000FDF727FBFFF796FB012D01D03C20F08041
:103720000B4986F803A03C2081F800A0F080B7E5A3
:10373000A20900201C000020001401402A000020E3
:103740002B000020340000202F000020000C01403E
:103750001200002038B500680068C043C00617D4C6
:103760000C4C20680168406800902046FEF70FF975
:10377000606B006840680849C0F50070488001200F
:1037800001F8040B42022046BDE83840FEF79CBA1F
:1037900038BD0000E0010020680300200A46014611
:1037A0004FF6FF730148FEF7DDBA0000E00100208C
:1037B0001CB555238DF80030FF238DF8013003230D
:1037C0008DF80230AA238DF8041000228DF8050030
:1037D00001208DF806008DF8033068469DF807102B
:1037E000835C521C1944D2B28DF80710072AF5D316
:1037F000082100F01DF91CBD05480068C16841F0B2
:103800001001C1604FF4007202490148FEF75CBA32
:10381000A0010020700500202DE9F047DFF8B881F5
:10382000002698F80000C0077ED0002088F800002D
:103830006A480078002877D0DFF8A4A19AF8000041
:10384000002871D098F8040055286DD198F805002B
:10385000FF2869D198F8070008F21147614D01244B
:10386000A7F10909A8281BD0A9285DD10C2108F1CE
:10387000040000F00FFD98F81010884254D198F819
:103880000900C10963D0297800F07F00091ABA7ACB
:1038900004FA01F00243BA72B97E0143B9766AE0D4
:1038A000132108F1040000F0F5FC98F81710884285
:1038B0003AD198F80B104046CA090CD02A7801F08A
:1038C0007F01521ABB7A04FA02F10B43BB72BA7E33
:1038D0000A43BA7613E02A78521E1144CA1701EB44
:1038E0005272C2F3C7033B4422F007028A1A9F7A3E
:1038F00004FA02F10F439F729A7E0A439A768AF87D
:1039000002409AF80110524611B11189462901D29C
:10391000502111812B7890F80EC05D1E494699F810
:1039200000700CFA05FC00E054E047EA0C0789F847
:10393000007087198D5DFF7B9F403D438D55761C40
:10394000F6B2082EF5D38AF80540017A3CE02978D2
:10395000491E0844C11700EB5172C2F3C701394434
:1039600022F00702821A8B7A04FA02F003438B7268
:103970008A7E02438A768AF8024098F80D0008B3DE
:10398000C2090BD02A7800F07F00101A99F8003095
:1039900004FA00F0034389F8003011E02B78C218D4
:1039A0005B1E1844C317D20800EB537323F00703C0
:1039B000C01A19F8025004FA00F0054309F8025041
:1039C0008AF8054098F8081098F80700BDE8F04715
:1039D000FFF7EEBEBDE8F0876C0500202B0000204D
:1039E0001C0000203000002038B500680068C0438B
:1039F000C00617D40C4C206801684068009020462F
:103A0000FDF7C5FF606B006840680849C0F50070AD
:103A10004880012001F8040B42022046BDE83840EE
:103A2000FEF752B938BD0000A00100206C0500204F
:103A30000A4601464FF6FF730148FEF793B90000AE
:103A4000A001002003480068C16841F02001C16066
:103A500070470000600100200A4601464FF6FF73E0
:103A60000148FEF77FB900006001002070470000A8
:103A700070B5084D002480212846FDF76DF900B986
:103A8000012420212846FDF767F900B9A41C601C19
:103A900070BD00000008014010B500240221074855
:103AA000FDF75AF900B901244FF400710448FDF7FD
:103AB00053F900B9A41C204610BD000000180140B5
:103AC000000C014070B5002480210A48FDF744F93C
:103AD00000B90124084D20212846FDF73DF900B921
:103AE000A41C08212846FDF737F900B9241D2046FB
:103AF00070BD0000001401400018014070B5094D70
:103B000000244FF400512846FDF726F900B901249E
:103B10004FF400612846FDF71FF900B9A41C2046A8
:103B200070BD00000018014070B5084D00244FF42E
:103B300000712846FDF710F900B9012480212846BC
:103B4000FDF70AF900B9A41C204670BD0018014019
:103B500070B50C4D00244FF480612846FDF7FCF849
:103B600000B901244FF400712846FDF7F5F800B9BB
:103B7000A41C4FF400510448FDF7EEF800B9241DD1
:103B8000204670BD00080140000C014010B508211E
:103B90000748FDF7E1F8074C00B10120A0700821AB
:103BA0000548FDF7D9F8002801D10220A07010BD0A
:103BB0000010014028000020001401402DE9F05FB2
:103BC000CA48CB4ECB4D4278B714CB4CCB484FF4C0
:103BD00000684FF4806B002A4FF480717ED0FDF7AF
:103BE000BBF818B9A07840F00100A0704FF4007144
:103BF0003046FDF7B1F818B9A07840F00200A07087
:103C00004FF480713046FDF7A7F818B9A07840F05E
:103C10000400A07080213046FDF79EF818B9A07806
:103C200040F00800A07040213046FDF795F818B923
:103C3000A07840F01000A0704FF400412846FDF736
:103C40008BF818B9A07840F02000A0704FF48041A4
:103C50002846FDF781F818B9A07840F04000A07020
:103C60004FF400512846FDF777F818B9A07840F0D6
:103C70008000A070B94639462846FDF76DF818B99E
:103C8000E07840F00100E070474641462846FDF7E5
:103C900063F818B9E07840F00200E0704FF400716A
:103CA0002846FDF759F818B9E07840F00400E070B4
:103CB000DFF84882BA4639464046FDF74DF818B954
:103CC000E07840F00800E0704F4649464046FDF776
:103CD00043F828B9E07840F0100000E043E0E070DD
:103CE00059463046FDF738F818B9E07840F0200022
:103CF000E07051463046FDF72FF818B9E07840F0F3
:103D00004000E07039463046FDF726F818B9E078F3
:103D100040F08000E07001212846FDF71DF818B939
:103D2000207940F00100207159462846FDF714F82B
:103D300018B9207940F00200207139467048FDF72B
:103D40000BF818B9207940F0040020714FF40041BD
:103D50006C48FDF701F8002803D1207940F00800F5
:103D60002071BDE8F09FFCF7F7FF18B9A07C40F088
:103D70000100A0744FF400713046FCF7EDFF18B954
:103D8000A07C40F00200A0744FF480713046FCF734
:103D9000E3FF18B9A07C40F00400A07480213046F5
:103DA000FCF7DAFF18B9A07C40F00800A0744021AD
:103DB0003046FCF7D1FF18B9A07C40F01000A07489
:103DC0004FF400412846FCF7C7FF18B9A07C40F02B
:103DD0002000A0744FF480412846FCF7BDFF18B9BD
:103DE000A07C40F04000A0744FF400512846FCF73E
:103DF000B3FF18B9A07C40F08000A074B9463946E2
:103E00002846FCF7A9FF18B9E07C40F00100E074F7
:103E1000474641462846FCF79FFF18B9E07C40F032
:103E20000200E0744FF400712846FCF795FF18B9C2
:103E3000E07C40F00400E074DFF8C080BA46394608
:103E40004046FCF789FF18B9E07C40F00800E074B8
:103E50004F4649464046FCF77FFF18B9E07C40F0EA
:103E60001000E07459463046FCF776FF18B9E07C44
:103E700040F02000E07451463046FCF76DFF18B961
:103E8000E07C40F04000E07439463046FCF764FFC7
:103E900018B9E07C40F08000E07401212846FCF76E
:103EA0005BFF18B9207D40F0010020755946284677
:103EB000FCF752FF18B9207D40F00200207539460A
:103EC0000F48FCF749FF18B9207D40F00400207529
:103ED0004FF400410B48FCF73FFF00287FF441AF4F
:103EE000207D40F0080020753BE7000028000020FE
:103EF00000100140001401407D090020000801402D
:103F0000000C0140001801402DE9F041554E4FF4DE
:103F10000045002229463046FCF723FF524F20215E
:103F20003846FCF719FF514C0221E0703846FCF787
:103F300013FF607029463046FCF70EFFE8B1002001
:103F40002070FFF723FEFFF7D9FD2071FFF7ECFD8E
:103F50006071FFF78DFDA071FFF7B4FDE071FFF711
:103F6000F7FD2072FFF798FD607240B1012808D07C
:103F7000022814D0032815D006E00120E0E77820BD
:103F800001E04FF47A70E060FFF718FEE078384DFA
:103F900001280AD0A278FF20022A0CD011E040F6B6
:103FA000B830F0E741F27070EDE7FEF73FFF31A067
:103FB000FEF7D8FC14E002216854491CC9B222293A
:103FC000FAD3012A05D102216854491CC9B2122929
:103FD000FAD32AB912216854491CC9B22229FAD34A
:103FE000E17829A0FEF7BEFC61782DA0FEF7BAFCAF
:103FF000217834A0FEF7B6FCA17839A0FEF7B2FC18
:10400000217940A0FEF7AEFC617944A0FEF7AAFC3E
:10401000A17949A0FEF7A6FCE1794BA0FEF7A2FC2E
:10402000217A4FA0FEF79EFC55A0E168FEF79AFCAE
:10403000A9785BA0FEF796FCE97862A0FEF792FCF7
:10404000297969A0FEF78EFCA97C70A0FEF78AFC96
:10405000E97C77A0FEF786FC297DBDE8F0417DA0D4
:10406000FEF780BC00080140000C01402800002041
:104070007D0900206E6F206669726520616C617237
:104080006D720D0A000000000D0A666972652069F4
:104090006E666F20697320253032640D0A000000BF
:1040A00067526576525334383541476174655479A7
:1040B0007065466C616720697320253032640D0A93
:1040C000000000006752533438354141636B466C41
:1040D000616720697320253032640D0A00000000FA
:1040E0006752533438354353656E64476174655481
:1040F000797065466C616720697320253032640DE4
:104100000A0000006747726F75704E756D626572C8
:1041100020697320253032640D0A0000674D616309
:1041200068696E654E756D62657220697320253011
:1041300032640D0A000000006741646472206973F4
:104140002025640D0A00000067466C6F6F724F6691
:104150006673657420697320253032640D0A00008F
:10416000674E61676976617465466C6F6F724F6602
:104170006673657420697320253032640D0A00006F
:1041800067436F646553656E64696E6754696D65F6
:10419000436E7420697320253032640D0A000000DC
:1041A0006741636B52533438354341736B446174D8
:1041B00061427566665B325D206973202530336429
:1041C0000D0A00006741636B525334383543417325
:1041D0006B44617461427566665B335D2069732070
:1041E000253033640D0A00006741636B5253343845
:1041F000354341736B44617461427566665B345D3F
:1042000020697320253033640D0A00006741636B19
:1042100052533438354341736B446174614275665F
:10422000665B31385D20697320253033640D0A00E8
:104230006741636B52533438354341736B44617447
:1042400061427566665B31395D20697320253033C4
:10425000640D0A006741636B525334383543417330
:104260006B44617461427566665B32305D206973D0
:1042700020253033640D0A0038B504468DF800005F
:104280000223012269460248FDF76CFD204638BD35
:104290006001002010B503460022104604E09C5C3B
:1042A000521C2044C0B292B28A42F8D310BD10B55D
:1042B00003460078012203E09C5C6040521C92B2ED
:1042C0008A42F9D310BD10B503460078012203E0FD
:1042D0009C5C6040521C92B28A42F9D310BD00002F
:1042E00088B0FCF751FDFDF7C2FFFDF7A9FDFDF712
:1042F00099FDFDF755FFFDF72DFFFDF777FFFDF762
:1043000073FEFDF7AFFEFDF7EBFEFDF729FE364D20
:104310002846FCF77FFB354CC0B2082620700128E8
:1043200016D901202070FCF70FFCFCF7FBFB684658
:10433000FCF75EFBFCF732FB059520788DF8180042
:1043400068460096FCF776FBFCF7E2FBFCF7D6FB31
:104350002846FCF75FFBC1B2217025A0FEF702FBE7
:10436000FFF784FBFEF784FDFFF746FAFFF76AFBD1
:10437000FFF7CAFD2548FDF7D7F82548FDF7D4F823
:10438000244F002208213846FCF7EBFC00221021C4
:104390003846FCF7E6FC2F461F4D4FF0000800BFE3
:1043A000FEF77EFDFFF738FA68780128F8D185F826
:1043B00001801AA0FEF7D6FA72B6FCF7C5FBFCF72F
:1043C000B1FB6846FCF714FBFCF7E8FA0597207888
:1043D0008DF8180068460096FCF72CFBFCF798FB5C
:1043E000FCF78CFB62B6DBE704F8FF1F1C00002023
:1043F000674E656564466C61736843617264466CC0
:104400006167206973202558200D0A00A80200204A
:10441000E8020020000C01401000002020777269A3
:10442000746520666C616720746F20466C617368E8
:104430000D0A00000000000000000000010203045B
:104440000607080900000000010203046C4400088C
:10445000000000203C00000084290008A844000857
:104460003C0000208C0D00009429000800A24A04A2
:10447000010000001000000000000000000000002B
:10448000000000000000000000000000000000002C
:10449000000000000000000000000000000000001C
:0844A000000000000000000014
:0400000508000131BD
:00000001FF
