:020000040800F2
:10000000680D0020450100087B1C00081518000839
:10001000791C00088D010008F5220008000000008E
:100020000000000000000000000000009F1C00080D
:10003000D3010008000000009D1C0008A11C00085E
:100040005F0100085F0100085F0100085F01000810
:100050005F0100085F0100085F0100085F01000800
:100060005F0100085F0100085F0100085F010008F0
:100070005F010008910100085F0100085F010008AE
:100080009D0100085F0100085F0100085F01000892
:100090005F0100085F0100085F0100085F010008C0
:1000A0005F0100085F0100085F0100085F010008B0
:1000B0005F0100085D1D0008691D00085F01000860
:1000C0005F0100085F0100085F0100085F01000890
:1000D0005F01000815220008C5220008DD22000883
:1000E0005F0100085F0100085F0100085F01000870
:1000F0005F0100085F0100085F0100085F01000860
:100100005F0100085F010008751D00085F0100081D
:100110005F0100085F0100085F0100085F0100083F
:100120005F0100085F0100085F0100085F0100082F
:10013000DFF80CD000F018F800480047792C0008D0
:10014000680D00200648804706480047FEE7FEE7A6
:10015000FEE7FEE7FEE7FEE7FEE7FEE7FEE7FEE777
:10016000151D000831010008064C074D06E0E06847
:1001700040F0010394E8070098471034AC42F6D3EE
:10018000FFF7DAFF042D0008242D0008FEE7000029
:10019000014800F0CFB8000030020020014800F014
:1001A000C9B80000EC01002030B590F8405001249F
:1001B000AC40C56B6C60046863604368102B0368D7
:1001C00003D099600068C26030BD9A600068C16069
:1001D00030BD704701680A6822F00E020A600168AB
:1001E0000A6822F001020A6090F84020C36B0121E6
:1001F00001FA02F25A6080F82110002180F82010E4
:10020000084670472DE9F05F90F82110002402297C
:1002100003D004218163012485E001680A6822F08B
:100220000E020A6001680A6822F001020A603F4E6D
:100230003E4FB215DFF8F4C0DFF8F090DFF8ECA025
:10024000DFF8E8B0DFF8E4E00168783F1301150259
:10025000ACF1640CA9F15009AAF13C0AABF1280BEE
:10026000AEF1140E4FF48018B14227D9B9420ED026
:10027000614512D049451DD0514518D0594518D077
:10028000714501D1424615E0294EB14201D101220A
:1002900010E0274E1436B14201D110220AE0244E5C
:1002A0002836B14206D0224A3C32914201D11A4648
:1002B00000E02A461E49091F0A602BE0B94213D00C
:1002C000614517D0494522D051451DD059451DD013
:1002D000714501D142461AE0B14202D14FF080721D
:1002E00015E0134EB14201D1012210E0104E143638
:1002F000B14201D110220AE00D4E2836B14206D09B
:100300000B4A3C32914201D11A4600E02A46074985
:1003100080394A60012180F82110002180F82010E6
:10032000416B01B188472046BDE8F09F8000024044
:10033000080402402DE9F05FC16B0A6801680B6890
:10034000046C4FF0040808FA04F8844D844E854F7D
:10035000DFF814C2DFF81492DFF814A2DFF814B249
:10036000DFF814E218EA020F65D05FEA437862D53D
:100370000A68920603D40A6822F004020A60DFF8D1
:10038000F0814FF48062016808F11408130114022F
:10039000414524D9A9420DD0B1420FD0B9421AD05B
:1003A000614515D0494515D0514501D1120312E0E0
:1003B000594501D104220EE0714501D140220AE0E5
:1003C0006D4D1435A94206D06B4A2832914201D1B5
:1003D0001A4600E022466749091F0A6029E0A9423F
:1003E00013D0B14215D0B94220D061451BD0494548
:1003F0001BD0514502D14FF4800217E0414502D194
:100400004FF0806212E0594501D104220EE071459F
:1004100001D140220AE0584D1435A94206D0564A6F
:100420002832914201D11A4600E022464B49083950
:100430004A60C16A71E04FF0020808FA04F818EA4D
:10044000020F70D05FEA83786DD50A68920606D4F1
:100450000A6822F00A020A60012180F82110DFF800
:1004600010814FF40072016808F11408130114029E
:10047000414524D9A9420DD0B1420FD0B9421AD07A
:10048000614515D0494515D0514501D1120312E0FF
:10049000594501D102220EE0714501D120220AE026
:1004A000354D1435A94206D0334A2832914201D144
:1004B0001A4600E022462F49091F0A6029E0A94296
:1004C00013D0B14215D0B94220D061451BD0494567
:1004D0001BD0514502D14FF4001217E0414502D123
:1004E0004FF0007212E0594501D102220EE0714531
:1004F00001D120220AE0204D1435A94206D01E4A1F
:100500002832914201D11A4600E0224613490839A7
:100510004A60002180F82010816A00291CD0BDE8C3
:10052000F05F0847FFE70825A540154214D01A07D9
:1005300012D50A6822F00E020A6090F84020C36BC0
:10054000012101FA02F25A60816380F82110002132
:1005500080F82010016BE0E7BDE8F09F0800024042
:100560001C0002403000024044000240580002409B
:100570006C000240080402401C04024030B560B127
:100580001C4A03681421934209D21B4A1A44B2FB45
:10059000F1F18900016419490AE0012030BD154AD2
:1005A00052421A44B2FBF1F1890001641149083941
:1005B000C163022180F821101A6843F6F0718A4362
:1005C000F0E901142143D0E902452C432143046999
:1005D0002143446921438469214311431960002167
:1005E00041628162C1620163416301224277017706
:1005F000084630BD08040240F8FFFDBF000002407D
:1006000070B5044690F82000002501280CD0012088
:1006100084F8200094F821600020012E06D084F890
:1006200020000225284670BD022070BD022684F8F5
:100630002160A0632068066826F001060660204657
:10064000FFF7B2FDE06A00282068016802D041F09F
:100650000E0106E021F0040101602068016841F00C
:100660000A0101602068016841F001010160D9E7D9
:100670002DE9F84FDFF8B8A100220AF1040B144667
:1006800001274FF00F090BF1040E00BF0B6807FAAA
:1006900004F52B40AB4274D1DFF898C14E68A6EB4D
:1006A0000C0866452BD00DDC032E34D005DC36B3A8
:1006B000012E19D0022E2FD11BE0112E16D0122E92
:1006C0002AD119E0B8F5881F19D006DCB8F5803FAB
:1006D00015D0B8F5801F1FD111E0B8F5001F0ED05E
:1006E000B8F5041F18D10AE0CA6815E0CA68121DDF
:1006F00012E0CA6808320FE0CA680C320CE08A685F
:100700002AB1012A4FF0080203D0456104E0042217
:1007100002E0056100E00022FF2B01D8064601E05F
:1007200000F104064FEA840501D9A5F12005D6F8A9
:1007300000C009FA05F82CEA080C02FA05F54CEAA3
:10074000050CC6F800C04D68ED006AD53A4DAE699B
:1007500046F00106AE61AD6924F0030605F001051F
:100760000095364D06EB050CDCF80850A6074FEA5D
:10077000167809FA08F6B543314EB04202D1002688
:100780001AE04EE02F4EB04201D1012614E02E4E69
:10079000B04201D102260FE02C4EB04201D1032617
:1007A0000AE02B4EB04201D1042605E0294EB042AA
:1007B00001D1052600E0062606FA08F62E43CCF8FD
:1007C00008604D68DAF80060ED03554601D51E4318
:1007D00000E09E432E604D68AD0305D5DBF8006058
:1007E0001E43CBF8006004E0DBF800509D43CBF8DB
:1007F00000504D68DEF80060ED02754601D51E43DD
:1008000000E09E432E604D68AD0205D5084D0C35C5
:100810002E681E432E6004E0054E0C3635689D435D
:100820003560641C102CFFF431AFBDE8F88F000078
:1008300000040140000011100010024000000140BF
:1008400000080140000C014000100140001401406C
:1008500000180140001C01408068084000D00120C1
:1008600070470AB1016170470904FBE701488068DD
:10087000704700000400002002488168027811449B
:100880008160704704000020074810B5016841F0FE
:1008900010010160032000F095F8002000F006F838
:1008A00000F024F8002010BD0020024070B50D4D6E
:1008B00004464FF47A712878B1FBF0F00A490968D0
:1008C000B1FBF0F000F025FB48B9102C07D2002254
:1008D0002146501E00F056F800206C6070BD0120CB
:1008E00070BD000004000020000000201D4808B575
:1008F000816941F001018161806900F0010000908F
:10090000032000F05FF8002211466FF00B0000F0AA
:1009100039F8002211466FF00A0000F033F8002287
:1009200011466FF0090000F02DF800221146501F0B
:1009300000F028F800221146101F00F023F80022D2
:100940001146901E00F01EF800221146501E00F0C5
:1009500019F80548416821F0E06141F000714160FB
:1009600008BD0000001002400000014000F01F021E
:10097000012191404009800000F1E020C0F8001101
:1009800070470000F0B40E4B1B680C46C3F3022303
:10099000C3F10705042D00D90425191D072901D22B
:1009A000002300E0DB1E012606FA05F1491E214066
:1009B00099409E40761E16403143F0BC01F05EB96E
:1009C0000CED00E0064900F0070208684FF6FF034F
:1009D000184040EA0220034A1043086070470000B4
:1009E0000CED00E00000FA052DE9F047DFF83C814E
:1009F00005460E46D8F8000000F00700B0420CD2C1
:100A0000D8F8001021F007013143C8F80010D8F8D9
:100A1000000000F00700B04263D12878444C800702
:100A200005D56068A96820F0F00008436060287868
:100A3000C00745D06868012816D02168022816D062
:100A4000890700294DDA616821F0030101436160E3
:100A5000FFF70CFF6968074641F2883001290FD083
:100A60000229814619D027E021688903E9E7890135
:100A7000E7E700BFFFF7FAFEC11B494501D918E0BF
:100A800081466068C0F381000128F3D118E000BFFF
:100A9000FFF7ECFEC11B49450BD86068C0F381002D
:100AA0000228F5D10CE000BFFFF7E0FEC11B49456D
:100AB00002D90320BDE8F087606810F00C0FF3D175
:100AC000D8F80010404601F00701B1420BD9016887
:100AD00021F0070131430160006800F00700B042D7
:100AE00001D00120E6E72878400705D56068E9686D
:100AF00020F4E060084360602878000706D560684D
:100B0000296920F4605040EAC100606000F03CF8C0
:100B10006168084AC1F30311515CC8400649086086
:100B20000020FFF7C3FE0020C4E7000000200240C1
:100B300000100240EC2C0008000000200148006872
:100B4000704700000000002004480549006849681B
:100B5000044AC1F30221515CC840704700000020E4
:100B600000100240FC2C0008044805490068496850
:100B7000044AC1F3C221515CC84070470000002004
:100B800000100240FC2C000812A185B00FC98DE8AE
:100B90000F0014A0144A006804905168134801F033
:100BA0000C03042B10D0082B0ED1C1F38343C903CF
:100BB0001DF803000AD5516804AAC1F34041515CF5
:100BC0000A4A5043B0FBF1F005B07047084948436A
:100BD000FAE7000002030405060708090A0B0C0DDA
:100BE0000E0F1010010200000010024000127A00E7
:100BF00000093D002DE9F84F04460078B94DC007C3
:100C000048D06868C0F38100012807D06868C0F345
:100C10008100022809D16868C00306D528688003CE
:100C200038D5606800286FD034E06068B0F5803F48
:100C30000BD010B1B0F5A02F11D0286820F480306F
:100C40002860286820F4802002E0286840F4803082
:100C50002860606888B1FFF709FE064609E0286849
:100C600040F480202860F0E7FFF700FE801B642836
:100C700075D828688003F7D50CE0FFF7F7FD064626
:100C800005E000BFFFF7F2FD801B6428F0D828685C
:100C90008003F7D42078944E80074FF001094FF07D
:100CA00000083BD5686810F00C0F07D06868C0F3E7
:100CB0008100022809D16868C00306D4286880072B
:100CC00014D5206901281FD110E02069B0B1C6F801
:100CD0000090FFF7CBFD074605E000BFFFF7C6FD1C
:100CE000C01B0228C4D828688007F7D52868616926
:100CF00020F0F80040EAC10028600FE0C6F800804C
:100D0000FFF7B4FD074606E0E9E000BFFFF7AEFDE0
:100D1000C01B022823D828688007F7D42078000752
:100D20002CD57248A169D9B1C0F80090FFF79EFD9B
:100D3000074604E0FFF79AFDC01B02280FD8686A37
:100D40008007F7D56A484FF4FA510068B0FBF1F01C
:100D5000009000BF0098411E0091FAD20EE080E0A2
:100D6000C0F80080FFF782FD074604E0FFF77EFD34
:100D7000C01B022875D8686A8007F7D4207840071E
:100D800060D5E8690027C00008D4E86940F08050C9
:100D9000E861E869012700F080500090554801683B
:100DA000C90513D40168834641F480710160FFF7DF
:100DB0005DFD824606E000BFFFF758FDA0EB0A008C
:100DC00064284ED8DBF80000C005F5D5E06801289E
:100DD0000AD008B1052813D0286A20F00100286243
:100DE000286A20F0040002E0286A40F0010028622E
:100DF000E06841F2883B98B1FFF738FD82460BE08E
:100E0000286A40F004002862EEE700BFFFF72EFDDD
:100E1000A0EB0A0159455AD8286A8007F6D50CE09C
:100E2000FFF724FD824605E0FFF720FDA0EB0A0155
:100E300059454CD8286A8007F6D41FB1E86920F0DC
:100E40008050E861E06988B36968C1F381010229D3
:100E500045D00228C6F8608004D0FFF707FD04469D
:100E600038E034E0FFF702FD074604E0FFF7FEFC40
:100E7000C01B02282BD828688001F7D4206AB0F55F
:100E8000803F05D16868A16820F40030084368609D
:100E9000D4E908010843696821F4741108436860C3
:100EA000C6F86090FFF7E2FC044606E015E000BFDC
:100EB000FFF7DCFC001B022809D828688001F7D561
:100EC0000BE000BFFFF7D2FC001B022802D9032071
:100ED000BDE8F88F28688001F4D40020F8E70120ED
:100EE000F6E7000000100240000042428004424247
:100EF00000000020007000404FF0E0210428086945
:100F000003D020F004000861704740F00400FAE7C5
:100F1000704710B5401EB0F1807F01D3012010BD95
:100F20004FF0E02460610F21601700F0A7FE002061
:100F3000A06107202061002010BD10B5FFF7E8FF79
:100F400010BD7047704730B590F83C20012A20D082
:100F5000012280F83C20022380F83D3003685C6861
:100F600024F070045C6003685C680D682C435C606E
:100F700003689C6824F080049C6003689C6849684E
:100F80000C439C6080F83D20002180F83C1008460E
:100F900030BD022030BD10B5040003D094F83D00F0
:100FA00010B107E0012010BD002084F83C0020466D
:100FB00000F00CF8022084F83D00211D206800F0AC
:100FC000DFFE012084F83D00002010BD08B5124A64
:100FD00001681248914207D1C16941F00201C16123
:100FE000C06900F0020009E00D4A914208D1C169D0
:100FF00041F00401C161C06900F00400009008BD27
:10100000084A9142FBD1C16941F00801C161C06940
:1010100000F00800F2E70000000400400010024069
:1010200000080040000C00400168CA6842F001025C
:10103000CA600068016841F001010160002070474A
:1010400070B5044690F83C00012817D0012584F8BB
:101050003C50022084F83D002068826822F077022C
:1010600022F47F4282600868502837D00DDC2028A7
:1010700059D005DC88B3102841D151E0022070BD61
:10108000302853D040283AD13FE060282ED0702835
:101090000BD0B0F5805F03D0B0F5005F2FD110E02A
:1010A0002068816821F0070115E0CB68D1E90121B2
:1010B000206800F0ABFE2168886840F07700886007
:1010C0001DE0CB68D1E90121206800F09FFE206877
:1010D000816841F48041816011E01EE0CA6849687E
:1010E000206800F0A5FE5021206806E0CA68496823
:1010F000206800F0AEFE6021206800F091FE84F8C8
:101100003D50002084F83C0070BDCA6849682068E2
:1011100000F08EFE40212068EFE700212068ECE718
:1011200010212068E9E720212068E6E730212068C7
:10113000E3E7704770B50446006801694FF00005A9
:10114000C943890715D4C168C943890711D4E91E69
:10115000016101202077206880698007204602D045
:10116000FFF7E7FF04E000F098F8204600F096F85B
:10117000257720680169C943490717D4C168C94365
:10118000490713D46FF00401016102202077206821
:10119000806910F4407F204602D0FFF7CAFF04E0C8
:1011A00000F07BF8204600F079F825772068016987
:1011B000C943090716D4C168C943090712D46FF09F
:1011C00008010161042020772068C069800720465B
:1011D00002D0FFF7AEFF04E000F05FF8204600F019
:1011E0005DF8257720680169C943C90617D4C1682D
:1011F000C943C90613D46FF010010161082020779C
:101200002068C06910F4407F204602D0FFF791FFAC
:1012100004E000F042F8204600F040F8257720680E
:101220000169C943C90708D1C168C943C90704D1C5
:10123000891E0161204600F033F820680169C94326
:10124000090609D4C168C943090605D46FF08001B5
:1012500001612046FFF775FE20680169C943490610
:1012600009D4C168C943490605D46FF04001016142
:10127000204600F085F820680169C94389060BD42F
:10128000C168C943890607D46FF020010161204677
:10129000BDE87040FFF756BE70BD70477047000054
:1012A0002DE9F04106462C480024B04236D12B4AA5
:1012B0002B4B4FF4807110884FF00008401C80B217
:1012C0001080142801D8002205E0782802D9A2F85D
:1012D000008003E001221846FFF7C3FA214F387857
:1012E000E0B1214D2888401E288020480188491EF1
:1012F00089B201800A2906D2052101800022082135
:101300001B48FFF7AEFA2888052807D287F8008027
:10131000A5F8008001F012F801F0A2FA1548B042D9
:1013200017D101F09DFA144D287870B91348FF21A8
:101330000155641CE4B2222CFAD300F0EDFF01F059
:1013400025FA287808B100F0F9FFBDE8F04101F076
:101350001DBABDE8F08100007402002010000020DA
:1013600000140140170000201A000020180000207F
:10137000000C0140B40200201F00002040090020A2
:10138000704710B504460068416994F83920C1F3EC
:10139000C011212A0BD151B1416921F08001416175
:1013A000206B08B1FEF716FF204600F0C2FD206852
:1013B000416994F83A20C1F38011222A0BD151B12E
:1013C000416921F040014161606B08B1FEF702FF05
:1013D000204600F0A0FD002010BD704770B50268E7
:1013E00004461068D168536910F00F0F50D003F015
:1013F000010501F4907635435DD0C20705D0CA05DA
:1014000003D5E26B42F00102E263420705D5DA0739
:1014100003D0E26B42F00202E263820705D5DA07ED
:1014200003D0E26B42F00402E263020705D5DA075B
:1014300003D0E26B42F00802E263E26B002A33D091
:10144000800604D5880602D5204600F07BFD206882
:101450004069E16BC0F38010090700D428B320462F
:1014600000F059FD2068416949061AD5416921F00B
:1014700040014161606BA0B11B494163606BFEF7A5
:10148000C1FE002810D0606B416BBDE8704008477A
:10149000830610D58B060ED52046BDE8704000F0BF
:1014A00051BD2046FFF799FF70BD2046FFF795FF1D
:1014B0000020E06370BD030606D50B0604D5204668
:1014C000BDE8704000F042BE4006F3D54806F1D5B5
:1014D000D168204621F04001D160202184F83910E4
:1014E00000F097F970BD0000771E000870B5040089
:1014F00004D094F83900002510B106E0012070BD39
:1015000084F83850204600F023F8242084F839006D
:101510002068C16821F40051C160204600F05EFDE2
:101520002068016921F4904101612068416921F03E
:101530002A0141612068C16841F40051C160E5633E
:10154000202084F8390084F83A00002070BD0000A3
:101550002DE9F0470546DFF830C1036800244B4809
:1015600002210322DFF8288180274A4E86B04FF0FF
:10157000400963451ED1836943F4804383618069D8
:10158000CDE9009100F48040CDE903206946404652
:10159000FFF76EF8CDE90074694640460294FFF704
:1015A00067F8706840F0E06040F00400706006B0DA
:1015B000BDE8F087DFF8E0C04FF0200A634531D185
:1015C000C36943F40033C361C069CDE900A100F4ED
:1015D0000030D046CDE90320DFF8C0A06946504670
:1015E000FFF746F8CDE90094694650460294FFF7AC
:1015F0003FF8706840F0E06040F008007060294EED
:101600002748C6E90004C6E902473461C6E905482F
:101610003046F461FEF7B2FF08B1B6212FE06E63E9
:101620007562C4E7204EB342C1D1C36943F480233D
:10163000C361C069039200F4802004903015CDE9A5
:10164000000169464046FFF713F8F014CDE90004A5
:10165000694640460294FFF70BF8124E1048443694
:101660003C38C6E90004C6E902473461C6E9054AC8
:101670003046F461FEF782FF0028D0D0E1210BA0B4
:1016800000F039FECBE700000038014000100240B6
:10169000000C0140000001400044004000140140E3
:1016A0006C000240EC010020004800402E2E2F5319
:1016B00072632F75736172742E630000F8B504466F
:1016C00090F83A0020283CD1C1B3BAB394F838005E
:1016D000012836D0012084F83800A162A2850025B7
:1016E000E563222084F83A00636B17489862636BC5
:1016F0001648D862636B16481863606B13464563DF
:101700000846666B216802463046091DFEF778FFE1
:10171000206801684168009184F83850C16841F43C
:101720008071C1602068416941F001014161206818
:10173000416941F0400141610020F8BDFFE701200F
:10174000FBE70220F9E70000D11E00080D1F00088A
:10175000871E0008704770472DE9F843044690F84B
:1017600039001F4616460D46202850D1A5B19EB11E
:1017700094F8380001284AD0012084F838004FF04E
:101780000008C4F83C80212084F83900FFF76EF887
:10179000A6848146E68426E00120BDE8F883E08C3B
:1017A000401EE084A0684B46B0F5805F4FF0000219
:1017B0004FF080012046009703D000F0F8FCE8B914
:1017C0000DE000F0F4FCC8B928882168C0F30800D7
:1017D0004860206908B16D1C05E0AD1C03E021687C
:1017E00015F8010B4860E08C0028D8D14B46002248
:1017F00040212046009700F0DAFC08B10320CCE736
:10180000202084F8390084F838800020C5E70220C1
:10181000C3E77047FEE70000054808B5416941F09D
:1018200001014161406900F00100009008BD000025
:10183000001002402DE9F047534886B0816941F01D
:1018400040018161816901F040010491816941F0A9
:1018500010018161816901F010010491816941F0F9
:1018600004018161816901F004010491816941F001
:1018700008018161816901F008010491816941F0E9
:10188000200181618069414E00F020000490002217
:1018900045F255513046FEF7E4FF01224AF6AA21EF
:1018A0003046FEF7DEFF3A4F002217213846FEF79A
:1018B000D8FF012241F6E8713846FEF7D2FFDFF883
:1018C000D480002252214046FEF7CBFF01224FF484
:1018D000CD514046FEF7C5FFDFF8BC90002240F234
:1018E0001D114846FEF7BDFF012241F22221484664
:1018F000FEF7B7FFDFF8A4A00022B1155046FEF7AF
:10190000B0FF01224FF699615046FEF7AAFF4FF64D
:10191000FF700125CDE90005022469460394304695
:10192000FEF7A6FE41F6FF70CDE900056946039477
:101930003846FEF79DFE41F6F210CDE900056946F6
:1019400003944046FEF794FE41F23F30CDE9000596
:10195000694603944846FEF78BFE4FF46040CDE99C
:1019600000040320039069464846FEF781FE4FF6C7
:101970009970CDE90005694603945046FEF778FE5C
:1019800006B0BDE8F08700000010024000180140DA
:101990000010014000080140000C0140001401400B
:1019A00010B5002211462520FEF7ECFF2520FEF79A
:1019B000DDFF002211462620FEF7E4FF2620FEF779
:1019C000D5FF002211462720FEF7DCFF2720FEF777
:1019D000CDFF002211463220FEF7D4FF3220FEF761
:1019E000C5FF002211461D20FEF7CCFF1D20FEF78B
:1019F000BDFF002211461E20FEF7C4FF1E20FEF789
:101A0000B5FF002211460D20FEF7BCFF0D20FEF7AA
:101A1000ADFF002211461020FEF7B4FFBDE81040D4
:101A20001020FEF7A3BF000010B5194886B0174973
:101A3000016040F27F210024C0E9011440F2E73147
:101A4000C0E9031480218161FFF7A5FA18B1412193
:101A500010A000F050FC4FF48050009069460C48F4
:101A6000FFF7EEFA18B147210AA000F044FC0494F5
:101A700004A907480594FFF766FA002803D04E2111
:101A800004A000F038FC06B010BD000000040040C7
:101A9000740200202E2E2F5372632F74696D2E63F3
:101AA0000000000010B5194886B01749016040F2E7
:101AB0007F210024C0E9011440F69F71C0E903149E
:101AC00080218161FFF767FA18B1602110A000F052
:101AD00012FC4FF48050009069460C48FFF7B0FAB2
:101AE00018B166210AA000F006FC049404A9074876
:101AF0000594FFF728FA002803D06D2104A000F018
:101B0000FAFB06B010BD000000080040B40200203F
:101B10002E2E2F5372632F74696D2E630000000008
:101B200010B5174886B015490024C0E90014846038
:101B3000C460802104618161FFF72DFA18B17F2113
:101B400010A000F0D8FB4FF48050009069460C487C
:101B5000FFF776FA18B185210AA000F0CCFB0494B7
:101B600004A907480594FFF7EEF9002803D08C215B
:101B700004A000F0C0FB06B010BD0000000C004047
:101B8000F40200202E2E2F5372632F74696D2E6382
:101B9000000000000D4810B50B4901604FF41641DC
:101BA0004160002181600C22C160C0E904128161A2
:101BB000C161FFF79BFC002805D0BDE8104047211C
:101BC00003A000F098BB10BD003801402C0100209C
:101BD0002E2E2F5372632F75736172742E63000063
:101BE0000D4810B50B4901604FF4E131416000210F
:101BF00081600C22C160C0E904128161C161FFF7FC
:101C000075FC002805D0BDE810405A2103A000F063
:101C100072BB10BD004400406C0100202E2E2F53DB
:101C200072632F75736172742E6300000D4810B5D6
:101C30000B4901604FF416514160002181600C2274
:101C4000C160C0E904128161C161FFF74FFC002847
:101C500005D0BDE810406D2103A000F04CBB10BDC5
:101C600000480040AC0100202E2E2F5372632F75C8
:101C7000736172742E630000FEE770470907090E56
:101C8000002806DA00F00F0000F1E02080F8141DB3
:101C9000704700F1E02080F80014704770477047EB
:101CA00010B5FEF7E9FDBDE81040FFF746B930B5C5
:101CB0008FB002250120049000951020059000248B
:101CC0004FF46010CDE9084007956846FEF792FF93
:101CD00000B1FEE70F20CDE90A054FF48060CDE9A1
:101CE0000C4002210AA80E94FEF77EFE00B1FEE72A
:101CF000FEF724FF4FF47A71B0FBF1F0FFF709F91A
:101D00000420FFF7F9F800221146501EFEF73AFEB4
:101D10000FB030BD0D48016841F00101016041681C
:101D20000B4A1140416001680A4A11400160016894
:101D300021F480210160416821F4FE0141604FF4EB
:101D40001F0181600449C003086070470010024011
:101D50000000FFF8FFFFF6FE08ED00E00148FFF786
:101D6000E9B90000740200200148FFF7E3B9000060
:101D7000B40200200148FFF7DDB90000F4020020A2
:101D8000F0B502681C4B1D4D1D4E1E4F1E4C4FF0F2
:101D9000804C984209D0A04207D0604505D0A842A7
:101DA00003D0B04201D0B84204D122F0700E4A688C
:101DB00042EA0E02984209D0A04207D0604505D001
:101DC000A84203D0B04201D0B84203D122F44075FA
:101DD000CA682A4322F080054A692A4302608A6859
:101DE000C2620A688262984201D0A04201D10969A8
:101DF000016301214161F0BD002C0140000400405D
:101E000000080040000C00400034014010B5846818
:101E100042EA032224F47F440A432243826010BD35
:101E2000826822F070020A4342F007018160704725
:101E300010B5036A046A24F001040462846924F082
:101E4000F00444EA021423F00A020A4384610262A5
:101E500010BD10B5036A23F0100303628369046A9E
:101E600023F4704343EA023224F0A00343EA011151
:101E70008261016210BD10B5406A0021C185C18434
:101E8000FFF7ABFA10BD70B5446A2068406994F85A
:101E90003910C0F3C0100025212904D118B1E58400
:101EA000204600F046F82068406994F83A10C0F3E4
:101EB0008010222904D118B1E585204600F02BF8C6
:101EC000E06B40F01000E0632046FFF786FA70BD3B
:101ED00010B50146406A09680968890613D40021D3
:101EE000C1850168CA6822F48072CA6001684A69C3
:101EF00022F001024A6101684A6922F040024A6107
:101F0000202180F83A10FFF725FC10BD10B5406A7B
:101F1000FFF721FC10BD0168CA6822F49072CA6004
:101F200001684A6922F001024A61202180F83A10D2
:101F300070470168CA6822F0C002CA60202180F898
:101F40003910704710B590F83A10222901D00220BC
:101F500010BD8168B1F5805F11D001690029016869
:101F60001FD0496801F07F03816A4A1C82620B70AE
:101F7000C18D491E0904090CC18518D02BE00269E6
:101F8000816A002A0268526805D0D2B20A80816A4A
:101F9000491C8162ECE7C2F308020A80816A891C4D
:101FA000F7E74A68816A4B1C83620A70E0E70168C0
:101FB000CA6822F02002CA600168CA6822F48072EE
:101FC000CA6001684A6922F001024A61202180F852
:101FD0003A10FFF7BFFB002010BD00002DE9F041D3
:101FE000044600680169E26821F44051114301612F
:101FF0002169A0680843616908432168CA6841F201
:102000000C639A430243CA6020684169A26921F4C3
:102010004071114341614C49206864253226884251
:102020003CD1FEF7A1FD00EBC00101EB001061689F
:102030008900B0FBF1F7FEF797FD00EBC00101EB63
:1020400000106168B0468900B0FBF1F0B0FBF5F01C
:102050006FF01801484307EB800106EB0110B0FB5D
:10206000F5F000F0F006FEF77FFD00EBC00101EB9C
:10207000001061688900B0FBF1F0B0FBF5F006EBF1
:102080000016FEF771FD00EBC00101EB0010616866
:102090008900B0FBF1F7FEF767FD3BE0FEF754FD6A
:1020A00000EBC00101EB001061688900B0FBF1F7A3
:1020B000FEF74AFD00EBC00101EB00106168B0467D
:1020C0008900B0FBF1F0B0FBF5F06FF01801484368
:1020D00007EB800106EB0110B0FBF5F000F0F00615
:1020E000FEF732FD00EBC00101EB001061688900D2
:1020F000B0FBF1F0B0FBF5F006EB0016FEF724FDA7
:1021000000EBC00101EB001061688900B0FBF1F742
:10211000FEF71AFD00EBC00101EB001061688900B9
:10212000B0FBF1F0B0FBF5F06FF01801484307EB9E
:10213000800108EB0110B0FBF5F0216800F00F0002
:1021400030448860BDE8F0810038014090F83910D3
:10215000212901D0022070478168B1F5805F016AB2
:102160000BD04A1C0262026809785160C18C491E7A
:102170000904090CC1840ED017E009880268C1F374
:102180000801516001690029016A02D0491C0162FD
:10219000ECE7891CFBE70168CA6822F08002CA608C
:1021A0000068C16841F04001C160002070472DE91E
:1021B000F041984617460E460446069D1DE0681CF1
:1021C0001BD02DB1FEF752FBA0EB0800A84214D99A
:1021D0002068C16821F4D071C1602068416921F094
:1021E00001014161202084F8390084F83A00002080
:1021F00084F838000320BDE8F0812068006836EAE2
:10220000000004D00020B842D9D00020F3E701201C
:10221000F9E700002DE9F041244800680068C04358
:1022200080063DD422480068234CC1B2214E60880C
:102230005A2900D118B12278012A02D004E00122E3
:1022400022703154401C608080B200251B4F022850
:1022500002D0052806D023E03878884220D0658057
:1022600025701DE00421134800F0EEFC6580257008
:102270003179814214D1124C5A20242120703878AF
:102280006070204600F0E0FC84F824002521204600
:1022900000F046FA2521204600F042FA00F03CF812
:1022A000BDE8F0410148FFF799B800002C0100207B
:1022B000043801402C0000201200002022000020E1
:1022C0004009002010B5044800F0F2F9BDE81040C4
:1022D0000148FFF783B800006C01002010B50448E6
:1022E00000F0B2F9BDE810400148FFF777B80000F0
:1022F000AC010020FEE7FEE702E008C8121F08C19B
:10230000002AFAD170477047002001E001C1121F76
:10231000002AFBD1704700000A20074900220A5416
:10232000401CC0B21228FAD31A200A54401CC0B272
:102330002228FAD3704700004009002002200449F7
:1023400000220A54401CC0B22228FAD300F088BAF6
:102350004009002005480068C16841F01001C160D3
:102360004FF4007202490148FFF7A8B9AC01002000
:10237000380300202DE9F041A84C0026354620788E
:10238000C00771D000202070A548007800286BD0CD
:10239000A4480078002867D02079022864D16079A9
:1023A000C32861D1A048007810B1E17A81425BD1A5
:1023B0009E48007810B1217B814255D19C4801781C
:1023C0009648407B11B1012903D004E000284BD08E
:1023D00001E0002848D194F82800032844D12321A3
:1023E000201D00F03DFC94F8272082423CD11B20A8
:1023F0002118097909B1761CB6B2401C80B2232895
:10240000F6D38C498C488D4F8D4B012E2DD9657B91
:10241000002D7DD014F81F6F00788D7886403543ED
:102420008D706678CD7886403543CD70A6780D796D
:10243000864035430D71E6784D79864035434D71C0
:1024400026798D79864035438D71A679CD79864080
:102450003543CD71E4790D7A844025430D724C7A71
:10246000824014434C72CAE0D6E01B2604EB060CF3
:102470009CF804C0BCF1000F00D06546761CB6B2D3
:10248000232EF3D30026B44625FA0CFE5FEACE7E57
:1024900001D0761CB6B20CF1010C1FFA8CFCBCF119
:1024A000080FF1D3012EB2D8657B95B394F81FC005
:1024B00000788D7A0CFA00FC45EA0C058D7294F8D0
:1024C00020C0CD7A0CFA00FC45EA0C05CD7294F8D8
:1024D00021C00D7B0CFA00FC45EA0C050D7394F845
:1024E00022C04D7B0CFA00FC45EA0C054D7394F8B4
:1024F00023C08D7B0CFA00FC45EA0C058D7394F823
:1025000025C0CD7B0CFA00FC45EA0C05CD7301E03B
:102510000BE034E094F826400D7C844025430D7494
:102520004C7C824014434C7465E014F81F6F0078B3
:102530008D7C864035438D746678CD7C86403543EE
:10254000CD74A6780D7D864035430D75E6784D7DBA
:10255000864035434D7526798D7D864035438D7592
:10256000A679CD7D86403543CD75E4790D7E8440D6
:1025700025430D764C7E824014434C763FE094F820
:102580001FC0007811F81A5F0CFA00FC45EA0C0530
:102590000D7094F820C04D780CFA00FC45EA0C054B
:1025A0004D7094F821C08D780CFA00FC45EA0C05BA
:1025B0008D7094F822C0CD780CFA00FC45EA0C0529
:1025C000CD7094F823C00D790CFA00FC45EA0C0597
:1025D0000D7194F825C04D790CFA00FC45EA0C0504
:1025E0004D7194F826408D79844025438D71CC79C6
:1025F00082401443CC71012E01D1988808B93888E3
:102600009880012058703C205880BDE8F04101229C
:1026100008210C48FEF725B9BDE8F08134030020FD
:102620001C0000201F0000202000002021000020AE
:102630001D00002040090020230000202800002069
:1026400016000020000C014038B500680068C04347
:10265000C00617D40C4C20680168406800902046E2
:10266000FEF78FFE606B006840680849C0F5007097
:102670004880012001F8040B42022046BDE83840A2
:10268000FFF71CB838BD0000AC0100203403002067
:1026900005480068C16841F01001C1604FF4007244
:1026A00002490148FFF70AB86C0100203C050020F0
:1026B00038B500680068C043C00617D40C4C2068C9
:1026C0000168406800902046FEF75BFE606B006882
:1026D00040680849C0F500704880012001F8040BEB
:1026E00042022046BDE83840FEF7E8BF38BD000092
:1026F0006C010020380500200A4601464FF6FF73A2
:102700000148FFF729B800006C0100200348006869
:10271000C16841F02001C160704700002C01002019
:102720000A4601464FF6FF730148FFF715B800004F
:102730002C0100207047000070B5084D0024802156
:102740002846FEF789F800B9012420212846FEF723
:1027500083F800B9A41C601C70BD00000008014093
:1027600010B5002402210748FEF776F800B90124CD
:102770004FF400710448FEF76FF800B9A41C20461E
:1027800010BD000000180140000C014010B52021D0
:102790000248FEF761F80249C87010BD000C014004
:1027A0001C00002070B5002480210A48FEF754F870
:1027B00000B90124084D20212846FEF74DF800B944
:1027C000A41C08212846FEF747F800B9241D20461E
:1027D00070BD0000001401400018014070B5094DA3
:1027E00000244FF400512846FEF736F800B90124C2
:1027F0004FF400612846FEF72FF800B9A41C2046CC
:1028000070BD00000018014070B5084D00244FF461
:1028100000712846FEF720F800B9012480212846DF
:10282000FEF71AF800B9A41C204670BD001801403C
:1028300010B508210748FEF70FF8074C00B101203A
:10284000A07008210548FEF707F8002801D10220F2
:10285000A07010BD001001401C00002000140140B9
:102860002DE9F05FCA48CB4ECB4D4278B714CB4C24
:10287000CB484FF400684FF4806B002A4FF480710E
:102880007ED0FDF7E9FF18B9A07840F00100A070F4
:102890004FF400713046FDF7DFFF18B9A07840F023
:1028A0000200A0704FF480713046FDF7D5FF18B9D3
:1028B000A07840F00400A07080213046FDF7CCFFE6
:1028C00018B9A07840F00800A07040213046FDF70C
:1028D000C3FF18B9A07840F01000A0704FF4004179
:1028E0002846FDF7B9FF18B9A07840F02000A07085
:1028F0004FF480412846FDF7AFFF18B9A07840F0AB
:102900004000A0704FF400512846FDF7A5FF18B90C
:10291000A07840F08000A070B94639462846FDF7FF
:102920009BFF18B9E07840F00100E070474641464F
:102930002846FDF791FF18B9E07840F00200E070FA
:102940004FF400712846FDF787FF18B9E07840F092
:102950000400E070DFF84882BA4639464046FDF789
:102960007BFF18B9E07840F00800E0704F46494618
:102970004046FDF771FF28B9E07840F0100000E014
:1029800043E0E07059463046FDF766FF18B9E0783D
:1029900040F02000E07051463046FDF75DFF18B969
:1029A000E07840F04000E07039463046FDF754FFD3
:1029B00018B9E07840F08000E07001212846FDF76A
:1029C0004BFF18B9207940F0010020715946284684
:1029D000FDF742FF18B9207940F002002071394616
:1029E0007048FDF739FF18B9207940F004002071D4
:1029F0004FF400416C48FDF72FFF002803D12079E8
:102A000040F008002071BDE8F09FFDF725FF18B9E0
:102A1000A07C40F00100A0744FF400713046FDF737
:102A20001BFF18B9A07C40F00200A0744FF4807125
:102A30003046FDF711FF18B9A07C40F00400A074E7
:102A400080213046FDF708FF18B9A07C40F008004F
:102A5000A07440213046FDF7FFFE18B9A07C40F07D
:102A60001000A0744FF400412846FDF7F5FE18B998
:102A7000A07C40F02000A0744FF480412846FDF770
:102A8000EBFE18B9A07C40F04000A0744FF4005158
:102A90002846FDF7E1FE18B9A07C40F08000A07444
:102AA000B94639462846FDF7D7FE18B9E07C40F014
:102AB0000100E074474641462846FDF7CDFE18B9AF
:102AC000E07C40F00200E0744FF400712846FDF70E
:102AD000C3FE18B9E07C40F00400E074DFF8C08069
:102AE000BA4639464046FDF7B7FE18B9E07C40F0DB
:102AF0000800E0744F4649464046FDF7ADFE18B960
:102B0000E07C40F01000E07459463046FDF7A4FE2A
:102B100018B9E07C40F02000E07451463046FDF7E3
:102B20009BFE18B9E07C40F04000E0743946304626
:102B3000FDF792FE18B9E07C40F08000E0740121BE
:102B40002846FDF789FE18B9207D40F00100207568
:102B500059462846FDF780FE18B9207D40F0020056
:102B6000207539460F48FDF777FE18B9207D40F0F3
:102B7000040020754FF400410B48FDF76DFE00285E
:102B80007FF441AF207D40F0080020753BE7000056
:102B90001C000020001001400014014040090020EA
:102BA00000080140000C0140001801402DE9F041EF
:102BB000224E4FF40045002229463046FDF751FED3
:102BC0001F4F20213846FDF747FE1E4C0221E070C2
:102BD0003846FDF741FE607029463046FDF73CFE61
:102BE000D0B100202070FFF723FEFFF7F7FD207122
:102BF000FFF70AFE6071FFF79FFDA071FFF7D2FD9E
:102C0000E071FFF7ADFD207240B1012808D0022825
:102C10000DD003280ED006E00120E3E7642001E098
:102C20004FF4FA70E060BDE8F041FFF719BE4FF4D1
:102C30007A70F7E740F6B830F4E70000000801408A
:102C4000000C01401C00002010B503460078012252
:102C500003E09C5C6040521C92B28A42F9D310BDE2
:102C600010B503460078012203E09C5C6040521CD2
:102C700092B28A42F9D310BDFDF706FEFFF717F8AE
:102C8000FEF7D8FDFEF7C8FDFEF7AAFFFEF782FFAC
:102C9000FEF7CCFFFEF7C8FEFEF704FFFEF740FF8D
:102CA000FEF77EFEFFF746FDFFF754FBFFF7F0FC53
:102CB000FFF72CFDFFF77AFF0948FEF7B5F9094841
:102CC000FEF7B2F90025084CFFF754FB2078C00747
:102CD000FAD025706188201DFFF70EFDF4E7000093
:102CE00074020020B402002038050020000000001B
:102CF00000000000010203040607080900000000AC
:102D000001020304242D0008000000202C00000014
:102D1000F8220008502D00082C0000203C0D000077
:102D20000823000800A24A0401000000100000006F
:102D30000000000000000000000000000000000093
:102D40000000000000000000000000000000000083
:0400000508000131BD
:00000001FF
